:020000040800F2
:10000000900800204501000895200008ED1A00081E
:1000100047200008A90F0008DD410008000000008B
:10002000000000000000000000000000093000088F
:10003000C910000800000000092C0008C93300089E
:100040005F0100085F0100085F0100085F01000810
:100050005F0100085F0100085F0100085F01000800
:100060005F0100085F0100085F0100085F010008F0
:100070005F0100085F0100085F0100085F010008E0
:100080005F0100085F0100085F0100085F010008D0
:100090005F0100085F0100085F0100085F010008C0
:1000A0005F0100085F0100085F0100085F010008B0
:1000B0005F0100080D360008BD3600085F0100082A
:1000C0005F0100085F0100085F0100085F01000890
:1000D0005F0100085F0100085F010008093E000899
:1000E0005F0100085F0100085F0100085F01000870
:1000F0005F0100085F0100085F0100085F01000860
:100100005F0100085F0100085F0100085F0100084F
:100110005F010008553D00085F0100085F0100080D
:100120005F0100085F0100085F0100085F0100082F
:10013000DFF80CD000F0BEFB0048004791470008F4
:10014000900800200648804706480047FEE7FEE783
:10015000FEE7FEE7FEE7FEE7FEE7FEE7FEE7FEE777
:10016000953400083101000840EA01039B0703D0E1
:1001700009E008C9121F08C0042AFAD203E011F8E6
:10018000013B00F8013B521EF9D27047F0B480EAFF
:100190000102D40F4200B2EB410F02D202460846E0
:1001A00011464A0042D0C30DDDB2C1F3C752AD1AA9
:1001B000202D35DAC1F3160141F4000204B1524298
:1001C000C5F1200602FA06F12A411044B3EBD05FD4
:1001D00023D0C4B1012DA0EBC35009DCF0BC4FF01B
:1001E000004202EAC352DBB200F5000000F0D6BACA
:1001F000400000F1807000EBC350A0F1807040EA35
:10020000D170490009E0490841EAC071A0EBC35030
:1002100000F50000400800EBC350F0BC00F0B5BA98
:100220006142012202EB4101001BF6E7F0BC70477E
:1002300081F00041AAE780F00040A7E780EA0102D0
:1002400010B502F00043400022D04A001FD0010E3A
:1002500001EB1261C0F35600C2F3560240F40000F5
:1002600042F40002A0FB022000047F39140400D0F5
:10027000401C50EA124001D44000491EC2B20C0694
:1002800004EBD010401C4008802A02D003E000207C
:1002900010BD20F00100002900DA0020184310BD35
:1002A00030B480EA010202F0004530F0004221F053
:1002B000004013D090B1C30DD40DC2F31601C0F3AA
:1002C0001600E41A41F4000140F400027D3491422A
:1002D00001D3641C00E04900002C02DA30BC00208D
:1002E00070474FF400000023914201D3891A034361
:1002F00040084FEA4101F7D151B1914202D14FF08C
:10030000004105E002D24FF0010101E06FF0010170
:1003100003EBC450284430BC00F037BA2DE9FE4F3F
:10032000804681EA0300C00F0C46009021F0004196
:1003300023F00045B8EB0200A94105D24046214612
:1003400090461C460B46024623F00040104347D01F
:10035000270DC7F30A00C3F30A510290401A019017
:1003600040286BDAC3F3130040F4801B00989246D8
:1003700020B10023D2EB030A63EB0B0B0198594623
:10038000C0F14002504600F0CFF906460D465046F7
:100390005946019A00F0E7F910EB0800614100248A
:1003A00087EA115284EAE7731A4340D0009A62B395
:1003B000019A012A4FEA075215DC001B61EB02018A
:1003C0004FF0004202EA0752CDE90042001C41F51D
:1003D000801132462B4600F01EFA03B0BDE8F08FC4
:1003E00040462146F9E7001B61EB0201001C41F584
:1003F000801300185B412018A2F5001747EB03019A
:1004000040EAD570B6196D4111E06D084FEA360625
:1004100045EAC0754FEA0752001B61EB0201001C60
:1004200041F5801149084FEA300000195141324628
:100430002B4603B0BDE8F04F00F0DEB90098012272
:1004400040000023D0EB020263EBE07300982146EA
:100450004FEAE074B8EB000061EB0401E9E783F0D8
:1004600000435BE781F0004158E72DE9FE4F81EA48
:10047000030404F0004421F0004100944FF0000B0D
:1004800023F0004350EA01045ED052EA03045BD03B
:10049000C3F30A54C1F30A552C44A4F2F334019473
:1004A000A0FB0254C1F3130141F48011C3F3130301
:1004B00043F4801301FB024400FB034E840A970AB5
:1004C00044EA815447EA8357A4FB076802958D0AE2
:1004D00005FB07854FEA932C04FB0C542705029D6E
:1004E0004FEA065847EA1637B5EB08056EEB070CDE
:1004F000870E920E47EA811742EA8312A7FB020198
:10050000B6EB0B0164EB00042B0D43EA0C335E18D1
:1005100044EB1C50DA465146E7FB0201C5F31304D5
:100520004FEA0B3343EA14534FEA0432019C43EA87
:100530000603A4F10C040294009CCDE900B400F081
:100540006AF903B0BDE8F08F00200146F9E72DE914
:10055000F04D81EA030404F0004B21F000451446FD
:100560004FF0000A23F0004150EA050220D054EA7F
:1005700001021DD0C5F30A570246C5F31303C1F3A8
:100580001300C1F30A5640F4801543F48013A7EB1F
:100590000608101BD64608F2FD3873EB050002D39F
:1005A00008F1010801E092185B41B8F1000F03DA8D
:1005B00000200146BDE8F08D00204FF48011064672
:1005C00084460EE0171B73EB050705D3121B63EB84
:1005D000050306434CEA010C49084FEA3000921823
:1005E0005B4150EA0107EDD152EA030012D082EAE2
:1005F000040083EA0501084305D0101BAB4106D275
:100600000122002306E000224FF0004302E06FF0D9
:10061000010253101AEB06004CEB085110EB0A00D4
:1006200041EB0B01BDE8F04D00F0E6B8C10F80EAE8
:10063000E0700844CA079623002100F0AFB80EB559
:10064000C10F80EAE0700844CA07002140F233433A
:100650008DE80E000A460B4600F0DDF803B000BD41
:1006600000F0004220F00040C10DC0F3160040F43D
:1006700000007F2901DA00207047962903DCC1F1D0
:100680009601C84001E096398840002AF4D04042E3
:100690007047C1F30A5210B5C1F3130140F2FF33A2
:1006A00041F480119A4201DA002010BD40F2334338
:1006B0009A42A2F2334203DC524200F044F810BDE9
:1006C000904010BD01F0004330B421F0004150EAE9
:1006D000010206D00A0DA2F56072C1F31301002ACF
:1006E00002DC30BC00207047440F44EAC104C10062
:1006F000E01830BC00EBC25000F047B830B50B46F4
:10070000014600202022012409E021FA02F59D4241
:1007100005D303FA02F5491B04FA02F52844151E15
:10072000A2F10102F1DC30BD202A04DB203A00FAFC
:1007300002F1002070479140C2F1200320FA03F338
:10074000194390407047202A04DB203A21FA02F036
:100750000021704721FA02F3D040C2F120029140FB
:10076000084319467047202A06DBCB17203A41FA86
:1007700002F043EAE07306E041FA02F3D040C2F12E
:10078000200291400843194670470029A8BF7047CE
:10079000401C490008BF20F00100704710B4B0FAB7
:1007A00080FC00FA0CF050EA010404BF10BC704752
:1007B00049B1CCF1200421FA04F411FA0CF118BF6C
:1007C000012121430843A3EB0C01CB1D4FEA00613B
:1007D0004FEA102042BF002010BC704700EBC3500E
:1007E00010440029A4BF10BC7047401C490008BF3A
:1007F00020F0010010BC704710B5141E73F1000406
:1008000008DA401C41F1000192185B411A4301D102
:1008100020F0010010BD2DE9F04D92469B4611B12C
:10082000B1FA81F202E0B0FA80F220329046FFF78E
:100830007BFF04460F4640EA0A0041EA0B0153469B
:100840005A46084313D0114653EA010019D0C8F1A3
:1008500040025046FFF777FF05460E465046594680
:100860004246FFF761FF084305D0012004E020461F
:100870003946BDE8F08D0020054346EAE0762C437A
:1008800037430A986305E40AA0EB08000022FD0A3A
:1008900044EA47540A3002D500200146E9E7010541
:1008A00010196941DDE9084500196941BDE8F04DBD
:1008B000A2E70000064C074D06E0E06840F00103A7
:1008C00094E8070098471034AC42F6D3FFF734FCA5
:1008D000288400084884000870B58C1810F8015B63
:1008E00015F0070301D110F8013B2A1106D110F8C9
:1008F000012B03E010F8016B01F8016B5B1EF9D1CD
:100900002B0705D40023521E0DD401F8013BFAE752
:1009100010F8013BCB1A921C03E013F8015B01F8BD
:10092000015B521EF9D5A142D8D3002070BD000052
:1009300008B50121102002F079F94020ADF800003F
:1009400018208DF8030003208DF8020069462E4818
:1009500000F0F8FF0121102002F068F94020ADF806
:10096000000004208DF8030003208DF80200694682
:10097000264800F0E7FF0121102002F057F94FF45C
:100980008070ADF8000018208DF8030003208DF86A
:10099000020069461C4800F0D5FF0121102002F03A
:1009A00045F94020ADF8000004208DF80300032035
:1009B0008DF802006946164800F0C4FF01210420AA
:1009C00002F034F94FF48070ADF8000018208DF873
:1009D000030003208DF8020069460C4800F0B2FFC6
:1009E0000121042002F022F94FF40060ADF800006C
:1009F00018208DF8030003208DF802006946034893
:100A000000F0A0FF08BD00000010014000080140F8
:100A1000000C014010B5FFF78BFF00F00FF900F05C
:100A200001F810BD00B58BB00121480302F0FEF8BB
:100A30000121022002F0EAF80121480302F0F6F851
:100A40000121042002F0E2F80121C80202F0EEF8D0
:100A50000121C80202F0EAF8FF20ADF824000020CE
:100A6000ADF82000ADF82600ADF822008DF8280082
:100A700008A96E4803F072F808A96C4803F06EF8F4
:100A800008A96B4803F06AF808A9694803F066F8FA
:100A900040F2E730ADF824004720ADF8200008A967
:100AA000644803F05BF808A9634803F057F8602036
:100AB000ADF810000120ADF812000420ADF81400CC
:100AC0006420ADF816000020ADF81800ADF81A004B
:100AD0004FF48070ADF81C000020ADF81E0004A992
:100AE000524802F071FE04A9524802F0C3FE04A964
:100AF0004E4802F01FFF04A94F4802F075FF04A9F9
:100B00004B4802F061FE04A9494802F06DFF08213C
:100B1000464802F0A5FE0821464802F0FDFE0821E5
:100B2000424802F057FF0821434802F09BFF08218A
:100B30003F4802F095FE08213D4802F093FF002057
:100B4000ADF80400ADF806000120ADF80800002063
:100B5000ADF80A00ADF80C0001A9364802F08FFF8D
:100B60005021344802F0C9FF0421324802F0D7FF77
:100B70008021304802F0CAFF012202212D4802F0F4
:100B800019FE02212B4802F0F1FD0121294802F053
:100B9000F0FD0020ADF80400ADF806000120ADF82E
:100BA00008000020ADF80A00ADF80C0001A92248A9
:100BB00002F065FF5021204802F09FFF04211E48EB
:100BC00002F0ADFF80211C4802F0A0FF01220221AB
:100BD000194802F0EFFD0221174802F0C7FD01217C
:100BE000154802F0C6FD0121104802F0C2FD0121A6
:100BF0000E4802F0BEFD01210D4802F0BAFD0121B0
:100C00000B4802F0B6FD0121084802F0BEFD0121AB
:100C1000064802F0BAFD0121054802F0B6FD0121A7
:100C2000034802F0B2FD0BB000BD000000340140EB
:100C3000002C0140000400400008004008B54FF4BB
:100C4000A06001F085FA1D208DF8000000208DF8CD
:100C500001008DF8020001208DF80300684601F0C4
:100C60003FFA1E208DF80000684601F039FA08BDF1
:100C700070B50546002400268021C74800F05AFEC2
:100C80004FF48061C54800F0E8FE4E21C44802F0F0
:100C900031FA4E21C248083802F02CFA40F2EE2018
:100CA00002F074FB77E10421032002F025FA012809
:100CB00000D10126012E06D10421032002F01CFAE6
:100CC00008B9641C00260321084602F015FA20B179
:100CD0000321042002F010FA58B91E21B04802F096
:100CE00009FA1E21AE48083802F004FAFA2002F090
:100CF0004DFB0421032002F0FFF9002873D10421E9
:100D0000084602F0F9F90128F8D10121042002F087
:100D1000F3F948B10221042002F0EEF920B10321D9
:100D2000042002F0E9F998BB33E000219C48083820
:100D300002F0E0F99B480068401C9A4908600846A8
:100D40000068022800DD25E00421084602F0D4F9FD
:100D5000F8B900219248083802F0CCF900219048F7
:100D600002F0C8F980218C4800F077FE4FF48061D2
:100D70008A4800F0DFFD1E21894802F0BBF91E21E0
:100D80008748083802F0B6F9C82002F0FFFA01E0FF
:100D900005E0CAE700BF002082490860F0E00521B5
:100DA000042002F0A9F950B10621042002F0A4F9B0
:100DB00028B10721042002F09FF90028EED137E086
:100DC00000217748083802F095F98021724800F038
:100DD00044FE74480068401C724908600846006878
:100DE000022801DD25E029E00421084602F084F90B
:100DF000F0B900216A48083802F07CF900216848FF
:100E000002F078F98021644800F027FE4FF48061F9
:100E1000624800F08FFD1E21614802F06BF91E212F
:100E20005F48083802F066F9C82002F0AFFA00E027
:100E3000C6E700BF00205B490860A1E00421032051
:100E400002F05AF90128A9D10421084602F054F908
:100E50000028A3D10021032002F04EF948B9062151
:100E6000032002F049F920B10721032002F044F9E0
:100E700090BB32E000214A4802F03CF94948006842
:100E8000401C4849086008460068022800DD25E04B
:100E90000421032002F030F9F8B900214048083855
:100EA00002F028F900213E4802F024F980213A4856
:100EB00000F0D3FD4FF48061384800F03BFD1E2167
:100EC000374802F017F91E213548083802F012F9A8
:100ED000C82002F05BFA01E005E0CBE700BF00208C
:100EE000304908604CE00121032002F005F948B1C7
:100EF0000221032002F000F920B10321084602F08C
:100F0000FBF8B8BB37E00021254802F0F3F84FF4B6
:100F10008061224800F00EFD22480068401C2149F3
:100F2000086008460068022800DD25E0042103204F
:100F300002F0E2F8F8B900211948083802F0DAF8AE
:100F40000021174802F0D6F88021134800F085FDF3
:100F50004FF48061114800F0EDFC1E21104802F0B2
:100F6000C9F81E210E48083802F0C4F8C82002F063
:100F70000DFA01E004E0C6E700BF0020094908605F
:100F8000AC4202DB02F0CAF970BD2146012000F03C
:100F90003FFF01F09BFB86E600140140001001407A
:100FA0003C3401403801002000BFFEE73A490A788E
:100FB0000978491C384B19703849885409785529E3
:100FC00003D000211A4611707047334909780B2964
:100FD00000DAF9E73149497850390A2956D2DFE871
:100FE00001F0050D151D252D353D454D2C492B4A8C
:100FF000921C13680B6052684A6047E02949274AEF
:10100000921C13680B6052684A603FE02649234AED
:10101000921C13680B6052684A6037E023491F4AEC
:10102000921C13680B6052684A602FE020491B4AEB
:10103000921C13680B6052684A6027E01D49174AEA
:10104000921C13680B6052684A601FE01A49134AE9
:10105000921C13680B6052684A6017E017490F4AE8
:10106000921C13680B6052684A600FE014490B4AE7
:10107000921C13680B6052684A6007E01149074AE6
:10108000921C13680B6052684A6000BF00BF0021C9
:10109000014A117000BF97E7340100205803002077
:1010A000920000209A000020A2000020AA00002048
:1010B000B2000020BA000020C4000020CC000020B4
:1010C000D4000020DC0000207047000070B5054609
:1010D000002400268021C74800F0BFFC4FF4806147
:1010E000C54800F027FC4E21C44802F003F84E2109
:1010F000C248083801F0FEFF40F2EE2002F046F947
:1011000077E10421032001F0F7FF012800D1012637
:10111000012E06D10421032001F0EEFF08B9641C62
:1011200000260321084601F0E7FF20B10321042037
:1011300001F0E2FF58B91E21B04801F0DBFF1E218B
:10114000AE48083801F0D6FFFA2002F01FF904215A
:10115000032001F0D1FF002873D10421084601F0DB
:10116000CBFF0128F8D10721042001F0C5FF48B1C9
:101170000621042001F0C0FF20B10521042001F068
:10118000BBFF98BB33E000219C48083801F0B2FF58
:101190009B480068401C9A4908600846006802287D
:1011A00000DD25E00421084601F0A6FFF8B9002182
:1011B0009248083801F09EFF0021904801F09AFF04
:1011C00080218C4800F049FC4FF480618A4800F08F
:1011D000B1FB1E21894801F08DFF1E218748083888
:1011E00001F088FFC82002F0D1F801E005E0CAE76D
:1011F00000BF002082490860F0E00321042001F0D4
:101200007BFF50B10221042001F076FF28B10121BB
:10121000042001F071FF0028EED137E0002177486B
:10122000083801F067FF8021724800F083FB7448A2
:101230000068401C7249086008460068022801DD09
:1012400025E029E00421084601F056FFF0B900210D
:101250006A48083801F04EFF0021684801F04AFF53
:101260008021644800F0F9FB4FF48061624800F08F
:1012700061FB1E21614801F03DFF1E215F480838D7
:1012800001F038FFC82002F081F800E0C6E700BF97
:1012900000205B490860A1E00421032001F02CFF3D
:1012A0000128A9D10421084601F026FF0028A3D176
:1012B0000021032001F020FF48B90221032001F0A2
:1012C0001BFF20B10321084601F016FF90BB32E05E
:1012D00000214A4801F00EFF49480068401C484977
:1012E000086008460068022800DD25E0042103208C
:1012F00001F002FFF8B900214048083801F0FAFE79
:1013000000213E4801F0F6FE80213A4800F0A5FB9E
:101310004FF48061384800F00DFB1E21374801F082
:10132000E9FE1E213548083801F0E4FEC82002F02D
:101330002DF801E005E0CBE700BF00203049086050
:101340004CE00521032001F0D7FE48B1062103201F
:1013500001F0D2FE20B10721032001F0CDFEB8BB81
:1013600037E00021254801F0C5FE4FF48061224896
:1013700000F073FB22480068401C214908600846C1
:101380000068022800DD25E00421032001F0B4FEFE
:10139000F8B900211948083801F0ACFE00211748BF
:1013A00001F0A8FE8021134800F057FB4FF4806144
:1013B000114800F0BFFA1E21104801F09BFE1E21CB
:1013C0000E48083801F096FEC82001F0DFFF01E06A
:1013D00004E0C6E700BF002009490860AC4202DB18
:1013E00001F09CFF70BD2146012000F011FD00F0CE
:1013F000CBFE86E600140140001001403C34014061
:101400003801002070B5054600240026802144489C
:1014100000F023FB4FF48061424800F08BFA4E212C
:10142000414801F067FE4E213F48083801F062FE56
:1014300040F2EE2001F0AAFF70E00421032001F049
:101440005BFE012800D10126012E15D102210120C9
:1014500001F052FE20B90621012001F04DFE48B1F5
:101460000121084601F048FE30B90721012001F0B2
:1014700043FE08B9641C00260321084601F03CFE27
:1014800020B10321042001F037FE58B91E2126485F
:1014900001F030FE1E212448083801F02BFEFA200E
:1014A00001F074FF0421032001F026FE98B9042105
:1014B000084601F021FE01280DD10AE000211A485A
:1014C000083801F017FE0421084601F015FE00B9A6
:1014D00000E0F3E717E00421032001F00DFE0128EE
:1014E00011D10421084601F007FE60B909E000218E
:1014F0000D4801F0FFFD0421032001F0FDFD00B9BE
:1015000000E0F4E700BFAC4202DB01F007FF70BD72
:101510002146012000F07CFC00F036FE8DE7000043
:1015200000140140001001403C34014008B5012185
:10153000102001F07BFB0121202001F077FB01212D
:10154000080201F073FB0121042001F06FFB01216F
:10155000082001F06BFB0121082001F067FB01214D
:10156000082001F063FB0121402001F05FFB012115
:10157000802001F05BFB0121080201F057FB0121F3
:10158000042001F053FB0121802001F04FFB0121D9
:10159000802001F04BFB0121102001F047FB0121CD
:1015A000802001F043FB0121802001F03FFB01215D
:1015B000802001F03BFB0121802001F037FB01215D
:1015C000802001F033FB0121080201F02FFB0121F3
:1015D000080201F02BFB0121082001F027FB01216B
:1015E000082001F023FB0121080201F01FFB01216B
:1015F000082001F01BFB0121202001F017FB012135
:10160000202001F013FB0121082001F00FFB012134
:10161000402001F00BFB0121402001F007FB0121DC
:10162000202001F003FB0121202001F0FFFA01211D
:10163000202001F0FBFA0121202001F0F7FA01211E
:10164000080201F0F3FA0121042001F0EFFA012170
:10165000042001F0EBFA0121102001F0E7FA01214A
:10166000202001F0E3FA0121202001F0DFFA01211E
:10167000802001F0DBFA4FF48060ADF80000142008
:101680008DF8030003208DF802006946A24800F09F
:1016900059F98020ADF800006946A04800F052F9E1
:1016A0004FF48040ADF8000069469D4800F04AF9CB
:1016B00004208DF803000120ADF800006946994828
:1016C00000F040F910208DF803002020ADF8000054
:1016D0006946954800F036F90120ADF800006946EA
:1016E000914800F02FF90220ADF8000069468E48BD
:1016F00000F028F904208DF803000220ADF8000066
:1017000069468A4800F01EF94FF40060ADF8000009
:101710006946874800F016F94FF48060ADF8000084
:1017200069467F4800F00EF94FF48050ADF8000094
:1017300069467C4800F006F98020ADF80000694653
:101740007B4800F0FFF84020ADF80000694678487B
:1017500000F0F8F80220ADF8000069466E4800F08D
:10176000F1F80120ADF800006946714800F0EAF890
:101770000420ADF8000069466D4800F0E3F8102041
:10178000ADF8000069466A4800F0DCF84FF480507C
:10179000ADF800006946664800F0D4F84FF4804088
:1017A000ADF800006946624800F0CCF84FF40050F4
:1017B000ADF8000069465D4800F0C4F80420ADF8BB
:1017C00000006946564800F0BDF84FF40050ADF8EF
:1017D00000006946544800F0B5F84FF40040ADF8F9
:1017E00000006946504800F0ADF84FF40040ADF8F5
:1017F000000069464A4800F0A5F84FF40070ADF8C3
:1018000000006946484800F09DF84020ADF800000F
:101810006946424800F096F80820ADF80000694695
:101820003E4800F08FF84FF48070ADF80000694634
:101830003D4800F087F84FF40070ADF800006946AD
:101840003A4800F07FF88020ADF80000694637483C
:1018500000F078F80120ADF8000069462F4800F04C
:1018600071F84FF48040ADF8000069462B4800F055
:1018700069F84FF40050ADF800006946274800F0C1
:1018800061F84FF40060ADF800006946234800F0AD
:1018900059F81020ADF800006946214800F052F8D0
:1018A00010208DF80300ADF8000069461D4800F0D7
:1018B00049F82020ADF8000069461A4800F042F8C7
:1018C0001020ADF800006946134800F03BF84FF4D3
:1018D0008060ADF800006946104800F033F84FF41E
:1018E0008070ADF8000069460C4800F02BF84FF40A
:1018F0008070ADF8000069460D4800F023F8202103
:10190000094800F0C7F80121074800F0C3F8022198
:10191000054800F0BFF808BD001001400014014068
:101920000020014000080140000C01400018014067
:10193000001C014070B504460D462946204600F0C3
:10194000A9F870BD2DE9F0410246002500260020CF
:1019500000230024002791F803C00CF00F0591F834
:1019600003C00CF0100CBCF1000F03D091F802C0C2
:101970004CEA050591F800C0BCF1000F31D01468A5
:1019800000202BE04FF0010C0CFA00F3B1F800C07E
:101990000CEA03069E4220D183004FF00F0C0CFA94
:1019A00003F7BC4305FA03FC4CEA040491F803C0B6
:1019B000BCF1280F06D14FF0010C0CFA00FCC2F864
:1019C00014C00AE091F803C0BCF1480F05D14FF0F4
:1019D000010C0CFA00FCC2F810C0401C0828D1D33E
:1019E0001460B1F800C0BCF1FF0F34DD5468002072
:1019F0002EE000F1080C4FF0010808FA0CF3B1F8E2
:101A000000C00CEA03069E4221D183004FF00F0C68
:101A10000CFA03F7BC4305FA03FC4CEA040491F802
:101A200003C0BCF1280F05D100F1080C08FA0CF82E
:101A3000C2F8148091F803C0BCF1480F07D100F13F
:101A4000080C4FF0010808FA0CF8C2F81080401C8E
:101A50000828CED35460BDE8F08170B504460D4629
:101A60002946204600F014F870BD70B504460D46B6
:101A70002946204600F003F80646304670BD02466F
:101A8000002093680B400BB1012000E0002070475C
:101A900041617047016170472DE9F04180460C4675
:101AA0001048007820B901F0C9F901200D490870EB
:101AB0002512E6B2A5F1A101C1EB011202EB411121
:101AC00006EB4101A1390802C11700EB5171CF109B
:101AD000054839182022404601F088F90020BDE869
:101AE000F0810000280100200030180000BFFEE750
:101AF0002DE9F04106460F4614461D462B46224668
:101B00003946304600F036F904FB05F002490988F1
:101B100000F020F9BDE8F0810E0100202DE9F0432E
:101B200089B080468946174610231A4649464046E2
:101B300000F020F92C2000F04DF9394601A8FFF7FC
:101B4000ABFF002422E001A810F814604FF6FF70EC
:101B500000EA0626012000EB440001A9085C0643C8
:101B600000250FE04FF400402841304020B10A48E2
:101B7000008800F033F903E00848008800F02EF9EF
:101B8000681CC5B2102DEDDB601CC4B2102CDADB72
:101B900009B0BDE8F08300000C0100200E01002018
:101BA0002DE9F05F804689461646A6F120001FFA0F
:101BB00080FA1E49096889881C4A1268D28801FB8C
:101BC00002F0C11700EB5171C1F3C7071748006855
:101BD00000680AFB070B15480068C38813480068B3
:101BE00082884946404600F0C5F82C2000F0F2F803
:101BF000002416E0002510E01BF804008021294194
:101C0000084020B10A48008800F0E8F803E00948DD
:101C1000008800F0E3F8681CC5B2082DECDB601CFE
:101C2000C4B2BC42E6DBBDE8F09F00000801002022
:101C30000C0100200E01002070B504460D46002660
:101C400024E0304613490968898808441249098804
:101C5000884205DD00260F480068C088204484B211
:101C600020460C490968C98808440C4909888842FB
:101C700001DD002600242A7821463046FFF790FF38
:101C80006D1C044800688088304486B2287800289B
:101C9000D7D170BD08010020000100200201002002
:101CA0002DE9F04105460C46002648E020787E28C4
:101CB00025DC304624490968898808442349098875
:101CC000884205DD002620480068C088284485B287
:101CD00028461D490968C98808441D490988884261
:101CE00001DD00260025227829463046FFF758FFFF
:101CF000154800688088304486B2641C1FE0304676
:101D0000103012490988884203DD002605F11000D1
:101D100085B2284610300E490988884201DD002628
:101D200000252788380200EB272087B23A4629464B
:101D30003046FFF7F3FE06F1100086B2A41C2078AF
:101D40000028B3D1BDE8F081080100200001002087
:101D50000201002070B504460D4600262C2000F03C
:101D600039F800BF03E0284600F038F8761CA64298
:101D7000F9D370BD2DE9F04104460D4616461F46C5
:101D80002A2000F027F8201200F028F8E0B200F036
:101D900025F8A119491EC1F30F2000F01FF8A11961
:101DA000491EC8B200F01AF82B2000F013F82812D0
:101DB00000F014F8E8B200F011F8E919491EC1F377
:101DC0000F2000F00BF8E919491EC8B200F006F820
:101DD000BDE8F0814FF0D841088070474FF0DA41FC
:101DE0000880704770B5044600F00CF8C5882B4693
:101DF0000348028821460020FFF77AFE70BD0000EC
:101E00000001002001480068704700000801002020
:101E100070B59AB004460D462A460DA101A802F0FD
:101E2000FFF9FFF7EFFFC088604386B23046FFF747
:101E3000D9FFFFF7E7FFC088604386B201A93046AB
:101E4000FFF72EFF4FF4967001F0A0FA1AB070BDA4
:101E500020202020253037642000000070B592B08B
:101E600004462048B0F904002044451C01F0FAFA69
:101E700037E000211B4800F089F81A48B0F9040047
:101E8000A84212DA80211848FFF7E7FD4FF480617D
:101E90001648FFF7E2FD3E21154801F02BF94321DA
:101EA0001348083801F026F90AE00021104801F033
:101EB00021F900210E48083801F01CF912B070BD5C
:101EC0000848B0F904200BA1684602F0A9F9FFF711
:101ED00099FFC08800EB800086B269463046FFF764
:101EE000ABFEC6E760000020001401400010014076
:101EF0003C3401404C656674204779726F3A20206B
:101F0000253864001CB5044606226946432000F0CB
:101F100057F89DF801009DF8001040EA012000B23A
:101F200020809DF803009DF8021040EA012000B2D5
:101F300060809DF805009DF8041040EA012000B281
:101F4000A0801CBD70B50024002500BF06E0002560
:101F500000E06D1CB5F57A7FFBDB641CB4F57A7F7D
:101F6000F5DB00216B2000F057F80721192000F065
:101F700053F806211A2000F04FF800211C2000F031
:101F80004BF818211B2000F047F870BD70B50446CF
:101F90000D460848006860B102210748FFF75DFD63
:101FA00006480068FEF75CFB00B2A08000200149F3
:101FB000086070BDE4000020000C014070000020AB
:101FC0002DE9F04107460C46154602F09BFBD02058
:101FD00002F06EFB02F0BEFB384602F069FB02F035
:101FE000B9FB02F08FFBD12002F062FB02F0B2FBE2
:101FF000002606E0012002F033FB2070641C701CF8
:10200000C6B2681EB042F5DC002002F029FB207049
:1020100002F090FBBDE8F08170B505460C4602F079
:1020200071FBD02002F044FB02F094FB284602F042
:102030003FFB02F08FFB204602F03AFB02F08AFBE6
:1020400002F078FB70BD00BFFEE7000070B50646E9
:102050000C4615461F2E01DC002C00DC70BD5520FF
:102060000B4948700870082088700320C870012050
:1020700008714C71201288710846C6710D722812C1
:1020800048720A21024802F091F800BFE6E700001A
:10209000D8020020704708B54FF4A06000F058F84F
:1020A00025208DF8000001208DF801008DF8020038
:1020B0008DF80300684600F013F84FF4A06000F0BC
:1020C00047F827208DF8000001208DF801008DF8D9
:1020D00002008DF80300684600F002F808BD000019
:1020E00070B5002100230F22C47804B3154C246876
:1020F00004F4E064C4F5E064210AC1F10403CA40B9
:10210000447804FA03F184781440214309010E4C09
:102110000678A155047804F01F050124AC40057829
:102120006D11AD0005F1E025C5F8004109E0047826
:1021300004F01F050124AC40044D0678761145F8E3
:10214000264070BD0CED00E000E400E080E100E01E
:1021500002490143024A1160704700000000FA057D
:102160000CED00E010B54FF480710648FFF7E2FB7C
:10217000052001F00BF94FF480710248FFF76DFC68
:1021800010BD0000001C01402DE9F05F2021FE4839
:10219000FFF7D0FB0121FC48FFF7CCFB0221FA48F6
:1021A000FFF75BFC0221F948FFF75FFCF849086084
:1021B0004FF40061F748FFF758FCF54948604FF4C9
:1021C0008061F548FFF751FCF14988604FF4805178
:1021D000F248FFF74AFCEE49C8608021ED48FFF75E
:1021E00044FCEB4908614021EA48FFF73EFCE8491E
:1021F00048610221EA48FFF738FCE5498861084652
:10220000006801281AD108464068012816D10846FE
:102210008068012812D10846C06801280ED10846FE
:10222000006901280AD108464069012806D10846FC
:10223000806918B90620DB490860C4E1D448006809
:10224000012819D1D2484068012815D1D0488068AA
:10225000012811D1CE48C06801280DD1CC480069B1
:10226000012809D1CA48406930B9C948806918B9FC
:102270000520CC490860A6E1C548006801281AD1AC
:10228000C3484068012816D1C1488068012812D18E
:10229000BF48C06801280ED1BD48006901280AD195
:1022A000BB48406938B9BA488069012803D1042085
:1022B000BC49086087E1B6480068012819D1B448D4
:1022C0004068012815D1B2488068012811D1B04872
:1022D000C06801280DD1AE48006950B9AC484069CA
:1022E00038B9AB488069012803D10320AD490860A3
:1022F00069E1A748006801281AD1A548406801286B
:1023000016D1A3488068012812D1A148C0680128CD
:102310000ED19F48006958B99D484069012807D1EE
:102320009B488069012803D102209E4908604AE148
:1023300097480068012818D195484068012814D1B1
:1023400093488068012810D19148C06868B99048C6
:10235000006950B98E484069012806D18C488069CF
:10236000012802D18F4908602DE1894800680128C1
:1023700016D187484068012812D185488068012815
:102380000ED18348C06858B981480069012807D137
:102390007F484069012803D17D488069012814D015
:1023A0007B480068A8B97A48406890B97848806846
:1023B00078B97748C06860B97548006948B9744809
:1023C000406930B97248806918B9002075490860C1
:1023D000F9E06F480068012819D16D48406801286C
:1023E00015D16B48806890B96948C06878B9684869
:1023F000006901280BD166484069012807D164486B
:102400008069012803D1801E66490860DBE06048CE
:10241000006801281AD15E484068012816D15C483E
:10242000806898B95A48C06801280FD15848006997
:1024300001280BD156484069012807D154488069CA
:10244000012803D1C01E57490860BCE0504800680D
:10245000012819D14E484068B0B94D48806898B9F4
:102460004B48C06801280FD14948006901280BD1A9
:1024700047484069012807D145488069012803D1B0
:10248000001F484908609EE04148006801281AD1B1
:102490003F484068B8B93E488068012813D13C489D
:1024A000C06801280FD13A48006901280BD138488B
:1024B0004069012807D136488069012803D1401FAF
:1024C000384908607FE032480068D0B93048406839
:1024D000B8B92F488068012813D12D48C068012859
:1024E0000FD12B48006901280BD1294840690128E8
:1024F00007D127488069012803D1801F2949086036
:1025000061E023480068D8B921484068012817D104
:102510001F488068012813D11D48C06801280FD1C9
:102520001B48006901280BD119484069012807D1CF
:1025300017488069012803D1C01F1A49086042E08A
:102540001348006801283ED11148406801283AD15B
:102550000F488068012836D10D48C068012832D163
:102560000B48006901282ED10948406901282AD169
:1025700007488069012826D10B480068801DB8B93A
:102580006FF00600074911E0000C014000180140FF
:1025900054040020001C01400020014000080140BC
:1025A000001001403C0100207801002008600AE092
:1025B00039480068062803D107203849086002E03E
:1025C00000203649086035480068FEF738F8344A7C
:1025D00003C232480068FEF732F8044631480CC89E
:1025E0002046FDF79BFE2F4A03C22C4909682A4A60
:1025F0001268881AFEF723F82B4A03C22A482B498F
:102600000CC803C9FDF731FF04460D46254828498B
:102610000CC803C9FDF729FF06460F462048254987
:102620000CC803C9FDF721FF804632463B46FDF743
:1026300075FE824622462B46FDF770FE1E4A03C2F7
:10264000164800681449086080211C48FFF705FA05
:102650004FF480611A48FFF76DF917480CC8002045
:102660001849FDF75BFE0546FEF713F804462146C0
:10267000154800F03FFD10480CC800201149FDF737
:10268000EEFE0546FEF705F8044621460E480838DA
:1026900000F030FDBDE8F09F780100203C010020F3
:1026A0004001002048010020500100206801002066
:1026B000600100205801002070010020001401403A
:1026C00000100140008053403C3401402DE9F05F90
:1026D0002021FE48FFF72EF90121FC48FFF72AF9D7
:1026E0000221FA48FFF7B9F90121F948FFF7BDF9CE
:1026F000F84988610421F648FFF7B7F9F5494861C0
:102700001021F348FFF7B1F9F24908614FF4805105
:10271000EF48FFF7AAF9EF49C8604FF48041EC4851
:10272000FFF7A3F9EB4988604FF40051EA48FFF73F
:102730009CF9E84948600421E848FFF796F9E54923
:1027400008600846006801281AD108464068012838
:1027500016D108468068012812D10846C0680128B1
:102760000ED10846006901280AD1084640690128AF
:1027700006D10846806918B90620D9490860C0E129
:10278000D4480068012819D1D2484068012815D1E1
:10279000D0488068012811D1CE48C06801280DD1E9
:1027A000CC480069012809D1CA48406930B9C948F4
:1027B000806918B90520CA490860A2E1C5480068C7
:1027C00001281AD1C3484068012816D1C148806841
:1027D000012812D1BF48C06801280ED1BD48006948
:1027E00001280AD1BB48406938B9BA488069012834
:1027F00003D10420BA49086083E1B6480068012883
:1028000019D1B4484068012815D1B2488068012820
:1028100011D1B048C06801280DD1AE48006950B947
:10282000AC48406938B9AB488069012803D103201E
:10283000AB49086065E1A748006801281AD1A5489E
:102840004068012816D1A3488068012812D1A14808
:10285000C06801280ED19F48006958B99D48406959
:10286000012807D19B488069012803D102209C4997
:10287000086046E197480068012818D195484068EB
:10288000012814D193488068012810D19148C0686C
:1028900068B99048006950B98E484069012806D14E
:1028A0008C488069012802D18D49086029E1894856
:1028B0000068012816D187484068012812D1854850
:1028C000806801280ED18348C06858B981480069E2
:1028D000012807D17F484069012803D17D488069DC
:1028E000012814D07B480068A8B97A48406890B99C
:1028F0007848806878B97748C06860B975480069D9
:1029000048B97448406930B97248806918B90020E4
:1029100073490860F5E06F480068012819D16D48D7
:102920004068012815D16B48806890B96948C06833
:1029300078B96848006901280BD1664840690128C8
:1029400007D164488069012803D1801E644908606A
:10295000D7E06048006801281AD15E484068012825
:1029600016D15C48806898B95A48C06801280FD1D0
:102970005848006901280BD156484069012807D101
:1029800054488069012803D1C01E55490860B8E049
:1029900050480068012819D14E484068B0B94D48E8
:1029A000806898B94B48C06801280FD14948006930
:1029B00001280BD147484069012807D14548806963
:1029C000012803D1001F464908609AE04148006889
:1029D00001281AD13F484068B8B93E4880680128AC
:1029E00013D13C48C06801280FD13A48006901283A
:1029F0000BD138484069012807D136488069012841
:102A000003D1401F364908607BE032480068D0B9E6
:102A100030484068B8B92F488068012813D12D4844
:102A2000C06801280FD12B48006901280BD1294823
:102A30004069012807D127488069012803D1801FF8
:102A4000274908605DE023480068D8B921484068FC
:102A5000012817D11F488068012813D11D48C0687C
:102A600001280FD11B48006901280BD11948406982
:102A7000012807D117488069012803D1C01F1849D0
:102A800008603EE01348006801283AD111484068C8
:102A9000012836D10F488068012832D10D48C0681E
:102AA00001282ED10B48006901282AD10948406924
:102AB000012826D107488069012822D109480068E9
:102AC000801D98B96FF0060005490DE0000C01402B
:102AD000001C01407004002000180140002001404B
:102AE0007C010020B801002008600AE03948006835
:102AF000062803D107203849086002E00020364943
:102B0000086035480068FDF79AFD344A03C2324830
:102B10000068FDF794FD044631480CC82046FDF7D7
:102B2000FDFB2F4A03C22C4909682A4A1268881AF9
:102B3000FDF785FD2B4A03C22A482B490CC803C95F
:102B4000FDF793FC04460D46254828490CC803C9E7
:102B5000FDF78BFC06460F46204825490CC803C9E3
:102B6000FDF783FC804632463B46FDF7D7FB8246A5
:102B700022462B46FDF7D2FB1E4A03C216480068C8
:102B80001449086080211C48FEF7D4FE4FF4806190
:102B90001A48FEF762FF17480CC800201849FDF7D5
:102BA000BDFB0546FDF775FD04462146154800F0BE
:102BB000A1FA10480CC800201149FDF750FC054649
:102BC000FDF767FD044621460E48083800F092FAEA
:102BD000BDE8F09FB80100207C01002080010020AA
:102BE0008801002090010020A8010020A001002001
:102BF00098010020B00100200014014000100140A5
:102C0000008053403C3401407047000029B1064A1F
:102C1000D2690243044BDA6104E0034AD269824379
:102C2000014BDA61704700000010024029B1064AEA
:102C300092690243044B9A6104E0034A9269824319
:102C4000014B9A61704700000010024030B500212E
:102C50000022002400232D4D6D6805F00C0121B1E8
:102C6000042905D0082923D105E0294D056022E07B
:102C7000274D05601FE0254D6D6805F47012234D4A
:102C80006D6805F48034022505EB92421CB9214D94
:102C9000554305600BE01D4D6D6805F400351DB111
:102CA0001C4D5543056002E0194D5543056002E097
:102CB000174D056000BF00BF144D6D6805F0F001B1
:102CC0000909154D6B5C0568DD4045600F4D6D6869
:102CD00005F4E061090A104D6B5C4568DD408560D4
:102CE0000A4D6D6805F46051C90A0B4D6B5C45686F
:102CF000DD40C560054D6D6805F44041890B074D09
:102D00006B5CC568B5FBF3F5056130BD0010024092
:102D100000127A0000093D00140000202400002069
:102D200070B592B004462248B0F90400001B451E5D
:102D300000202049086000F095FB37E000211C4886
:102D4000FFF724F91A48B0F90400A84212DD8021E7
:102D50001948FEF7EFFD4FF480611848FEF7EAFDD1
:102D60003E21174800F0C6F943211548083800F005
:102D7000C1F90AE00021124800F0BCF90021104816
:102D8000083800F0B7F912B070BD0948B0F9042056
:102D90000CA1684601F044FAFFF734F8C08800EB54
:102DA000800086B269463046FEF746FFC6E700005F
:102DB00060000020E40000200014014000100140E9
:102DC0003C3401405269676874204779726F3A2039
:102DD0002538640021B1028842F04002028004E0FC
:102DE00002884FF6BF731A400280704770B50546DF
:102DF0000C46164610211048FEF74AFE032000F04C
:102E00007BF8C4F3074000F077F8C4F3072000F024
:102E100073F8E0B200F070F804E0FF2000F06CF806
:102E200028706D1C301EA6F101018EB2F5D1102163
:102E30000148FEF72FFE70BD0008014000B587B0C5
:102E400001210803FFF7F2FE0121C420FFF7EEFE87
:102E50001020ADF8040003208DF8060010208DF836
:102E6000070001A92248FEF76DFD2020ADF80400FF
:102E700018208DF8070001A91D48FEF763FD4020CA
:102E8000ADF8040001A91A48FEF75CFD8020ADF8FA
:102E9000040001A91648FEF755FD10211448FEF75D
:102EA000F9FD0020ADF808004FF48270ADF80A007B
:102EB0000020ADF80C000220ADF80E000120ADF8A6
:102EC00010004002ADF812000820ADF814000020F8
:102ED000ADF816000720ADF8180002A9054800F06B
:102EE00055F801210348FFF775FF07B000BD00004A
:102EF000000801400030014010B504464FF48050F6
:102F0000194908600AE018490868411E164A11600C
:102F100020B9002000F058F8C0B210BD02211348BB
:102F200000F026F80028EED02146104800F02CF8DA
:102F30004FF480500C4908600AE00B490868411EB4
:102F4000094A116020B9012000F03EF8C0B2E4E760
:102F50000121064800F00CF80028EED0034800F0EC
:102F600010F8C0B2D9E700002C0100200030014069
:102F70000246002013890B400BB1012000E0002025
:102F800070470146888970478181704710B50022DB
:102F9000028802F441520B884C8823438C882343D7
:102FA000CC8823430C8923434C8923438C892343B6
:102FB000CC8923431A430280838B4FF2FF74234052
:102FC00083830B8A038210BD10B50446214602A0FC
:102FD00001F016F9002010BD3C3C2D464C415348F1
:102FE0002D4552524F522D3E3E2053504920B5C8D8
:102FF000B4FDB3ACCAB1216572726F72436F646580
:10300000203D2025640A0000704710B500F002F84A
:1030100010BD00000CB500200190009033480068FE
:1030200040F480303149086000BF3048006800F447
:10303000003000900198401C0190009818B9019848
:10304000B0F5A06FF1D12948006800F4003010B14C
:103050000120009001E0002000900098012843D159
:103060002348006840F010002149086008460068C5
:1030700020F0030008600846006840F00200086085
:103080001A48406819494860084640684860084640
:10309000406840F4806048600846406820F47C1036
:1030A00048600846406840F4E810486008460068F8
:1030B00040F08070086000BF0C48006800F00070AD
:1030C0000028F9D00948406820F00300074948600B
:1030D0000846406840F00200486000BF034840686E
:1030E00000F00C000828F9D10CBD000000100240CF
:1030F000002002400180704770B505460C4600264E
:10310000012D06D0022D34D0032D62D0042D6ED1B6
:1031100092E0082C2BD2DFE804F02A04090F151BDB
:10312000202502215E48FEF7A0FC70BD4FF400612F
:103130005C48FEF79AFCF8E74FF480615A48FEF7C6
:1031400094FCF2E74FF480515848FEF78EFCECE710
:1031500080215448FEF789FCE7E740215148FEF7FB
:1031600084FCE2E702215248FEF77FFCDDE700BF66
:1031700000BF082C2BD2DFE804F02A04090E131933
:103180001F2501214748FEF770FCCEE70421454882
:10319000FEF76BFCC9E710214248FEF766FCC4E766
:1031A0004FF480513F48FEF760FCBEE74FF480418A
:1031B0003C48FEF75AFCB8E74FF400513848FEF798
:1031C00054FCB2E704213848FEF74FFCADE700BFDE
:1031D00000BF082C2ED2DFE804F02D040B11171DC0
:1031E00022274FF400513348FEF73FFC9DE754E09F
:1031F0004FF400412F48FEF738FC96E74FF40041AA
:103200002948FEF732FC90E74FF400712948FEF799
:103210002CFC8AE740212848FEF727FC85E7082197
:103220002548FEF722FC80E74FF480712148FEF725
:103230001CFC7AE700BF00BF082C2CD2DFE804F0AA
:103240002B040A0F141A20264FF400711448FEF7BD
:103250000CFC6AE780211248FEF707FC65E70121B4
:103260001548FEF702FC60E74FF480411248FEF774
:10327000FCFB5AE74FF400510F48FEF7F6FB54E70A
:103280004FF400610C48FEF7F0FB4EE710210648B2
:10329000FEF7EBFB49E700BF00BF002045E7000059
:1032A00000180140001C01400020014000080140BE
:1032B00000100140000C01400014014010B54FF413
:1032C00080410848FEF736FB50210748FFF712FF00
:1032D0004FF4E16000F05AF800210348FFF70AFFBD
:1032E00010BD000000200140402C014010B54FF4FB
:1032F00080410848FEF7B1FB50210748FFF7FAFE6E
:103300004FF4E16000F042F800210348FFF7F2FEBD
:1033100010BD000000200140402C014010B50021EC
:103320000448FFF7E7FE002102480838FFF7E2FEF5
:1033300010BD00003C34014030B50146B1F1807F42
:1033400001D3012030BD21F07F40401E4FF0E0222C
:10335000506150170F22002807DA13071D0E094B82
:1033600000F00F04241F1D5503E013071C0E064B2D
:103370001C5400BF00204FF0E02290610720106134
:103380000020DFE718ED00E000E400E070B504463F
:103390000C48FFF7D1FF002508E000BF4FF0E02008
:1033A000006900F480300028F8D06D1CA542F4D3E9
:1033B0004FF0E020006920F001004FF0E0210861AB
:1033C00070BD0000401901002DE9F05F1C48006845
:1033D00070BB1C48FEF796FD1A49B1F90400FDF7D1
:1033E0002EF980464FF03332174BFDF738F806467A
:1033F0004FF0C042154BFDF7AAF804464FF0C0420B
:10340000134BFDF732F88246FDF75CF9114908606D
:10341000114910480068FCF711FF04460F48016885
:103420002046FCF7B3FE0D490860012004490860FE
:103430000B480078401C0A490870BDE8F09F000066
:10344000E40000204A00002033F336406666304036
:1034500066660C405C0000206F12833A700000200A
:103460009000002010B50A4800684FF47A71B0FB54
:10347000F1F42046FFF760FF08B100BFFEE74FF010
:10348000E020006940F001004FF0E021086110BD2C
:103490000000002010B51348006840F001001149F9
:1034A000086008464068104908400E4948600846D0
:1034B00000680E4908400B4908600846006820F47F
:1034C000802008600846406820F4FE0048604FF401
:1034D0001F008860FFF799FD4FF000600449086005
:1034E00010BD0000001002400000FFF8FFFFF6FED4
:1034F00008ED00E0F0B50C46154600220021068CD0
:103500004FF6FE773E400684028B018C4FF60C7618
:1035100032407E1C06EA03162E433243104EB04260
:103520000ED0104EB0420BD0B0F1804F08D00E4EEE
:10353000B04205D00D4EB04202D00D4EB04206D181
:103540004FF6FD76314044F00106314305E04FF679
:10355000F576314044F00106314302830184F0BD29
:10356000002C0140003401400004004000080040ED
:10357000000C0040F0B50C46154600220021002644
:10358000078C4FF6EF7C07EA0C070784028B018C4F
:103590004FF6FF7707EA041640F6FF473A404FF62A
:1035A000FF7707EA03373A434FF6FF7707EA052725
:1035B0003A43114FB8420ED0104FB8420BD0B0F181
:1035C000804F08D00E4FB84205D00E4FB84202D0FF
:1035D0000D4FB84206D14FF6DF77394046F010075D
:1035E000394305E04FF65F77394044F0100739431F
:1035F00002830184F0BD0000002C01400034014032
:103600000004004000080040000C004070B502219A
:10361000234800F0ABF8224800F0C6F821490880A2
:103620001F4800F0C4F8204908801E48008800B3F5
:103630001C480088401CFCF7F9FF04461A49098819
:10364000491C642201FB02F0FCF7F0FF054621460D
:10365000FCF726FE1549086012480088401CFCF75C
:10366000E5FF044621461248FCF71AFE114908609E
:1036700010E000200D4908600E49086020210E4826
:10368000FEF7EBF901210C48FEF754F902210A4834
:10369000FEF750F90221024800F068F870BD000002
:1036A00000040040EE000020EC0000202C00002070
:1036B0004054894C30000020000C014070B50221BC
:1036C000234800F053F8224800F06EF821490880A2
:1036D0001F4800F06CF8204908801E48008800B39D
:1036E0001C480088401CFCF7A1FF04461A490988C1
:1036F000491C642201FB02F0FCF798FF05462146B5
:10370000FCF7CEFD1549086012480088401CFCF704
:103710008DFF044621461248FCF7C2FD114908609E
:1037200010E000200D4908600E49086020210E4875
:10373000FEF793F901210C48FEF7FCF802210A4834
:10374000FEF7F8F80221024800F010F870BD000002
:1037500000080040F2000020F000002034000020AB
:103760004054894C38000020000C0140CA430282BA
:10377000704721B1028842F00102028004E0028811
:103780004FF6FE731A400280704731B1B0F8442002
:1037900042F40042A0F8442005E0B0F84420C2F30F
:1037A0000E02A0F8442070470146888E70470146FB
:1037B000088F70471AB183890B43838102E08389A4
:1037C0008B4383817047000070B5002400220023E2
:1037D000058C4FF6FE7635400584028C8388048B79
:1037E0004FF68F752C40B51E2C400D882C43751E4E
:1037F0002A400D892A434D882A43144DA8420BD0F4
:10380000134DA84208D0134DA84205D0124DA8422E
:1038100002D0124DA84213D14FF6F7752A404D89B8
:103820002A434FF6FB752A408D882A434FF6FF65E1
:103830002B404FF6FF552B408D892B43CD892B43D1
:1038400083800483CD888586028470BD002C01406E
:103850000034014000400140004401400048014064
:103860000A460021018B4FF6F7731940114301837B
:103870007047000070B5002400220023058C4FF62D
:10388000EF7635400584028C8388048B48F6FF75FB
:103890002C404FF6FF452C400D884FF6FF7606EA88
:1038A00005252C434FF6DF752A400D8906EA0515DC
:1038B0002A434D8806EA05152A43154DA84202D031
:1038C000144DA8421DD14FF67F752A404D894FF601
:1038D000FF7606EA05152A434FF6BF752A408D8804
:1038E00006EA05152A434FF6FF352B404FF2FF75C8
:1038F0002B408D8906EA85052B43CD8906EA85058F
:103900002B4383800483CD880587028470BD00002B
:10391000002C0140003401400A460021018B4FF287
:10392000FF7319404FF6FF7303EA02231943018323
:103930007047000070B5002400220023058C4FF66C
:10394000FF6635400584028C8388848B4FF68F7523
:103950002C404FF6FC752C400D882C434FF6FF553C
:103960002A400D894FF6FF7606EA05252A434D8841
:1039700006EA05252A43154DA84202D0144DA84257
:103980001DD14FF2FF752A404D894FF6FF7606EAAA
:1039900005252A434FF6FF352A408D8806EA05257E
:1039A0002A434EF6FF752B404DF6FF752B408D894F
:1039B00006EA05152B43CD8906EA05152B438380BE
:1039C0008483CD888587028470BD0000002C01406F
:1039D000003401400A460021818B4FF6F7731940ED
:1039E000114381837047000070B50022002300243A
:1039F000058C4EF6FF7635400584038C8488828BD7
:103A000048F6FF752A404FF6FF452A400D884FF6CD
:103A1000FF7606EA05252A434DF6FF752B400D89F2
:103A200006EA05352B434D8806EA05352B430B4D39
:103A3000A84202D00A4DA84208D14BF6FF752C408F
:103A40008D894FF6FF7606EA85152C4384808283A4
:103A5000CD88A0F84050038470BD0000002C0140C8
:103A6000003401400A460021818B4FF2FF73194058
:103A70004FF6FF7303EA02231943818370472DE950
:103A8000F04105460C4600260127608808B9022649
:103A900000E00026A088012801D1022700E00127CC
:103AA0002088A0B92389A28861882846FFF722FDD3
:103AB000E188284600F03CF823893A4631462846FA
:103AC000FFF758FDE188284600F03BF813E0238912
:103AD000A28861882846FFF74DFDE188284600F05E
:103AE00030F823893A4631462846FFF703FDE1883E
:103AF000284600F01DF8BDE8F0810A460021018942
:103B00004FF68F73194011430181704702894FF6B8
:103B10007F731A40028102890A4302817047028939
:103B20004FF6F8731A40028102890A4302817047F6
:103B3000028B4FF6F3731A400283028B0A4302830F
:103B40007047028B4FF2FF331A400283028B4FF60D
:103B5000FF7303EA01231A4302837047002202889D
:103B60001D4B98420ED01D4B98420BD0B0F1804FA8
:103B700008D01B4B984205D01A4B984202D01A4BE2
:103B8000984204D14FF68F731A404B881A43174B53
:103B9000984207D0164B984204D04FF6FF431A4084
:103BA000CB881A4302808B8883850B8803850A4B58
:103BB00098420BD0094B984208D00E4B984205D042
:103BC0000D4B984202D00D4B984201D10B7A0386DF
:103BD0000123838270470000002C01400034014023
:103BE0000004004000080040000C004000100040AD
:103BF00000140040004001400044014000480140E2
:103C000010B5FEF7AFFA40F2DC50FFF7BFFB5A20C9
:103C1000FFF786F84FF4FA70FFF7B8FB0120FDF7C5
:103C2000F1FB4FF4FA70FFF7B1FB5A20FEF716F9DB
:103C30004FF47A70FFF7AAFB40F27E424FF4FA711C
:103C40000720FEF703FA4FF416724FF4FA710F20B3
:103C5000FEF7FCF94FF4FA70FFF798FBFEF782FAD3
:103C60004FF4FA70FFF792FBFFF740FB4FF4FA7046
:103C7000FFF78CFBFEF776FA4FF47A70FFF786FBBE
:103C800000F058F84FF44870FFF780FBFFF716FB81
:103C90004FF4FA70FFF77AFB40F2AA524FF4FA7130
:103CA0000F20FEF7D3F940F2DC50FFF76FFB00F076
:103CB00049F84FF4FA70FFF769FB40F20E624FF4D7
:103CC000FA710720FEF7C2F94FF4FA70FFF75EFBB6
:103CD0005A20FFF725F84FF4FA70FFF757FB012041
:103CE000FCF7C6FF4FF4FA70FFF750FB5A20FEF7BF
:103CF000B5F84FF4FA70FFF749FB80210A48FDF749
:103D0000ACFE4FF480610948FDF714FE4E210848CF
:103D1000FFF7F0F94E2106480838FFF7EBF94FF4AA
:103D2000C870FFF733FB10BD0014014000100140C4
:103D30003C34014010B580210148FFF7DBF910BD8C
:103D4000342C014010B500210148FFF7D3F910BD14
:103D5000342C014010B540F22771264800F0ACF831
:103D600040F22551234800F0A7F840F2277121487E
:103D700000F057F9E0B1204802780078401C1E4B53
:103D800018701E48815C1B4800F00BFA40F2277146
:103D9000184800F091F818480078194909788842C5
:103DA00022D1002240F22771124800F064F91BE092
:103DB00040F225510F4800F034F9A8B120211148F4
:103DC000FDF74BFE01210F48FDF747FE02210D488C
:103DD000FDF743FE07498988C8B2FDF7E7F840F2CE
:103DE0002551044800F068F84FF45871014800F07C
:103DF00063F810BD005000403C000020C0010020CE
:103E00003D000020000C014010B540F22551234830
:103E100000F007F900283FD001212148FDF71DFEE1
:103E200020211F48FDF719FE02211D48FDF715FE50
:103E30001A4800F0B1F91B491B4A12788854084609
:103E4000194A1278815C194800F0CAF916480078BE
:103E5000401C1549087013480078112801D0002033
:103E6000087011480078022806D10E4840781228C0
:103E700002D000200C4908700B48007808280BDBA2
:103E80000948027807490A48FCF76EF900200649FC
:103E9000087001200749086010BD0000004800407C
:103EA000000C0140F4000020FC000020003801401C
:103EB000820000208C00002010B50022002340F674
:103EC0006A14A14200D100BF0A1201249440A3B297
:103ED000DC43048010BD21B1828942F4005282810A
:103EE00004E082894DF6FF731A408281704700001A
:103EF00000B585B001210420FEF798FE012188035A
:103F0000FEF794FE4FF40070ADF8100018208DF805
:103F1000130003208DF8120004A93748FDF712FDA5
:103F20004FF48060ADF8100004208DF8130004A950
:103F30003148FDF707FD01210820FEF777FE01213A
:103F40008804FEF763FE4FF48060ADF8100018207F
:103F50008DF8130003208DF8120004A92748FDF7FF
:103F6000F1FC4FF40060ADF8100004208DF8130050
:103F700004A92248FDF7E6FC4FF4165000900020FB
:103F8000ADF80400ADF80600ADF80800ADF80C007F
:103F90000C20ADF80A006946194800F091F8FEF7C8
:103FA0007AF8012240F22551154800F064F8012109
:103FB0001348FFF790FF4FF4E13000900020ADF878
:103FC0000400ADF80600ADF80800ADF80C000C20B8
:103FD000ADF80A0069460B4800F072F8FEF75BF88E
:103FE000012240F22551074800F045F8012105481B
:103FF000FFF771FF05B000BD00080140000C014053
:10400000003801400048004002460020B1F5007F22
:1040100000D100BF13880B400BB1012000E000204D
:10402000704770B50246002400230025002040F6AA
:104030006A16B14200D100BFC1F3421501F01F035F
:10404000012606FA03F3012D02D19689334006E0DA
:10405000022D02D1168A334001E0968A33400C12B9
:10406000012606FA04F41688344013B10CB101207D
:1040700000E0002070BDF0B50346002400260025B6
:10408000002040F66A17B94200D100BF1846C1F3BC
:10409000421401F01F06012707FA06F5012C01D191
:1040A0000C3004E0022C01D1103000E014301AB1C1
:1040B00007682F43076002E00768AF430760F0BD61
:1040C0002DE9F04786B005460E460024A24600BF03
:1040D000A1460027B08900B100BF2F462C8A4CF6BC
:1040E000FF700440F08804432C82AC894EF6F31034
:1040F0000440B08831890843718908430443AC8186
:10410000AC8A4FF6FF400440B0890443AC8201A85A
:10411000FEF79CFD1F48874202D1DDF810A001E0A8
:10412000DDF80CA0A88900F4004040B10AEBCA00F9
:1041300000EB0A1031684900B0FBF1F807E00AEB28
:10414000CA0000EB0A1031688900B0FBF1F8642066
:10415000B8FBF0F004012009642101FB1089A88953
:1041600000F4004040B1322000EBC900B0FBF1F098
:1041700000F00700044308E0322000EB091064213E
:10418000B0FBF1F000F00F0004432C8106B0BDE855
:10419000F08700000038014001468888C0F308001D
:1041A0007047C1F3080282807047000070B5044672
:1041B0000D460BE000BF0848008800F040000028D2
:1041C000F9D014F8011B0448FFF7EBFF281EA5F1F6
:1041D0000101CDB2EED170BD0038014000BFFEE755
:1041E00070B504460D4629462046FFF7DAFF00BFAA
:1041F00080212046FFF708FF0028F9D070BD00009D
:104200000FB4054B10B503A9044A029800F02CF82E
:1042100010BC5DF814FB0000B5450008BC0100208F
:104220000FB4084B10B504A902AA039800F01CF8BB
:10423000044602A9002000F0B8F9204610BC5DF841
:1042400014FB0000AB45000802E008C8121F08C1BB
:10425000002AFAD170477047002001E001C1121F07
:10426000002AFBD1704700002DE9FF4F8BB0884634
:104270000546002606E025280BD0DDE90D12904703
:104280006D1C761C28780028F5D10FB03046BDE8AB
:10429000F08F0024A146A2460122AE4900E004436B
:1042A00015F8013F203B02FA03F00842F7D12878C5
:1042B0002A2810D06FF02F022878A0F130010929A8
:1042C00015D809EB890102EB410144F0020400EB2F
:1042D00001096D1CF0E758F8041B5FEA010903D5DA
:1042E00044F40054C9F1000944F002046D1C28781C
:1042F0002E2817D115F8010F44F004042A280ED0F7
:104300006FF02F022878A0F1300109290AD80AEBB2
:104310008A0102EB410100EB010A6D1CF2E758F83B
:1043200004AB6D1C28786C280FD006DC4C2817D005
:1043300068280DD06A2814D104E0742810D07A2897
:104340000FD10DE044F400140AE044F4801401E0BD
:1043500044F440146978814202D104F580146D1C44
:104360006D1C2878692865D006DC00288DD063286C
:1043700027D0642806D15DE06E2808D073282AD0A3
:10438000752877D0DDE90D129047761CE0E0C4F384
:104390000250022809D003280DD0D8F800100428B4
:1043A0000DD00E6008F10408D2E0D8F80010F21722
:1043B000C1E90062F6E7D8F800100E80F2E70E704F
:1043C000F0E718F8041B8DF8001000208DF80100AC
:1043D000EB46012003E058F804BB4FF0FF306107C3
:1043E0004FF0000701D40AE07F1C57450DDA8742E1
:1043F000FADB1BF807100029F6D106E07F1C874284
:10440000FCDB1BF807100029F8D1DDE90D23A9EB2F
:1044100007008146214600F0B1F83044C61904E097
:10442000DDE90D121BF8010B90477F1EF8D22146E3
:10443000484688E058F8040BC4F302514FF00A0BC9
:10444000032900D100B2042900D140B2002802DAC9
:1044500040422D2102E0210505D52B218DF82410A5
:10446000012104E006E0E10710D02021F6E708AFC3
:10447000089113E058F8040BC4F302514FF00A0BF3
:10448000032900D180B2042900D1C0B20021EEE797
:104490005946FCF733F9303107F8011D0028F7D1F0
:1044A000ADEB070000F1200B600702D524F4803447
:1044B00001E04FF0010ADA4502DDAAEB0B0000E053
:1044C0000020824600EB0B0108980144A9EB010093
:1044D0000A90E00306D4DDE90D2321460A9800F096
:1044E0004DF806444FF0000908E009A911F8090049
:1044F000DDE90D12904709F10109761C08998945FB
:10450000F3DBE0030CD5DDE90D2321460A9800F02A
:1045100035F8064404E0DDE90D1230209047761CA2
:10452000BAF10001AAF1010AF5DC05E0DDE90D129E
:1045300017F8010B9047761CBBF10001ABF1010BA2
:10454000F4DC0A982146DDE90D2300F005F8064465
:104550006D1C97E6092801002DE9F041044600256D
:104560001E461746880404D405E039462020B0478B
:104570006D1C641EF9D52846BDE8F0812DE9F04197
:10458000044600251E469046C80301D5302700E0AA
:104590002027880404D505E041463846B0476D1C05
:1045A000641EF9D52846BDE8F0810A68531C0B60EB
:1045B0001070704738B504468DF800006946032036
:1045C000ABBE204638BD000010B580200949086008
:1045D00000F012F840200749091F086000F00CF8AD
:1045E00040200449086000F007F880200149091FB5
:1045F000086010BD140C0140002001E0411CC8B24D
:104600000A28FBDB7047000008B501210820FEF7EF
:104610000DFBC020ADF8000003208DF8020014202F
:104620008DF8030069460348FDF78CF900F082F825
:1046300008BD0000000C014010B58020074908604B
:10464000FFF7DAFF402005490860FFF7D5FF40205B
:104650000249091D0860FFF7CFFF10BD100C014093
:1046600070B505460024002616E06006040E4020C2
:104670000E490860FFF7C0FF0C480838006800F0DA
:10468000800008B1601CC4B240200849091D0860C0
:10469000FFF7B2FF701CC6B2082EE6DB15B9FFF7B4
:1046A000CBFF01E0FFF790FF204670BD100C0140EA
:1046B00070B50446002520E004F0800018B1802089
:1046C0000F49086003E080200D49091D0860FFF7CD
:1046D00093FF40200A490860FFF78EFF40200849F9
:1046E000091D0860072D02D18020091F086060069F
:1046F000040EFFF781FF681CC5B2082DDCDB70BD1E
:10470000100C014010B58020094908604020086065
:10471000FFF772FF80200649091D0860FFF76CFF54
:1047200040200349091D0860FFF766FF10BD000027
:10473000100C014010B58020054908604020091F79
:104740000860FFF759FF80200149091F086010BD6C
:10475000140C014010B580200C490860FFF74CFF95
:1047600040200A490860FFF747FF084808380068FA
:1047700000F0800008B1012400E00024402003493B
:10478000091D0860FFF738FF204610BD100C0140DE
:1047900010B500F027F81DE001211048FDF765F97C
:1047A00001280AD101210E48FDF757F920210C48B4
:1047B000FDF7C0F800F042F80DE001210748FDF7D1
:1047C00054F938B920210648FDF747F9012104487A
:1047D000FDF7B0F8E0E700BF002010BD0008014081
:1047E000000C014010B5FCF7A1FEFCF713F9FEF731
:1047F00039FEFFF77DFBFFF707FFFDF7A3FB002165
:104800000B48FEF777FC002109480830FEF772FCE0
:1048100000210848FEF76EFC002106480C30FEF728
:1048200069FC4FF480710448FDF717F910BD0000D2
:1048300034340140342C0140001C014010B540F2DA
:1048400026224FF4FA710D20FDF700FC40F272624F
:104850004FF4FA710E20FDF7F9FB4FF47A70FEF772
:1048600095FD0220FCF704FA4FF4FA70FEF78EFD76
:104870005A20FEF755FA4FF4FA70FEF787FD012033
:10488000FCF7F6F94FF4FA70FEF780FD5A20FEF7B8
:1048900047FA4FF4FA70FEF779FD0120FCF7E8F9CA
:1048A00040F2DC50FEF772FDFFF7AAF90120FCF799
:1048B0000DFCFFF7A5F94FF47A70FEF767FD0520B0
:1048C000FCF7D6F910BD0000000000000000000059
:1048D0000000000000000000001818181818180840
:1048E0000008180000000000003424242400000008
:1048F0000000000000000000000016247F24242493
:104900007E2424000000000000083E6848681C1651
:1049100012127C10100000000061D296740810166C
:104920002949C6000000000000003C646438724A57
:10493000CE467F0000000000001818181800000084
:1049400000000000000000000004081810303030A3
:10495000301010180C04000000201008080C04048B
:10496000040C08181020000000080A341C6A080013
:104970000000000000000000000000001818187F70
:1049800018181800000000000000000000000000DF
:104990000018180830000000000000000000003C73
:1049A0000000000000000000000000000000000007
:1049B0000018180000000000000206040C0808108F
:1049C000102020400000000000003C6642475B735E
:1049D00042663C0000000000000018784808080803
:1049E00008087E000000000000003C46060604089F
:1049F00010207E000000000000007C0606043C023F
:104A000002067C000000000000000C1C142464441A
:104A1000FF0404000000000000007E6060607E0271
:104A200002067C000000000000001E306048764254
:104A300042623C000000000000007E0206040C08F8
:104A4000181030000000000000003C6242361C6676
:104A500042423C000000000000003C664242661AF0
:104A60000204780000000000000000001818000098
:104A700000181800000000000000000018180000D6
:104A80000018180830000000000000000418306012
:104A9000100C0600000000000000000000007E0076
:104AA0007E00000000000000000000003018040636
:104AB0000C1020000000000000301C060606181034
:104AC0000010100000000000001C224141DDB5A5CF
:104AD000A5AF94C0403C00000000181C342426629E
:104AE0007E43C1000000000000007C4642467C423C
:104AF00042427C000000000000001E204040404078
:104B000040603E000000000000007C4642434343FA
:104B1000424678000000000000007E6060607E6019
:104B200060607E000000000000007E6060607E60CB
:104B3000606060000000000000001E604040CE4247
:104B400042623E00000000000000424242427E42BB
:104B5000424242000000000000007E181818181899
:104B600018187E000000000000007C040404040407
:104B7000044478000000000000004244485070588F
:104B80004C44420000000000000020202020202093
:104B900020203E000000000000006266675F5B5B53
:104BA000C1C1C100000000000000626272525A4A96
:104BB0004E4646000000000000003C6243C3C3C3F1
:104BC00043623C000000000000007C464242467800
:104BD000404040000000000000003C6243C3C3C3EB
:104BE00043623C180F00000000007C6662667C6C2B
:104BF000646662000000000000003E6040601C0629
:104C000002027C000000000000007F18181818182D
:104C100018181800000000000000424242424242C0
:104C200042623C00000000000000C14342622624B2
:104C3000341C1800000000000000C1C141495B5B4A
:104C40007666660000000000000043663418181CF9
:104C50002466C300000000000000C14266341C1836
:104C6000181818000000000000007E02040C181044
:104C700020607E0000000000001C101010101010BA
:104C800010101010101C0000004020201010080808
:104C90000C04060200000000003C0C0C0C0C0C0C78
:104CA0000C0C0C0C0C3C00000000181C24620000D2
:104CB00000000000000000000000000000000000F4
:104CC0000000000000FF00000020100000000000B5
:104CD0000000000000000000000000003C06023E52
:104CE00042467A0000000000004040405C624242C0
:104CF00042427C0000000000000000001E206040D6
:104D000060203E0000000000000202023E624242BB
:104D100042663A0000000000000000003C62427E53
:104D200040603E0000000000000F1810107E1010C0
:104D30001010100000000000000000003F664266F6
:104D400058403E43423C0000004040405C624242CA
:104D500042424200000000000018180078080808CD
:104D600008087E000000000000040C007C0404041D
:104D7000040404040C78000000606060626C7870C9
:104D8000686462000000000000780808080808084D
:104D900008087E000000000000000000764B4B4B2E
:104DA0004B4B4B0000000000000000005C624242E0
:104DB0004242420000000000000000003C6242430A
:104DC00042623C0000000000000000005C624242C1
:104DD00042427C4040400000000000003E624242EF
:104DE00042663A0202020000000000006E72636038
:104DF0006060600000000000000000003E20203CD9
:104E000006027C000000000000001010FE101010D0
:104E100010101E000000000000000000424242424C
:104E200042663A0000000000000000004342662491
:104E3000341818000000000000000000C1C15B5AD7
:104E40005E666600000000000000000062261C187C
:104E50001C2662000000000000000000434266249F
:104E6000341C181830E00000000000007E060C180A
:104E700010207E0000000000000E1810101030708E
:104E800010101010180E000008080808080808087C
:104E900008080808080800000030180808080C0E68
:104EA0000808080818300000000000000000714BDE
:104EB00006000000000000000000000000000000EC
:104EC00000000000000000000000000000000000E2
:104ED00000000000000000000000000000000000D2
:104EE00000000000000000000000000000000000C2
:104EF00003800180018001800180018001800180A8
:104F0000018001800000000003C003C00000000019
:104F10000000000000000000000000000000000091
:104F20000E700E700E700C300000000000000000CB
:104F30000000000000000000000000000000000071
:104F40000000000000000000000000000000000061
:104F500000000618063806307FFE0C300C300C308E
:104F60000C307FFE0C601C601860186000000000B0
:104F7000000000000000000000000000000000C071
:104F800000C00FF83CC831C031803D801F8003F065
:104F900001F8031C030C031C3FF83FE00700060068
:104FA00000000000000000000000000000001C00E5
:104FB0007E0E630C631863307E6000C001800300C6
:104FC000077C0EE61CC618C630C6607C00000000D8
:104FD00000000000000000000000000000000000D1
:104FE0000FE01CF0387038701C601FC00F003F8C41
:104FF00071CC60EC607C70383CFC1FCE000000007F
:1050000000000000000000000000000000000000A0
:1050100003C001800180018000000000000000004A
:105020000000000000000000000000000000000080
:105030000000000000000000000000000000003040
:1050400000E001C0018003000700060006000E001A
:105050000E000E000E00060007000300038001C0D2
:1050600000E00030000000000000000000000C0024
:1050700006000380018001C000E000600060007055
:10508000007000700060006000E000C001800380DC
:1050900006000C00000000000000000000000000FE
:1050A000018011881DB803C007E03DBC0188018064
:1050B00000000000000000000000000000000000F0
:1050C00000000000000000000000000000000000E0
:1050D000000000000000018001800180018001804B
:1050E0007FFE01800180018001800000000000003F
:1050F00000000000000000000000000000000000B0
:10510000000000000000000000000000000000009F
:1051100000000000000003C003C001C001C0038004
:105120001F00000000000000000000000000000060
:10513000000000000000000000000000000000006F
:105140000FF0000000000000000000000000000060
:10515000000000000000000000000000000000004F
:10516000000000000000000000000000000000003F
:1051700000000000000003C003C003C000000000E6
:10518000000000000000000000000000000000001F
:10519000001800380030006000E000C001C001804D
:1051A0000300030006000E000C001C001800300075
:1051B00000000000000000000000000000000000EF
:1051C00001800FF01C38381C301C707E70EE738E1E
:1051D0007E0E7C0C300C381C1E780FE000000000A6
:1051E00000000000000000000000000000000000BF
:1051F000000007C01FC039C001C001C001C001C00C
:1052000001C001C001C001C03FFC3FFC0000000024
:10521000000000000000000000000000000000008E
:1052200003801FF01838003800180038003800706C
:1052300001E0038007001C003FFC3FFC0000000071
:10524000000000000000000000000000000000005E
:1052500007801FF0003800380038003007E007F002
:105260000038001C001C001820F83FE0000000007F
:10527000000000000000000000000000000000002E
:10528000000000F001B0033007300E301C30383021
:1052900070307FFE7FFE00300030003000000000E4
:1052A00000000000000000000000000000000000FE
:1052B00000001FF818001800180018001FE000F880
:1052C000001C001C001C003800F01FC00000000083
:1052D00000000000000000000000000000000000CE
:1052E000000003F80F001C001800300037F83C3CA9
:1052F000300C300C380C381C1E380FF00000000049
:10530000000000000000000000000000000000009D
:1053100000003FFC001C001800380070006000E036
:1053200001C001800380070006000E00000000009D
:10533000000000000000000000000000000000006D
:1053400003C01FF8381C381C381C1C380FF007F03D
:105350001C78381C300C381C3C380FF00000000062
:10536000000000000000000000000000000000003D
:1053700003801FF03838301C701C700C380C1FFC78
:105380000FCC001C001800701FE01F800000000000
:10539000000000000000000000000000000000000D
:1053A000000000000000000003C003C001800000F6
:1053B00000000000000003C003C003C000000000A4
:1053C00000000000000000000000000000000000DD
:1053D000000000000000000003C003C001800000C6
:1053E00000000000000003C003C001C001C0038032
:1053F0000F0000000000000000000000000000009E
:10540000000000000000003800F001C007001E008E
:1054100038000E00078001C000700030000000005E
:10542000000000000000000000000000000000007C
:105430000000000000000000000000003FFC000031
:1054400000003FFC3FFC00000000000000000000E6
:10545000000000000000000000000000000000004C
:105460000000000000001C000F00038001E0007835
:10547000001C007001E003800E000C000000000022
:10548000000000000000000000000000000000001C
:105490000FC000F0003800380038003803F00380F7
:1054A00003000300000000000780078000000000E8
:1054B000000000000000000000000000000000E00C
:1054C00007F80C0C18063006700363F36633C673D6
:1054D000CC63CC62CC66CCE6C7FCE0006000700018
:1054E00038101FF000000000000000000000000065
:1054F000000003C007E006E00E700E700C301C3890
:1055000018183FFC3FFC700E600EE0070000000022
:10551000000000000000000000000000000000008B
:1055200000003FF03838381C381C38383FF03FF85E
:10553000381C380C380C381C3FF83FE000000000E5
:10554000000000000000000000000000000000005B
:1055500000E007FC1E0438003800300070007000C6
:105560007000300038003C001F9C07FC0000000069
:10557000000000000000000000000000000000002B
:1055800000003FF03078301C300C300E300E300E02
:10559000300E300E301C30383FF03FC000000000AD
:1055A00000000000000000000000000000000000FB
:1055B00000001FF818001800180018001FF81FF846
:1055C00018001800180018001FF81FF8000000004D
:1055D00000000000000000000000000000000000CB
:1055E00000001FF818001800180018001FF81FF816
:1055F000180018001800180018001800000000001B
:10560000000000000000000000000000000000009A
:1056100000F007FC1E04380030007000700070FCC1
:10562000700C700C300C380C1F1C07FC00000000C4
:10563000000000000000000000000000000000006A
:105640000000300C300C300C300C300C3FFC3FFCB8
:10565000300C300C300C300C300C300C00000000E2
:10566000000000000000000000000000000000003A
:1056700000003FFC018001800180018001800180E9
:1056800001800180018001803FFC3FFC00000000A0
:10569000000000000000000000000000000000000A
:1056A00000001FF0003000300030003000300030CB
:1056B00000300030003000701DE01FC0000000000E
:1056C00000000000000000000000000000000000DA
:1056D0000000381C387038E039C03B803F003F0084
:1056E0003B8039C038E038703838381C0000000082
:1056F00000000000000000000000000000000000AA
:1057000000001C001C001C001C001C001C001C00D5
:105710001C001C001C001C001FFC1FFC00000000E3
:105720000000000000000000000000000000000079
:105730000000381C7C3C6C3E6E6E666E66CE63C6A6
:1057400063866186600660066006600600000000F1
:105750000000000000000000000000000000000049
:1057600000003C0C3C0C3E0C360C330C338C318C62
:1057700031CC30EC306C307C303C301C0000000010
:105780000000000000000000000000000000000019
:1057900001C00FF81C3C381C700E700E60066006CD
:1057A000700E700E700C381C1E780FE000000000A8
:1057B00000000000000000000000000000000000E9
:1057C00000003FF0383C381C380C380C381C387856
:1057D0003FE0380038003800380038000000000092
:1057E00000000000000000000000000000000000B9
:1057F00001C00FF81C3C381C700E700E600660066D
:10580000700E700E700C381C1E780FE0018001C005
:1058100000FF003C0000000000000000000000004D
:1058200000003FF0383838183818383838F03FC0A2
:1058300038E0387038383838381C380E000000002E
:105840000000000000000000000000000000000058
:1058500001E00FF83800380038003C001F8003F0EA
:105860000078001C001C001C38783FE0000000009D
:105870000000000000000000000000000000000028
:1058800000007FFE01800180018001800180018095
:105890000180018001800180018001800000000002
:1058A00000000000000000000000000000000000F8
:1058B0000000300C300C300C300C300C300C300C44
:1058C000300C300C300C381C1C380FF0000000007D
:1058D00000000000000000000000000000000000C8
:1058E0000000E006700E700E381C381C1C181C38A6
:1058F0000C300E70066007E003C003C0000000001B
:105900000000000000000000000000000000000097
:10591000000060066006600660066186638673C6E6
:1059200073CE766C366C3C3C3C3C381C000000006E
:105930000000000000000000000000000000000067
:105940000000301C38181C380E7007E003C003C07C
:1059500007E00E701C381838381C700E000000006C
:105960000000000000000000000000000000000037
:105970000000700E700C381C1C380E70066007E0BA
:1059800003C00180018001800180018000000000CF
:105990000000000000000000000000000000000007
:1059A00000003FFC001C0038007000E001C00380D4
:1059B00007000E000C0018003FFC3FFC0000000038
:1059C000000000000000000000000000000007F0E0
:1059D00007F00600060006000600060006000600A6
:1059E0000600060006000600060006000600060087
:1059F000060007F0000000000000000000000000AA
:105A000018001C000C000600070003000380018042
:105A100001C000C000600070003000380018000CA9
:105A200000000000000000000000000000000FE087
:105A30000FE00060006000600060006000600060D7
:105A40000060006000600060006000600060006056
:105A500000600FE0000000000000000000000000F7
:105A6000000003C006C006600C301818301C00008F
:105A70000000000000000000000000000000000026
:105A80000000000000000000000000000000000016
:105A90000000000000000000000000000000000006
:105AA00000000000000000000000000000000000F6
:105AB0000000FFFF000000000000000000000000E8
:105AC0001E00038000000000000000000000000035
:105AD00000000000000000000000000000000000C6
