:020000040800F2
:100000009005002045010008B9230008A11500084B
:100010006B230008190C00085D3C0008000000007C
:10002000000000000000000000000000E92D0008B2
:10003000350D000800000000CD290008A931000896
:100040005F0100085F0100085F0100085F01000810
:100050005F0100085F0100085F0100085F01000800
:100060005F0100085F0100085F0100085F010008F0
:100070005F0100085F0100085F0100085F010008E0
:100080005F0100085F0100085F0100085F010008D0
:100090005F0100085F0100085F0100085F010008C0
:1000A0005F0100085F0100085F0100085F010008B0
:1000B0005F010008DD3300088D3400085F0100088F
:1000C0005F0100085F0100085F0100085F01000890
:1000D0005F0100085F0100085F0100085F01000880
:1000E0005F0100085F0100085F0100085F01000870
:1000F0005F0100085F0100085F0100085F01000860
:100100005F0100085F0100085F0100085F0100084F
:100110005F0100085F0100085F0100085F0100083F
:100120005F0100085F0100085F0100085F0100082F
:10013000DFF80CD000F0BEFB00480047F14100089A
:10014000900500200648804706480047FEE7FEE786
:10015000FEE7FEE7FEE7FEE7FEE7FEE7FEE7FEE777
:100160006532000831010008D2B201E000F8012B2D
:10017000491EFBD270470022F6E710B513460A4627
:1001800004461946FFF7F0FF204610BDF0B480EAA0
:100190000102D40F4200B2EB410F02D202460846E0
:1001A00011464A0042D0C30DDDB2C1F3C752AD1AA9
:1001B000202D35DAC1F3160141F4000204B1524298
:1001C000C5F1200602FA06F12A411044B3EBD05FD4
:1001D00023D0C4B1012DA0EBC35009DCF0BC4FF01B
:1001E000004202EAC352DBB200F5000000F0D6BACA
:1001F000400000F1807000EBC350A0F1807040EA35
:10020000D170490009E0490841EAC071A0EBC35030
:1002100000F50000400800EBC350F0BC00F0B5BA98
:100220006142012202EB4101001BF6E7F0BC70477E
:1002300081F00041AAE780F00040A7E780EA0102D0
:1002400010B502F00043400022D04A001FD0010E3A
:1002500001EB1261C0F35600C2F3560240F40000F5
:1002600042F40002A0FB022000047F39140400D0F5
:10027000401C50EA124001D44000491EC2B20C0694
:1002800004EBD010401C4008802A02D003E000207C
:1002900010BD20F00100002900DA0020184310BD35
:1002A00030B480EA010202F0004530F0004221F053
:1002B000004013D090B1C30DD40DC2F31601C0F3AA
:1002C0001600E41A41F4000140F400027D3491422A
:1002D00001D3641C00E04900002C02DA30BC00208D
:1002E00070474FF400000023914201D3891A034361
:1002F00040084FEA4101F7D151B1914202D14FF08C
:10030000004105E002D24FF0010101E06FF0010170
:1003100003EBC450284430BC00F037BA2DE9FE4F3F
:10032000804681EA0300C00F0C46009021F0004196
:1003300023F00045B8EB0200A94105D24046214612
:1003400090461C460B46024623F00040104347D01F
:10035000270DC7F30A00C3F30A510290401A019017
:1003600040286BDAC3F3130040F4801B00989246D8
:1003700020B10023D2EB030A63EB0B0B0198594623
:10038000C0F14002504600F0CFF906460D465046F7
:100390005946019A00F0E7F910EB0800614100248A
:1003A00087EA115284EAE7731A4340D0009A62B395
:1003B000019A012A4FEA075215DC001B61EB02018A
:1003C0004FF0004202EA0752CDE90042001C41F51D
:1003D000801132462B4600F01EFA03B0BDE8F08FC4
:1003E00040462146F9E7001B61EB0201001C41F584
:1003F000801300185B412018A2F5001747EB03019A
:1004000040EAD570B6196D4111E06D084FEA360625
:1004100045EAC0754FEA0752001B61EB0201001C60
:1004200041F5801149084FEA300000195141324628
:100430002B4603B0BDE8F04F00F0DEB90098012272
:1004400040000023D0EB020263EBE07300982146EA
:100450004FEAE074B8EB000061EB0401E9E783F0D8
:1004600000435BE781F0004158E72DE9FE4F81EA48
:10047000030404F0004421F0004100944FF0000B0D
:1004800023F0004350EA01045ED052EA03045BD03B
:10049000C3F30A54C1F30A552C44A4F2F334019473
:1004A000A0FB0254C1F3130141F48011C3F3130301
:1004B00043F4801301FB024400FB034E840A970AB5
:1004C00044EA815447EA8357A4FB076802958D0AE2
:1004D00005FB07854FEA932C04FB0C542705029D6E
:1004E0004FEA065847EA1637B5EB08056EEB070CDE
:1004F000870E920E47EA811742EA8312A7FB020198
:10050000B6EB0B0164EB00042B0D43EA0C335E18D1
:1005100044EB1C50DA465146E7FB0201C5F31304D5
:100520004FEA0B3343EA14534FEA0432019C43EA87
:100530000603A4F10C040294009CCDE900B400F081
:100540006AF903B0BDE8F08F00200146F9E72DE914
:10055000F04D81EA030404F0004B21F000451446FD
:100560004FF0000A23F0004150EA050220D054EA7F
:1005700001021DD0C5F30A570246C5F31303C1F3A8
:100580001300C1F30A5640F4801543F48013A7EB1F
:100590000608101BD64608F2FD3873EB050002D39F
:1005A00008F1010801E092185B41B8F1000F03DA8D
:1005B00000200146BDE8F08D00204FF48011064672
:1005C00084460EE0171B73EB050705D3121B63EB84
:1005D000050306434CEA010C49084FEA3000921823
:1005E0005B4150EA0107EDD152EA030012D082EAE2
:1005F000040083EA0501084305D0101BAB4106D275
:100600000122002306E000224FF0004302E06FF0D9
:10061000010253101AEB06004CEB085110EB0A00D4
:1006200041EB0B01BDE8F04D00F0E6B8C10F80EAE8
:10063000E0700844CA079623002100F0AFB80EB559
:10064000C10F80EAE0700844CA07002140F233433A
:100650008DE80E000A460B4600F0DDF803B000BD41
:1006600000F0004220F00040C10DC0F3160040F43D
:1006700000007F2901DA00207047962903DCC1F1D0
:100680009601C84001E096398840002AF4D04042E3
:100690007047C1F30A5210B5C1F3130140F2FF33A2
:1006A00041F480119A4201DA002010BD40F2334338
:1006B0009A42A2F2334203DC524200F044F810BDE9
:1006C000904010BD01F0004330B421F0004150EAE9
:1006D000010206D00A0DA2F56072C1F31301002ACF
:1006E00002DC30BC00207047440F44EAC104C10062
:1006F000E01830BC00EBC25000F047B830B50B46F4
:10070000014600202022012409E021FA02F59D4241
:1007100005D303FA02F5491B04FA02F52844151E15
:10072000A2F10102F1DC30BD202A04DB203A00FAFC
:1007300002F1002070479140C2F1200320FA03F338
:10074000194390407047202A04DB203A21FA02F036
:100750000021704721FA02F3D040C2F120029140FB
:10076000084319467047202A06DBCB17203A41FA86
:1007700002F043EAE07306E041FA02F3D040C2F12E
:10078000200291400843194670470029A8BF7047CE
:10079000401C490008BF20F00100704710B4B0FAB7
:1007A00080FC00FA0CF050EA010404BF10BC704752
:1007B00049B1CCF1200421FA04F411FA0CF118BF6C
:1007C000012121430843A3EB0C01CB1D4FEA00613B
:1007D0004FEA102042BF002010BC704700EBC3500E
:1007E00010440029A4BF10BC7047401C490008BF3A
:1007F00020F0010010BC704710B5141E73F1000406
:1008000008DA401C41F1000192185B411A4301D102
:1008100020F0010010BD2DE9F04D92469B4611B12C
:10082000B1FA81F202E0B0FA80F220329046FFF78E
:100830007BFF04460F4640EA0A0041EA0B0153469B
:100840005A46084313D0114653EA010019D0C8F1A3
:1008500040025046FFF777FF05460E465046594680
:100860004246FFF761FF084305D0012004E020461F
:100870003946BDE8F08D0020054346EAE0762C437A
:1008800037430A986305E40AA0EB08000022FD0A3A
:1008900044EA47540A3002D500200146E9E7010541
:1008A00010196941DDE9084500196941BDE8F04DBD
:1008B000A2E70000064C074D06E0E06840F00103A7
:1008C00094E8070098471034AC42F6D3FFF734FCA5
:1008D000687E0008887E000808B50121102002F01B
:1008E00097F84020ADF8000018208DF80300032091
:1008F0008DF8020069462E4800F07EFD012110208F
:1009000002F086F84020ADF8000004208DF80300C6
:1009100003208DF802006946264800F06DFD012194
:10092000102002F075F84FF48070ADF80000182028
:100930008DF8030003208DF8020069461C4800F082
:100940005BFD0121102002F063F84020ADF80000AB
:1009500004208DF8030003208DF802006946164834
:1009600000F04AFD0121042002F052F84FF480709B
:10097000ADF8000018208DF8030003208DF8020068
:1009800069460C4800F038FD0121042002F040F8CF
:100990004FF40060ADF8000018208DF8030003202C
:1009A0008DF802006946034800F026FD08BD0000EE
:1009B0000010014000080140000C014010B5FFF795
:1009C0008BFF00F00FF900F001F810BD00B58BB0FF
:1009D0000121480302F01CF80121022002F008F86E
:1009E0000121480302F014F80121042002F000F86C
:1009F0000121C80202F00CF80121C80202F008F837
:100A0000FF20ADF824000020ADF82000ADF826004E
:100A1000ADF822008DF8280008A96E4802F086FF84
:100A200008A96C4802F082FF08A96B4802F07EFF1B
:100A300008A9694802F07AFF40F2E730ADF82400D7
:100A40004720ADF8200008A9644802F06FFF08A90C
:100A5000634802F06BFF6020ADF810000120ADF894
:100A600012000420ADF814006420ADF81600002038
:100A7000ADF81800ADF81A004FF48070ADF81C0006
:100A80000020ADF81E0004A9524802F085FD04A91B
:100A9000524802F0D7FD04A94E4802F033FE04A9E3
:100AA0004F4802F089FE04A94B4802F075FD04A9E5
:100AB000494802F081FE0821464802F0B9FD0821AC
:100AC000464802F011FE0821424802F06BFE082160
:100AD000434802F0AFFE08213F4802F0A9FD08217B
:100AE0003D4802F0A7FE0020ADF80400ADF8060076
:100AF0000120ADF808000020ADF80A00ADF80C00A8
:100B000001A9364802F0A3FE5021344802F0DDFE70
:100B10000421324802F0EBFE8021304802F0DEFE74
:100B2000012202212D4802F02DFD02212B4802F066
:100B300005FD0121294802F004FD0020ADF8040064
:100B4000ADF806000120ADF808000020ADF80A005D
:100B5000ADF80C0001A9224802F079FE502120488E
:100B600002F0B3FE04211E4802F0C1FE80211C48A1
:100B700002F0B4FE01220221194802F003FD022115
:100B8000174802F0DBFC0121154802F0DAFC0121D4
:100B9000104802F0D6FC01210E4802F0D2FC0121DF
:100BA0000D4802F0CEFC01210B4802F0CAFC0121E5
:100BB000084802F0D2FC0121064802F0CEFC0121D7
:100BC000054802F0CAFC0121034802F0C6FC0BB044
:100BD00000BD000000340140002C01400004004032
:100BE0000008004008B54FF4A06001F043FC1D2050
:100BF0008DF8000000208DF801008DF80200012022
:100C00008DF80300684601F0FDFB1E208DF8000002
:100C1000684601F0F7FB08BD00BFFEE710B540F2E3
:100C20007E424FF4FA71072001F0A2FB40F2262227
:100C30004FF4FA710F2001F09BFB4FF4FA7002F0B1
:100C400095FA40F2EE224FF4FA71012001F090FB88
:100C50004FF448724FF4FA71022001F089FB40F61C
:100C600098024FF4FA71032001F082FB40F28A22CD
:100C70004FF4FA71042001F07BFB4FF416724FF42D
:100C8000FA71052001F074FB40F62E124FF4FA7150
:100C9000062001F06DFB02F019FA40F6C4124FF481
:100CA000FA71012001F064FB40F628224FF4FA713A
:100CB000022001F05DFB4FF4E1724FF4FA71032062
:100CC00001F056FB40F628224FF4FA71042001F09F
:100CD0004FFB4FF416624FF4FA71052001F048FB08
:100CE0004FF4C8724FF4FA71062001F041FB8021E5
:100CF0000F4802F0EFF84FF4FA7002F037FA40F2C2
:100D00000E624FF4FA71072001F032FB40F2AA5252
:100D10004FF4FA710F2001F02BFB4FF4FA7002F040
:100D200025FA0021024802F0D5F802F0B7F910BD0B
:100D3000342C01407047000051B18200A2F1C04242
:100D4000126842F001038200A2F1C042136009E080
:100D50008200A2F1C0421268034B1A408300A3F143
:100D6000C0431A6070470000FEFF0F00D0E9011277
:100D70001143C268114302691143426911438269F8
:100D80001143C2691143026A1143426A1143826AE4
:100D90001143C26A1143026B114302689200A2F12F
:100DA000C0421160816808290BD101688900A1F156
:100DB000C041096841F0400201688900A1F1C041C9
:100DC0000A60416B0968426B526841EA0211426B4A
:100DD000926841EA0221426B928941EA0241426BE8
:100DE000128A41EA0251426B127D41EA0261426B72
:100DF000926911430268521C9200A2F1C042116034
:100E0000C16AB1F5804F1BD1816B0968826B526852
:100E100041EA0211826B926841EA0221826B128AD6
:100E200041EA0251826B127D41EA0261826B926952
:100E3000114302689200A2F1C042C2F8041107E017
:100E40006FF0704201688900A1F1C041C1F804212E
:100E50007047000070B50546002400264FF480510D
:100E60003C4800F054FB4FF480613A4800F0BCFA73
:100E70004E21394802F02EF84E213748083802F04A
:100E800029F840F2EE2002F071F961E0042103201C
:100E900002F022F8012800D10126012E06D10421FA
:100EA000032002F019F808B9641C00260321084643
:100EB00002F012F820B10321042002F00DF858B915
:100EC0002121254802F006F821212348083802F0A4
:100ED00001F8FA2002F04AF90421032001F0FCFF96
:100EE00098B90421084601F0F7FF01280DD10AE066
:100EF00000211948083801F0EDFF0421084601F0EF
:100F0000EBFF00B900E0F3E717E00421032001F054
:100F1000E3FF012811D10421084601F0DDFF60B98B
:100F200009E000210C4801F0D5FF0421032001F065
:100F3000D3FF00B900E0F4E700BFAC4202DB02F0EF
:100F4000DDF870BD2146012001F0DEF801F09CFAC9
:100F50009CE70000001001403C34014070B505469C
:100F6000002400264FF480513E4800F0D0FA4FF4A0
:100F700080613C4800F038FA4E213B4801F0AAFF5E
:100F80004E213948083801F0A5FF40F2EE2002F06A
:100F9000EDF866E00421032001F09EFF012800D156
:100FA0000126012E0BD10221012001F095FF30B95D
:100FB0000521012001F090FF08B9641C00260321DF
:100FC000084601F089FF20B10321042001F084FFCD
:100FD00058B92121244801F07DFF212122480838F9
:100FE00001F078FFFA2002F0C1F80421032001F09B
:100FF00073FF98B90421084601F06EFF01280DD156
:101000000AE000211848083801F064FF042108466E
:1010100001F062FF00B900E0F3E717E004210320CC
:1010200001F05AFF012811D10421084601F054FFB4
:1010300060B909E000210C4801F04CFF04210320B5
:1010400001F04AFF00B900E0F4E700BFAC4202DB68
:1010500002F054F870BD2146012001F055F801F06E
:1010600013FA97E7001001403C34014008B5012114
:10107000102001F0CDFC0121102001F0C9FC01215C
:10108000080201F0C5FC0121042001F0C1FC01218E
:10109000082001F0BDFC0121082001F0B9FC01216C
:1010A000082001F0B5FC0121402001F0B1FC012134
:1010B000802001F0ADFC0121080201F0A9FC012112
:1010C000042001F0A5FC0121802001F0A1FC0121F8
:1010D000802001F09DFC0121102001F099FC0121EC
:1010E000802001F095FC0121802001F091FC01217C
:1010F000802001F08DFC0121802001F089FC01217C
:10110000802001F085FC0121080201F081FC012111
:10111000080201F07DFC0121082001F079FC012189
:10112000082001F075FC0121080201F071FC012189
:10113000082001F06DFC0121202001F069FC012153
:10114000202001F065FC0121082001F061FC012153
:10115000402001F05DFC0121402001F059FC0121FB
:10116000202001F055FC0121202001F051FC01213B
:10117000202001F04DFC0121202001F049FC01213B
:10118000080201F045FC4FF48060ADF80000142027
:101190008DF8030003208DF8020069468B4800F0AB
:1011A0002BF94FF48050ADF800006946874800F0F5
:1011B00023F94FF48040ADF800006946844800F000
:1011C0001BF904208DF803000120ADF800006946EA
:1011D000804800F011F910208DF803002020ADF8B0
:1011E000000069467C4800F007F90120ADF80000D6
:1011F0006946794800F000F90220ADF80000694620
:10120000754800F0F9F804208DF803000220ADF8CD
:1012100000006946714800F0EFF84FF40060ADF847
:10122000000069466E4800F0E7F84FF48060ADF8C2
:1012300000006946664800F0DFF84FF48050ADF8D2
:1012400000006946634800F0D7F88020ADF8000040
:101250006946634800F0D0F84020ADF800006946C8
:101260005F4800F0C9F80220ADF800006946574811
:1012700000F0C2F80120ADF800006946584800F0BF
:10128000BBF80420ADF800006946554800F0B4F8FA
:101290001020ADF800006946514800F0ADF84FF459
:1012A0008050ADF8000069464D4800F0A5F84FF4B5
:1012B0008040ADF800006946494800F09DF84FF4C1
:1012C0000050ADF800006946444800F095F804204D
:1012D000ADF8000069463E4800F08EF84FF400502B
:1012E000ADF8000069463C4800F086F84FF4004035
:1012F000ADF800006946384800F07EF84FF4004031
:10130000ADF800006946324800F076F84FF40070FE
:10131000ADF800006946304800F06EF84020ADF8A6
:10132000000069462F4800F067F80820ADF800007B
:1013300069462C4800F060F84FF48070ADF800006A
:101340006946254800F058F84FF40070ADF80000E9
:101350006946224800F050F88020ADF80000694648
:101360001E4800F049F80120ADF8000069461D480C
:1013700000F042F84FF48040ADF80000694619488B
:1013800000F03AF84FF40050ADF8000069461548F7
:1013900000F032F84FF40060ADF8000069461148E3
:1013A00000F02AF81020ADF800006946084800F067
:1013B00023F82021084800F0C7F80121064800F072
:1013C000C3F80221044800F0BFF808BD0010014036
:1013D0000020014000080140000C014000180140BD
:1013E000001C01400014014070B504460D4629461A
:1013F000204600F0A9F870BD2DE9F0410246002515
:101400000026002000230024002791F803C00CF0E0
:101410000F0591F803C00CF0100CBCF1000F03D0C5
:1014200091F802C04CEA050591F800C0BCF1000F2C
:1014300031D0146800202BE04FF0010C0CFA00F3BF
:10144000B1F800C00CEA03069E4220D183004FF0A1
:101450000F0C0CFA03F7BC4305FA03FC4CEA040436
:1014600091F803C0BCF1280F06D14FF0010C0CFA23
:1014700000FCC2F814C00AE091F803C0BCF1480FA8
:1014800005D14FF0010C0CFA00FCC2F810C0401C52
:101490000828D1D31460B1F800C0BCF1FF0F34DDCF
:1014A000546800202EE000F1080C4FF0010808FA03
:1014B0000CF3B1F800C00CEA03069E4221D1830070
:1014C0004FF00F0C0CFA03F7BC4305FA03FC4CEA8F
:1014D000040491F803C0BCF1280F05D100F1080CF9
:1014E00008FA0CF8C2F8148091F803C0BCF1480F58
:1014F00007D100F1080C4FF0010808FA0CF8C2F807
:101500001080401C0828CED35460BDE8F08170B52F
:1015100004460D462946204600F014F870BD70B50B
:1015200004460D462946204600F003F8064630469C
:1015300070BD0246002093680B400BB1012000E013
:101540000020704741617047016170472DE9F0410B
:1015500080460C461048007820B901F05FFB01205E
:101560000D4908702512E6B2A5F1A101C1EB0112E7
:1015700002EB411106EB4101A1390802C11700EB52
:101580005171CF10054839182022404601F01EFB4A
:101590000020BDE8F0810000A0000020003018000D
:1015A00000BFFEE710B5044624B140210448FFF710
:1015B000C9FF03E040210248FFF7C6FF10BD00004D
:1015C000002001402DE9F04106460F4614461D4615
:1015D0002B4622463946304600F0CCFA04FB05F093
:1015E0000249098800F063F9BDE8F0818600002017
:1015F00001B502E00098401E009000980028F9D143
:1016000008BD00002DE9F04389B0804689461746A1
:1016100010231A464946404600F0ACFA2C2000F050
:1016200055FD394601A8FFF791FF002422E001A8EB
:1016300010F814604FF6FF7000EA0626012000EB58
:10164000440001A9085C064300250FE04FF4004068
:101650002841304020B10A48008800F03BFD03E0FB
:101660000848008800F036FD681CC5B2102DEDDB7F
:10167000601CC4B2102CDADB09B0BDE8F0830000B6
:1016800084000020860000202DE9F05F8046894616
:101690001646A6F120001FFA80FA1E4909688988BB
:1016A0001C4A1268D28801FB02F0C11700EB51718D
:1016B000C1F3C7071748006800680AFB070B154805
:1016C0000068C3881348006882884946404600F095
:1016D00051FA2C2000F0FAFC002416E0002510E05E
:1016E0001BF8040080212941084020B10A480088E5
:1016F00000F0F0FC03E00948008800F0EBFC681CF7
:10170000C5B2082DECDB601CC4B2BC42E6DBBDE810
:10171000F09F000080000020840000208600002050
:1017200070B504460D46002624E03046134909688A
:101730008988084412490988884205DD00260F4837
:101740000068C088204484B220460C490968C988D2
:1017500008440C490988884201DD002600242A78C3
:1017600021463046FFF790FF6D1C044800688088D2
:10177000304486B228780028D7D170BD8000002080
:10178000780000207A0000202DE9F04105460C4643
:10179000002648E020787E2825DC30462449096868
:1017A0008988084423490988884205DD00262048A5
:1017B0000068C088284485B228461D490968C98840
:1017C00008441D490988884201DD00260025227849
:1017D00029463046FFF758FF154800688088304496
:1017E00086B2641C1FE030461030124909888842D6
:1017F00003DD002605F1100085B2284610300E49A1
:101800000988884201DD002600252788380200EB80
:10181000272087B23A4629463046FFF7F3FE06F105
:10182000100086B2A41C20780028B3D1BDE8F08156
:1018300080000020780000207A00002000B597B0DA
:101840003C2108A8FEF797FC1C2101A8FEF793FC99
:101850000121080201F0BCF801200190042003904E
:1018600080060790002002900490059006900620C4
:1018700008900020099008200A9010200B9000206A
:101880000C900E900F9010904FF48050119000200B
:1018900012901390149001A81590169008A8FFF7C5
:1018A00065FA01210620FFF747FA17B000BD70B5B1
:1018B00004460D4600262C2000F008FC00BF03E083
:1018C000284600F007FC761CA642F9D370BD000044
:1018D00008B501214FF4B07001F09AF803208DF89B
:1018E000020018208DF803004FF48040ADF800008E
:1018F00069465B48FFF780FD4FF40040ADF80000FB
:1019000069465748FFF778FD0120ADF800006946A9
:101910005348FFF771FD0220ADF8000069465048BA
:10192000FFF76AFD8020ADF8000069464D48FFF7DB
:1019300063FD4FF48070ADF8000069464948FFF739
:101940005BFD4FF40070ADF8000069464548FFF7B5
:1019500053FD4FF48060ADF8000069464148FFF741
:101960004BFD4FF40060ADF8000069463D48FFF7BD
:1019700043FD4FF48050ADF8000069463948FFF749
:101980003BFD4FF40050ADF8000069463548FFF7C5
:1019900033FD4FF48040ADF8000069463148FFF751
:1019A0002BFD4FF40040ADF8000069462D48FFF7CD
:1019B00023FD4FF48070ADF8000069462848FFF71A
:1019C0001BFD4FF40070ADF8000069462448FFF796
:1019D00013FD4FF48060ADF8000069462048FFF722
:1019E0000BFD03208DF8020018208DF80300102055
:1019F000ADF8000069461A48FFF7FEFC2020ADF85C
:101A0000000069461648FFF7F7FC4FF48050ADF828
:101A1000000069461448FFF7EFFC0420ADF8000011
:101A200069461048FFF7E8FC10208DF803000320FA
:101A30008DF802004FF40060ADF8000069460A48D6
:101A4000FFF7DAFC10208DF8030003208DF8020068
:101A50004020ADF8000069460348FFF7CDFC08BD03
:101A600000140140001801400020014010B5044658
:101A7000072C00DD10BD31480470204604EBD07106
:101A80004910A4EB410139B9F0202D4908804FF4E9
:101A9000A0702C49088006E04FF4A0702849088007
:101AA000F02028490880362000F010FB26480088E6
:101AB00049F24131884205D1082141EA441000F041
:101AC00009FB0AE02048008848F25251884204D1BC
:101AD000002141EA441000F0FDFA2A2000F0F6FA55
:101AE000002000F0F7FA002000F0F4FA1449098809
:101AF000491EC1F3072000F0EDFA11490978491E8B
:101B0000C8B200F0E7FA2B2000F0E0FA002000F065
:101B1000E1FA002000F0DEFA0A490988491EC1F303
:101B2000072000F0D7FA07490978491EC8B200F02B
:101B3000D1FA2C2000F0CAFA00BF9BE77C000020FD
:101B4000780000207A0000207E00002010B5FFF70A
:101B5000BFFEFFF773FE0120FFF724FD00F0A0FA9F
:101B600000F038F802480078FFF780FF10BD000051
:101B70007C0000202DE9F04104460D4616461F4624
:101B80002A2000F0A3FA201200F0A4FAE0B200F03C
:101B9000A1FAA119491EC1F30F2000F09BFAA11967
:101BA000491EC8B200F096FA2B2000F08FFA2812D6
:101BB00000F090FAE8B200F08DFAE919491EC1F37D
:101BC0000F2000F087FAE919491EC8B200F082FA26
:101BD000BDE8F08110B500F025FAFE4908800846FE
:101BE000008849F2413188427ED1CF2000F06EFA60
:101BF000002000F06FFA812000F06CFA302000F035
:101C000069FAED2000F062FA642000F063FA032024
:101C100000F060FA122000F05DFA812000F05AFA1C
:101C2000E82000F053FA852000F054FA102000F06C
:101C300051FA782000F04EFACB2000F047FA392014
:101C400000F048FA2C2000F045FA002000F042FA9B
:101C5000342000F03FFA032000F03CFAF72000F0B7
:101C600035FA202000F036FAEA2000F02FFA0020A2
:101C700000F030FA002000F02DFAB12000F026FA32
:101C8000002000F027FA1B2000F024FAB62000F014
:101C90001DFA0A2000F01EFAA22000F01BFAC02054
:101CA00000F014FA352000F015FAC12000F00EFA09
:101CB000112000F00FFAC52000F008FA452000F0CE
:101CC00009FA452000F006FAC72000F0FFF9A2202B
:101CD00000F000FAF22000F0F9F9002000F0FAF923
:101CE000262000F0F3F900E096E0012000F0F2F980
:101CF000E02000F0EBF90F2000F0ECF9262000F0D6
:101D0000E9F9242000F0E6F90B2000F0E3F90E20B9
:101D100000F0E0F9092000F0DDF9542000F0DAF9D4
:101D2000A82000F0D7F9462000F0D4F90C2000F0EC
:101D3000D1F9172000F0CEF9092000F0CBF90F20DF
:101D400000F0C8F9072000F0C5F9002000F0C2F942
:101D5000E12000F0BBF9002000F0BCF9192000F0F0
:101D6000B9F91B2000F0B6F9042000F0B3F91020F7
:101D700000F0B0F9072000F0ADF92A2000F0AAF930
:101D8000472000F0A7F9392000F0A4F9032000F063
:101D9000A1F9062000F09EF9062000F09BF9302002
:101DA00000F098F9382000F095F90F2000F092F932
:101DB000362000F08BF9C82000F08CF92A2000F0C2
:101DC00085F9002000F086F9002000F083F900205A
:101DD00000F080F9EF2000F07DF92B2000F076F97B
:101DE000002000F077F9002000F074F9012000F0E5
:101DF00071F93F2000F06EF93A2000F067F95520A4
:101E000000F068F9112000F061F97348FFF7F0FB6A
:101E1000292000F05BF901E16E48008848F2525138
:101E20008842F8D1CF2000F051F9002000F052F99B
:101E3000C12000F04FF9302000F04CF9ED2000F007
:101E400045F9642000F046F9032000F043F9122020
:101E500000F040F9812000F03DF9E82000F036F96B
:101E6000852000F037F9102000F034F9782000F0D8
:101E700031F9CB2000F02AF9392000F02BF92C2081
:101E800000F028F9002000F025F9342000F022F9B4
:101E9000022000F01FF9F72000F018F9202000F0D0
:101EA00019F9EA2000F012F9002000F013F90020DF
:101EB00000F010F9C02000F009F9212000F00AF923
:101EC000C12000F003F9112000F004F9C52000F052
:101ED000FDF82D2000F0FEF8332000F0FBF836204E
:101EE00000F0F4F8002000F0F5F83A2000F0EEF8E9
:101EF000552000F0EFF8B12000F0E8F8002000F0E5
:101F0000E9F8172000F0E6F8B62000F0DFF80A2024
:101F100000F0E0F8A22000F0DDF8F62000F0D6F89E
:101F2000012000F0D7F8302000F0D4F8F22000F0C3
:101F3000CDF8002000F0CEF8262000F0C7F80120F0
:101F400000F0C8F8E02000F0C1F8D02000F0C2F89E
:101F5000002000F0BFF8022000F0BCF8072000F0DD
:101F6000B9F80B2000F0B6F81A2000F0B3F83120D1
:101F700000F0B0F8542000F0ADF8402000F0AAF8CE
:101F8000292000F0A7F8122000F0A4F8122000F099
:101F9000A1F8122000F09EF8172000F09BF8E12035
:101FA00000F094F8D02000F095F8002000F092F8AE
:101FB000022000F08FF8072000F08CF8052000F0D8
:101FC00089F8252000F086F82D2000F083F84420C1
:101FD00004E000007E000020FCBF020000F07AF860
:101FE000452000F077F81C2000F074F8182000F06D
:101FF00071F8162000F06EF81C2000F06BF81D2020
:1020000000F068F8112000F061F80548FFF7F0FAD9
:10201000292000F05BF82C2000F058F810BD0000DB
:10202000FCBF020010B50024042000F04FF800BFF0
:102030004FF0DA40008800BF4FF0DA40008800F02F
:102040002BF804464FF6FF7000EA042400F024F851
:10205000044348F25250844201D1204610BDD3209F
:1020600000F034F800BF4FF0DA40008800BF4FF0B6
:10207000DA40008800F010F804464FF6FF7000EADE
:10208000042400F009F8044349F24130844201D1AC
:102090002046E3E70020E1E74FF0DA400088704790
:1020A00010B54FF400610848FFF74CFA40F6FF20E6
:1020B000FFF79EFA4FF400610348FFF745FA40F638
:1020C000FF20FFF795FA10BD002001404FF0D841E6
:1020D000088070474FF0DA410880704770B50446B9
:1020E00000F00CF8C5882B460348028821460020E2
:1020F000FFF768FA70BD0000780000200148006812
:10210000704700008000002070B59AB004460D466C
:102110002A460DA101A801F0B3FDFFF7EFFFC0882B
:10212000604386B23046FFF7D9FFFFF7E7FFC0886C
:10213000604386B201A93046FFF726FB4FF4967044
:1021400001F014F81AB070BD20202020253037642B
:102150002000000001490880704700008600002030
:10216000024A1080024A118070470000840000205B
:1021700086000020014908607047000080000020B0
:1021800070B592B004462148B0F904002044451CC3
:1021900001F050F838E000211C4800F089F81B4895
:1021A000B0F90400A84213DA4FF480511848FFF741
:1021B000AEF94FF480611648FFF7A9F9412115489F
:1021C00000F088FE41211348083800F083FE0AE041
:1021D0000021104800F07EFE00210E48083800F073
:1021E00079FE12B070BD0948B0F904200AA1684612
:1021F00001F046FDFFF782FFC08800EB800086B249
:1022000069463046FFF78CFAC5E70000540000200D
:10221000001001403C3401404C65667420477972DF
:102220006F3A2020253864001CB504460622694612
:10223000432000F057F89DF801009DF8001040EA97
:10224000012000B220809DF803009DF8021040EAB2
:10225000012000B260809DF805009DF8041040EA5E
:10226000012000B2A0801CBD70B50024002500BF75
:1022700006E0002500E06D1CB5F57A7FFBDB641CF1
:10228000B4F57A7FF5DB00216B2000F057F80721C9
:10229000192000F053F806211A2000F04FF8002111
:1022A0001C2000F04BF818211B2000F047F870BDEF
:1022B00070B504460D460848006860B10221074821
:1022C000FFF725F906480068FEF7CAF900B2A080BA
:1022D00000200149086070BD6C000020000C014026
:1022E000640000202DE9F04107460C46154601F038
:1022F00039FFD02001F00CFF01F05CFF384601F0FF
:1023000007FF01F057FF01F02DFFD12001F000FF82
:1023100001F050FF002606E0012001F0D1FE207000
:10232000641C701CC6B2681EB042F5DC002001F0CF
:10233000C7FE207001F02EFFBDE8F08170B50546A4
:102340000C4601F00FFFD02001F0E2FE01F032FF59
:10235000284601F0DDFE01F02DFF204601F0D8FEF9
:1023600001F028FF01F016FF70BD00BFFEE700007E
:1023700070B506460C4615461F2E01DC002C00DC0D
:1023800070BD55200B4948700870082088700320E4
:10239000C870012008714C71201288710846C671FE
:1023A0000D72281248720A21024801F03FFC00BF5A
:1023B000E6E70000F0000020704708B54FF4A06089
:1023C00000F058F825208DF8000001208DF801005C
:1023D0008DF802008DF80300684600F013F84FF402
:1023E000A06000F047F826208DF8000001208DF84D
:1023F00001008DF802008DF80300684600F002F835
:1024000008BD000070B5002100230F22C47804B37A
:10241000154C246804F4E064C4F5E064210AC1F1B9
:102420000403CA40447804FA03F184781440214339
:1024300009010E4C0678A155047804F01F0501240B
:10244000AC4005786D11AD0005F1E025C5F80041FF
:1024500009E0047804F01F050124AC40044D06781F
:10246000761145F8264070BD0CED00E000E400E078
:1024700080E100E002490143024A11607047000018
:102480000000FA050CED00E02DE9F05F2021FE4888
:10249000FEF7AAFF0121FC48FEF7A6FF0221FA4839
:1024A000FFF735F80221F948FFF739F8F8490860D5
:1024B0004FF40061F748FFF732F8F54948604FF4F0
:1024C0008061F548FFF72BF8F14988604FF480519F
:1024D000F248FFF724F8EE49C8608021ED48FFF785
:1024E0001EF8EB4908614021EA48FFF718F8E8496F
:1024F00048610221EA48FFF712F8E5498861084679
:10250000006801281AD108464068012816D10846FB
:102510008068012812D10846C06801280ED10846FB
:10252000006901280AD108464069012806D10846F9
:10253000806918B90620DB490860C4E1D448006806
:10254000012819D1D2484068012815D1D0488068A7
:10255000012811D1CE48C06801280DD1CC480069AE
:10256000012809D1CA48406930B9C948806918B9F9
:102570000520CC490860A6E1C548006801281AD1A9
:10258000C3484068012816D1C1488068012812D18B
:10259000BF48C06801280ED1BD48006901280AD192
:1025A000BB48406938B9BA488069012803D1042082
:1025B000BC49086087E1B6480068012819D1B448D1
:1025C0004068012815D1B2488068012811D1B0486F
:1025D000C06801280DD1AE48006950B9AC484069C7
:1025E00038B9AB488069012803D10320AD490860A0
:1025F00069E1A748006801281AD1A5484068012868
:1026000016D1A3488068012812D1A148C0680128CA
:102610000ED19F48006958B99D484069012807D1EB
:102620009B488069012803D102209E4908604AE145
:1026300097480068012818D195484068012814D1AE
:1026400093488068012810D19148C06868B99048C3
:10265000006950B98E484069012806D18C488069CC
:10266000012802D18F4908602DE1894800680128BE
:1026700016D187484068012812D185488068012812
:102680000ED18348C06858B981480069012807D134
:102690007F484069012803D17D488069012814D012
:1026A0007B480068A8B97A48406890B97848806843
:1026B00078B97748C06860B97548006948B9744806
:1026C000406930B97248806918B9002075490860BE
:1026D000F9E06F480068012819D16D484068012869
:1026E00015D16B48806890B96948C06878B9684866
:1026F000006901280BD166484069012807D1644868
:102700008069012803D1801E66490860DBE06048CB
:10271000006801281AD15E484068012816D15C483B
:10272000806898B95A48C06801280FD15848006994
:1027300001280BD156484069012807D154488069C7
:10274000012803D1C01E57490860BCE0504800680A
:10275000012819D14E484068B0B94D48806898B9F1
:102760004B48C06801280FD14948006901280BD1A6
:1027700047484069012807D145488069012803D1AD
:10278000001F484908609EE04148006801281AD1AE
:102790003F484068B8B93E488068012813D13C489A
:1027A000C06801280FD13A48006901280BD1384888
:1027B0004069012807D136488069012803D1401FAC
:1027C000384908607FE032480068D0B93048406836
:1027D000B8B92F488068012813D12D48C068012856
:1027E0000FD12B48006901280BD1294840690128E5
:1027F00007D127488069012803D1801F2949086033
:1028000061E023480068D8B921484068012817D101
:102810001F488068012813D11D48C06801280FD1C6
:102820001B48006901280BD119484069012807D1CC
:1028300017488069012803D1C01F1A49086042E087
:102840001348006801283ED11148406801283AD158
:102850000F488068012836D10D48C068012832D160
:102860000B48006901282ED10948406901282AD166
:1028700007488069012826D10B480068801DB8B937
:102880006FF00600074911E0000C014000180140FC
:1028900070010020001C01400020014000080140A0
:1028A00000100140A8000020E800002008600AE0B5
:1028B0003A480068062803D107203949086002E039
:1028C00000203749086036480068FDF7B8FE354AF1
:1028D00003C233480068FDF7B2FE044632480CC814
:1028E0002046FDF71BFD304A03C22D4909682B4ADB
:1028F0001268881AFDF7A3FE2C4A03C22B482C4904
:102900000CC803C9FDF7B1FD04460D462648294908
:102910000CC803C9FDF7A9FD06460F462148264904
:102920000CC803C9FDF7A1FD804632463B46FDF7C2
:10293000F5FC824622462B46FDF7F0FC1F4A03C2F7
:1029400017480068154908604FF480511C48FEF78D
:10295000DEFD4FF480611A48FEF746FD17480CC8AB
:1029600000201849FDF7DAFC0546FDF792FE044603
:102970002146154800F0AEFA10480CC80020114955
:10298000FDF76DFD0546FDF784FE044621460E4821
:10299000083800F09FFABDE8F09F0000E800002032
:1029A000A8000020B0000020B8000020C0000020D7
:1029B000D8000020D0000020C8000020E000002047
:1029C00000100140008053403C340140704700003B
:1029D00029B1064A52690243044B5A6104E0034A92
:1029E00052698243014B5A61704700000010024057
:1029F00029B1064AD2690243044BDA6104E0034A72
:102A0000D2698243014BDA61704700000010024036
:102A100029B1064A92690243044B9A6104E0034AD1
:102A200092698243014B9A61704700000010024096
:102A300030B500210022002400232D4D6D6805F0E3
:102A40000C0121B1042905D0082923D105E0294D25
:102A5000056022E0274D05601FE0254D6D6805F4F7
:102A60007012234D6D6805F48034022505EB924207
:102A70001CB9214D554305600BE01D4D6D6805F4F3
:102A800000351DB11C4D5543056002E0194D5543FD
:102A9000056002E0174D056000BF00BF144D6D6872
:102AA00005F0F0010909154D6B5C0568DD404560D6
:102AB0000F4D6D6805F4E061090A104D6B5C4568C7
:102AC000DD4085600A4D6D6805F46051C90A0B4D03
:102AD0006B5C4568DD40C560054D6D6805F440419F
:102AE000890B074D6B5CC568B5FBF3F5056130BD1F
:102AF0000010024000127A0000093D00140000207E
:102B00002400002070B592B004462248B0F90400B9
:102B1000001B451E00202049086000F08BFB38E0B8
:102B200000211C48FFF7C4FB1A48B0F90400A84272
:102B300013DD4FF480511948FEF756FC4FF48061C5
:102B40001648FEF751FC4121154800F0C3F9412118
:102B50001348083800F0BEF90AE00021104800F0E0
:102B6000B9F900210E48083800F0B4F912B070BD70
:102B70000848B0F904200BA1684601F081F8FFF77E
:102B8000BDFAC08800EB800086B269463046FEF789
:102B9000C7FDC5E7540000206C0000200010014074
:102BA0003C3401405269676874204779726F3A205B
:102BB0002538640021B1028842F04002028004E01E
:102BC00002884FF6BF731A400280704770B5054601
:102BD0000C46164610211048FEF7B4FC032000F006
:102BE0007BF8C4F3074000F077F8C4F3072000F047
:102BF00073F8E0B200F070F804E0FF2000F06CF829
:102C000028706D1C301EA6F101018EB2F5D1102185
:102C10000148FEF799FC70BD0008014000B587B07F
:102C200001210803FFF7F4FE0121C420FFF7F0FEA5
:102C30001020ADF8040003208DF8060010208DF858
:102C4000070001A92248FEF7D7FB2020ADF80400B9
:102C500018208DF8070001A91D48FEF7CDFB402084
:102C6000ADF8040001A91A48FEF7C6FB8020ADF8B4
:102C7000040001A91648FEF7BFFB10211448FEF717
:102C800063FC0020ADF808004FF48270ADF80A0034
:102C90000020ADF80C000220ADF80E000120ADF8C8
:102CA00010004002ADF812000820ADF8140000201A
:102CB000ADF816000720ADF8180002A9054800F08D
:102CC00055F801210348FFF775FF07B000BD00006C
:102CD000000801400030014010B504464FF4805018
:102CE000194908600AE018490868411E164A11602F
:102CF00020B9002000F058F8C0B210BD02211348DE
:102D000000F026F80028EED02146104800F02CF8FC
:102D10004FF480500C4908600AE00B490868411ED6
:102D2000094A116020B9012000F03EF8C0B2E4E782
:102D30000121064800F00CF80028EED0034800F00E
:102D400010F8C0B2D9E70000A40000200030014014
:102D50000246002013890B400BB1012000E0002047
:102D600070470146888970478181704710B50022FD
:102D7000028802F441520B884C8823438C882343F9
:102D8000CC8823430C8923434C8923438C892343D8
:102D9000CC8923431A430280838B4FF2FF74234074
:102DA00083830B8A038210BD10B50446214602A01E
:102DB00000F056FF002010BD3C3C2D464C415348CE
:102DC0002D4552524F522D3E3E2053504920B5C8FA
:102DD000B4FDB3ACCAB1216572726F72436F6465A2
:102DE000203D2025640A0000704710B500F002F86D
:102DF00010BD00000CB50020019000903348006821
:102E000040F480303149086000BF3048006800F469
:102E1000003000900198401C0190009818B901986A
:102E2000B0F5A06FF1D12948006800F4003010B16E
:102E30000120009001E0002000900098012843D17B
:102E40002348006840F010002149086008460068E7
:102E500020F0030008600846006840F002000860A7
:102E60001A48406819494860084640684860084662
:102E7000406840F4806048600846406820F47C1058
:102E800048600846406840F4E8104860084600681A
:102E900040F08070086000BF0C48006800F00070CF
:102EA0000028F9D00948406820F00300074948602D
:102EB0000846406840F00200486000BF0348406890
:102EC00000F00C000828F9D10CBD000000100240F1
:102ED000002002400180704770B505460C46002670
:102EE000012D06D0022D34D0032D62D0042D6ED1D9
:102EF00092E0082C2BD2DFE804F02A04090F151BFE
:102F0000202502215E48FEF70AFB70BD4FF40061E8
:102F10005C48FEF704FBF8E74FF480615A48FEF77F
:102F2000FEFAF2E74FF480515848FEF7F8FAECE762
:102F300080215448FEF7F3FAE7E740215148FEF7B5
:102F4000EEFAE2E702215248FEF7E9FADDE700BFB8
:102F500000BF082C2BD2DFE804F02A04090E131955
:102F60001F2501214748FEF7DAFACEE7042145483C
:102F7000FEF7D5FAC9E710214248FEF7D0FAC4E7B8
:102F80004FF480513F48FEF7CAFABEE74FF4804144
:102F90003C48FEF7C4FAB8E74FF400513848FEF752
:102FA000BEFAB2E704213848FEF7B9FAADE700BF30
:102FB00000BF082C2ED2DFE804F02D040B11171DE2
:102FC00022274FF400513348FEF7A9FA9DE754E059
:102FD0004FF400412F48FEF7A2FA96E74FF4004164
:102FE0002948FEF79CFA90E74FF400712948FEF754
:102FF00096FA8AE740212848FEF791FA85E70821EA
:103000002548FEF78CFA80E74FF480712148FEF7DF
:1030100086FA7AE700BF00BF082C2CD2DFE804F064
:103020002B040A0F141A20264FF400711448FEF7DF
:1030300076FA6AE780211248FEF771FA65E7012106
:103040001548FEF76CFA60E74FF480411248FEF72E
:1030500066FA5AE74FF400510F48FEF760FA54E75A
:103060004FF400610C48FEF75AFA4EE7102106486B
:10307000FEF755FA49E700BF00BF002045E7000012
:1030800000180140001C01400020014000080140E0
:1030900000100140000C01400014014010B54FF435
:1030A00080410848FEF7A0F950210748FFF712FFBA
:1030B0004FF47A7000F05AF800210348FFF70AFF36
:1030C00010BD000000200140402C014010B54FF41D
:1030D00080410848FEF71BFA50210748FFF7FAFE27
:1030E0004FF47A7000F042F800210348FFF7F2FE37
:1030F00010BD000000200140402C014010B500210F
:103100000448FFF7E7FE002102480838FFF7E2FE17
:1031100010BD00003C34014030B50146B1F1807F64
:1031200001D3012030BD21F07F40401E4FF0E0224E
:10313000506150170F22002807DA13071D0E094BA4
:1031400000F00F04241F1D5503E013071C0E064B4F
:103150001C5400BF00204FF0E02290610720106156
:103160000020DFE718ED00E000E400E070B5044661
:103170000C48FFF7D1FF002508E000BF4FF0E0202A
:10318000006900F480300028F8D06D1CA542F4D30B
:103190004FF0E020006920F001004FF0E0210861CD
:1031A00070BD0000401901002DE9F05F194800686A
:1031B00070BB1948FFF738F81749B1F90400FDF75B
:1031C0003EFA80464FF03332144BFDF748F906467D
:1031D0004FF0C042124BFDF7BAF904464FF0C0421F
:1031E000104BFDF742F98246FDF76CFA0E49086074
:1031F0000E490D480068FDF721F804460C480168A7
:103200002046FCF7C3FF0A49086001200149086015
:10321000BDE8F09F6C0000203E00002033F33640F4
:103220006666304066660C40500000206F12833A9C
:103230006400002010B50A4800684FF47A71B0FBB2
:10324000F1F42046FFF768FF08B100BFFEE74FF03A
:10325000E020006940F001004FF0E021086110BD5E
:103260000000002010B51348006840F0010011492B
:10327000086008464068104908400E494860084602
:1032800000680E4908400B4908600846006820F4B1
:10329000802008600846406820F4FE0048604FF433
:1032A0001F008860FFF7A1FD4FF00060044908602F
:1032B00010BD0000001002400000FFF8FFFFF6FE06
:1032C00008ED00E0F0B50C46154600220021068C02
:1032D0004FF6FE773E400684028B018C4FF60C764B
:1032E00032407E1C06EA03162E433243104EB04293
:1032F0000ED0104EB0420BD0B0F1804F08D00E4E21
:10330000B04205D00D4EB04202D00D4EB04206D1B3
:103310004FF6FD76314044F00106314305E04FF6AB
:10332000F576314044F00106314302830184F0BD5B
:10333000002C01400034014000040040000800401F
:10334000000C0040F0B50C46154600220021002676
:10335000078C4FF6EF7C07EA0C070784028B018C81
:103360004FF6FF7707EA041640F6FF473A404FF65C
:10337000FF7707EA03373A434FF6FF7707EA052757
:103380003A43114FB8420ED0104FB8420BD0B0F1B3
:10339000804F08D00E4FB84205D00E4FB84202D031
:1033A0000D4FB84206D14FF6DF77394046F010078F
:1033B000394305E04FF65F77394044F01007394351
:1033C00002830184F0BD0000002C01400034014064
:1033D0000004004000080040000C004070B50221CD
:1033E000234800F0ABF8224800F0C6F821490880D5
:1033F0001F4800F0C4F8204908801E48008800B328
:103400001C480088401CFDF711F904461A49098838
:10341000491C642201FB02F0FDF708F9054621462C
:10342000FCF73EFF1549086012480088401CFDF774
:10343000FDF8044621461248FCF732FF11490860A6
:1034400010E000200D4908600E49086020210E4858
:10345000FEF75DF801210C48FDF7C6FF02210A487E
:10346000FDF7C2FF0221024800F068F870BD0000BD
:10347000000400407200002070000020280000209E
:103480004054894C2C000020000C014070B50221F2
:10349000234800F053F8224800F06EF821490880D4
:1034A0001F4800F06CF8204908801E48008800B3CF
:1034B0001C480088401CFDF7B9F804461A490988E1
:1034C000491C642201FB02F0FDF7B0F805462146D5
:1034D000FCF7E6FE1549086012480088401CFDF71D
:1034E000A5F8044621461248FCF7DAFE11490860A7
:1034F00010E000200D4908600E49086020210E48A8
:10350000FEF705F801210C48FDF76EFF02210A487D
:10351000FDF76AFF0221024800F010F870BD0000BC
:1035200000080040760000207400002030000020D9
:103530004054894C34000020000C0140CA430282F0
:10354000704721B1028842F00102028004E0028843
:103550004FF6FE731A400280704731B1B0F8442034
:1035600042F40042A0F8442005E0B0F84420C2F341
:103570000E02A0F8442070470146888E704701462D
:10358000088F70471AB183890B43838102E08389D6
:103590008B4383817047000070B500240022002314
:1035A000058C4FF6FE7635400584028C8388048BAB
:1035B0004FF68F752C40B51E2C400D882C43751E80
:1035C0002A400D892A434D882A43144DA8420BD026
:1035D000134DA84208D0134DA84205D0124DA84261
:1035E00002D0124DA84213D14FF6F7752A404D89EB
:1035F0002A434FF6FB752A408D882A434FF6FF6514
:103600002B404FF6FF552B408D892B43CD892B4303
:1036100083800483CD888586028470BD002C0140A0
:103620000034014000400140004401400048014096
:103630000A460021018B4FF6F773194011430183AD
:103640007047000070B5002400220023058C4FF65F
:10365000EF7635400584028C8388048B48F6FF752D
:103660002C404FF6FF452C400D884FF6FF7606EABA
:1036700005252C434FF6DF752A400D8906EA05150E
:103680002A434D8806EA05152A43154DA84202D063
:10369000144DA8421DD14FF67F752A404D894FF633
:1036A000FF7606EA05152A434FF6BF752A408D8836
:1036B00006EA05152A434FF6FF352B404FF2FF75FA
:1036C0002B408D8906EA85052B43CD8906EA8505C1
:1036D0002B4383800483CD880587028470BD00005E
:1036E000002C0140003401400A460021018B4FF2BA
:1036F000FF7319404FF6FF7303EA02231943018356
:103700007047000070B5002400220023058C4FF69E
:10371000FF6635400584028C8388848B4FF68F7555
:103720002C404FF6FC752C400D882C434FF6FF556E
:103730002A400D894FF6FF7606EA05252A434D8873
:1037400006EA05252A43154DA84202D0144DA84289
:103750001DD14FF2FF752A404D894FF6FF7606EADC
:1037600005252A434FF6FF352A408D8806EA0525B0
:103770002A434EF6FF752B404DF6FF752B408D8981
:1037800006EA05152B43CD8906EA05152B438380F0
:103790008483CD888587028470BD0000002C0140A1
:1037A000003401400A460021818B4FF6F77319401F
:1037B000114381837047000070B50022002300246C
:1037C000058C4EF6FF7635400584038C8488828B09
:1037D00048F6FF752A404FF6FF452A400D884FF600
:1037E000FF7606EA05252A434DF6FF752B400D8925
:1037F00006EA05352B434D8806EA05352B430B4D6C
:10380000A84202D00A4DA84208D14BF6FF752C40C1
:103810008D894FF6FF7606EA85152C4384808283D6
:10382000CD88A0F84050038470BD0000002C0140FA
:10383000003401400A460021818B4FF2FF7319408A
:103840004FF6FF7303EA02231943818370472DE982
:10385000F04105460C4600260127608808B902267B
:1038600000E00026A088012801D1022700E00127FE
:103870002088A0B92389A28861882846FFF722FD05
:10388000E188284600F03CF823893A46314628462C
:10389000FFF758FDE188284600F03BF813E0238944
:1038A000A28861882846FFF74DFDE188284600F090
:1038B00030F823893A4631462846FFF703FDE18870
:1038C000284600F01DF8BDE8F0810A460021018974
:1038D0004FF68F73194011430181704702894FF6EB
:1038E0007F731A40028102890A430281704702896C
:1038F0004FF6F8731A40028102890A430281704729
:10390000028B4FF6F3731A400283028B0A43028341
:103910007047028B4FF2FF331A400283028B4FF63F
:10392000FF7303EA01231A430283704700220288CF
:103930001D4B98420ED01D4B98420BD0B0F1804FDA
:1039400008D01B4B984205D01A4B984202D01A4B14
:10395000984204D14FF68F731A404B881A43174B85
:10396000984207D0164B984204D04FF6FF431A40B6
:10397000CB881A4302808B8883850B8803850A4B8A
:1039800098420BD0094B984208D00E4B984205D074
:103990000D4B984202D00D4B984201D10B7A038611
:1039A0000123838270470000002C01400034014055
:1039B0000004004000080040000C004000100040DF
:1039C0000014004000400140004401400048014014
:1039D00021B1828942F40052828104E082894DF64D
:1039E000FF731A408281704700B585B00121042021
:1039F000FFF70EF801218803FFF70AF84FF4007073
:103A0000ADF8100018208DF8130003208DF8120077
:103A100004A93748FDF7F0FC4FF48060ADF81000C2
:103A200004208DF8130004A93148FDF7E5FC0121BD
:103A30000420FEF7EDFF01214804FEF7D9FF4FF403
:103A40008060ADF8100018208DF8130003208DF869
:103A5000120004A92748FDF7CFFC4FF40060ADF831
:103A6000100004208DF8130004A92248FDF7C4FCBF
:103A70004FF4165000900020ADF80400ADF8060099
:103A8000ADF80800ADF80C000C20ADF80A0069464E
:103A9000194800F05BF8FEF790FC012240F2255136
:103AA000154800F02DF801211348FFF791FF4FF45E
:103AB000165000900020ADF80400ADF80600ADF8F7
:103AC0000800ADF80C000C20ADF80A0069460B4860
:103AD00000F03CF8FEF771FC012240F22551074846
:103AE00000F00EF801210548FFF772FF05B000BD98
:103AF00000080140000C0140003801400044004033
:103B0000F0B50346002400260025002040F66A1781
:103B1000B94200D100BF1846C1F3421401F01F069C
:103B2000012707FA06F5012C01D10C3004E0022C24
:103B300001D1103000E014301AB107682F4307603C
:103B400002E00768AF430760F0BD00002DE9F047D1
:103B500086B005460E460024A24600BFA1460027B7
:103B6000B08900B100BF2F462C8A4CF6FF7004408C
:103B7000F08804432C82AC894EF6F3100440B088E0
:103B800031890843718908430443AC81AC8A4FF6FC
:103B9000FF400440B0890443AC8201A8FEF748FF0F
:103BA0001F48874202D1DDF810A001E0DDF80CA02B
:103BB000A88900F4004040B10AEBCA0000EB0A10EB
:103BC00031684900B0FBF1F807E00AEBCA0000EBEE
:103BD0000A1031688900B0FBF1F86420B8FBF0F0FE
:103BE00004012009642101FB1089A88900F4004028
:103BF00040B1322000EBC900B0FBF1F000F007004B
:103C0000044308E0322000EB09106421B0FBF1F01E
:103C100000F00F0004432C8106B0BDE8F0870000DF
:103C200000380140C1F308028280704770B5044635
:103C30000D460BE000BF0848008800F04000002857
:103C4000F9D014F8011B0448FFF7ECFF281EA5F17A
:103C50000101CDB2EED170BD0038014000BFFEE7DA
:103C60000FB4054B10B503A9044A029800F02CF8D4
:103C700010BC5DF814FB000015400008EC000020AB
:103C80000FB4084B10B504A902AA039800F01CF861
:103C9000044602A9002000F0B8F9204610BC5DF8E7
:103CA00014FB00000B40000802E008C8121F08C106
:103CB000002AFAD170477047002001E001C1121FAD
:103CC000002AFBD1704700002DE9FF4F8BB08846DA
:103CD0000546002606E025280BD0DDE90D129047A9
:103CE0006D1C761C28780028F5D10FB03046BDE851
:103CF000F08F0024A146A2460122AE4900E0044311
:103D000015F8013F203B02FA03F00842F7D128786A
:103D10002A2810D06FF02F022878A0F1300109294D
:103D200015D809EB890102EB410144F0020400EBD4
:103D300001096D1CF0E758F8041B5FEA010903D57F
:103D400044F40054C9F1000944F002046D1C2878C1
:103D50002E2817D115F8010F44F004042A280ED09C
:103D60006FF02F022878A0F1300109290AD80AEB58
:103D70008A0102EB410100EB010A6D1CF2E758F8E1
:103D800004AB6D1C28786C280FD006DC4C2817D0AB
:103D900068280DD06A2814D104E0742810D07A283D
:103DA0000FD10DE044F400140AE044F4801401E063
:103DB00044F440146978814202D104F580146D1CEA
:103DC0006D1C2878692865D006DC00288DD0632812
:103DD00027D0642806D15DE06E2808D073282AD049
:103DE000752877D0DDE90D129047761CE0E0C4F32A
:103DF0000250022809D003280DD0D8F8001004285A
:103E00000DD00E6008F10408D2E0D8F80010F217C7
:103E1000C1E90062F6E7D8F800100E80F2E70E70F4
:103E2000F0E718F8041B8DF8001000208DF8010051
:103E3000EB46012003E058F804BB4FF0FF30610768
:103E40004FF0000701D40AE07F1C57450DDA874286
:103E5000FADB1BF807100029F6D106E07F1C874229
:103E6000FCDB1BF807100029F8D1DDE90D23A9EBD5
:103E700007008146214600F0B1F83044C61904E03D
:103E8000DDE90D121BF8010B90477F1EF8D2214689
:103E9000484688E058F8040BC4F302514FF00A0B6F
:103EA000032900D100B2042900D140B2002802DA6F
:103EB00040422D2102E0210505D52B218DF824104B
:103EC000012104E006E0E10710D02021F6E708AF69
:103ED000089113E058F8040BC4F302514FF00A0B99
:103EE000032900D180B2042900D1C0B20021EEE73D
:103EF0005946FCF703FC303107F8011D0028F7D1C3
:103F0000ADEB070000F1200B600702D524F48034EC
:103F100001E04FF0010ADA4502DDAAEB0B0000E0F8
:103F20000020824600EB0B0108980144A9EB010038
:103F30000A90E00306D4DDE90D2321460A9800F03B
:103F40004DF806444FF0000908E009A911F80900EE
:103F5000DDE90D12904709F10109761C08998945A0
:103F6000F3DBE0030CD5DDE90D2321460A9800F0D0
:103F700035F8064404E0DDE90D1230209047761C48
:103F8000BAF10001AAF1010AF5DC05E0DDE90D1244
:103F900017F8010B9047761CBBF10001ABF1010B48
:103FA000F4DC0A982146DDE90D2300F005F806440B
:103FB0006D1C97E6092801002DE9F0410446002513
:103FC0001E461746880404D405E039462020B04731
:103FD0006D1C641EF9D52846BDE8F0812DE9F0413D
:103FE000044600251E469046C80301D5302700E050
:103FF0002027880404D505E041463846B0476D1CAB
:10400000641EF9D52846BDE8F0810A68531C0B6090
:104010001070704738B504468DF8000069460320DB
:10402000ABBE204638BD000010B5802009490860AD
:1040300000F012F840200749091F086000F00CF852
:1040400040200449086000F007F880200149091F5A
:10405000086010BD140C0140002001E0411CC8B2F2
:104060000A28FBDB7047000008B501210820FEF795
:10407000CFFCC020ADF8000003208DF80200142012
:104080008DF8030069460348FDF7B6F900F082F8A1
:1040900008BD0000000C014010B5802007490860F1
:1040A000FFF7DAFF402005490860FFF7D5FF402001
:1040B0000249091D0860FFF7CFFF10BD100C014039
:1040C00070B505460024002616E06006040E402068
:1040D0000E490860FFF7C0FF0C480838006800F080
:1040E000800008B1601CC4B240200849091D086066
:1040F000FFF7B2FF701CC6B2082EE6DB15B9FFF75A
:10410000CBFF01E0FFF790FF204670BD100C01408F
:1041100070B50446002520E004F0800018B180202E
:104120000F49086003E080200D49091D0860FFF772
:1041300093FF40200A490860FFF78EFF402008499E
:10414000091D0860072D02D18020091F0860600644
:10415000040EFFF781FF681CC5B2082DDCDB70BDC3
:10416000100C014010B5802009490860402008600B
:10417000FFF772FF80200649091D0860FFF76CFFFA
:1041800040200349091D0860FFF766FF10BD0000CD
:10419000100C014010B58020054908604020091F1F
:1041A0000860FFF759FF80200149091F086010BD12
:1041B000140C014010B580200C490860FFF74CFF3B
:1041C00040200A490860FFF747FF084808380068A0
:1041D00000F0800008B1012400E0002440200349E1
:1041E000091D0860FFF738FF204610BD100C014084
:1041F00010B500F027F81DE001211048FDF78FF9F8
:1042000001280AD101210E48FDF781F920210C482F
:10421000FDF7EAF800F058F80DE001210748FDF736
:104220007EF938B920210648FDF771F901210448CB
:10423000FDF7DAF8E0E700BF002010BD00080140FC
:10424000000C014010B5FCF711FFFCF7B7FBFEF7BF
:10425000F1FFFDF77BFC0620FDF708FCFFF7C4FB30
:10426000FFF702FFFEF700F800211248FEF732FECA
:10427000002110480830FEF72DFE00210E48FEF701
:1042800029FE00210C480C30FEF724FE0020FDF72B
:1042900061FF0A48FDF76EFF00214FF6FF70FDF742
:1042A0005FFF074803880748028800210846FDF79A
:1042B00089F910BD34340140342C014088000020BD
:1042C0007A0000207800002010B50220FCF7C2FD23
:1042D0004FF4FA70FEF74AFF5A20FEF713FC4FF432
:1042E000FA70FEF743FF0120FCF738FE4FF4FA7036
:1042F000FEF73CFF5A20FDF743FF4FF4FA70FEF73C
:1043000035FFFCF78BFC10BD000000000000000032
:104310000000000000000000000000181818181825
:1043200018080008180000000000003424242400AD
:1043300000000000000000000000000016247F24A0
:1043400024247E2424000000000000083E68486801
:104350001C1612127C10100000000061D296740826
:1043600010162949C6000000000000003C646438B3
:10437000724ACE467F00000000000018181818008E
:1043800000000000000000000000000408181030C9
:104390003030301010180C04000000201008080CF9
:1043A0000404040C08181020000000080A341C6AD9
:1043B00008000000000000000000000000001818C5
:1043C000187F18181800000000000000000000000E
:1043D0000000001818083000000000000000000075
:1043E000003C000000000000000000000000000091
:1043F00000000018180000000000000206040C086D
:104400000810102020400000000000003C664247D9
:104410005B7342663C00000000000000187848080A
:10442000080808087E000000000000003C46060660
:10443000040810207E000000000000007C06060436
:104440003C0202067C000000000000000C1C14244A
:104450006444FF0404000000000000007E6060600F
:104460007E0202067C000000000000001E30604852
:10447000764242623C000000000000007E0206041A
:104480000C08181030000000000000003C624236AA
:104490001C6642423C000000000000003C664242B4
:1044A000661A0204780000000000000000001818DE
:1044B000000000181800000000000000000018189C
:1044C0000000001818083000000000000000041868
:1044D0003060100C0600000000000000000000002A
:1044E0007E007E0000000000000000000000301888
:1044F00004060C1020000000000000301C06060618
:1045000018100010100000000000001C224141DDC6
:10451000B5A5A5AF94C0403C00000000181C342491
:1045200026627E43C1000000000000007C46424637
:104530007C4242427C000000000000001E204040FF
:10454000404040603E000000000000007C464243C6
:104550004343424678000000000000007E60606037
:104560007E6060607E000000000000007E60606091
:104570007E60606060000000000000001E6040403F
:10458000CE4242623E000000000000004242424231
:104590007E42424242000000000000007E181818CF
:1045A000181818187E000000000000007C040404A5
:1045B0000404044478000000000000004244485015
:1045C00070584C44420000000000000020202020D1
:1045D000202020203E000000000000006266675F8F
:1045E0005B5BC1C1C100000000000000626272524A
:1045F0005A4A4E4646000000000000003C6243C399
:10460000C3C343623C000000000000007C464242FD
:104610004678404040000000000000003C6243C378
:10462000C3C343623C180F00000000007C66626652
:104630007C6C646662000000000000003E60406028
:104640001C0602027C000000000000007F18181801
:1046500018181818180000000000000042424242DA
:10466000424242623C00000000000000C14342623E
:104670002624341C1800000000000000C1C141497C
:104680005B5B76666600000000000000436634183D
:10469000181C2466C300000000000000C1426634FC
:1046A0001C18181818000000000000007E02040CFE
:1046B000181020607E0000000000001C1010101078
:1046C000101010101010101C0000004020201010BE
:1046D00008080C04060200000000003C0C0C0C0C46
:1046E0000C0C0C0C0C0C0C3C00000000181C246280
:1046F00000000000000000000000000000000000BA
:1047000000000000000000FF00000020100000007A
:1047100000000000000000000000000000003C0657
:10472000023E42467A0000000000004040405C62C9
:10473000424242427C0000000000000000001E20B7
:10474000604060203E0000000000000202023E6265
:10475000424242663A0000000000000000003C6255
:10476000427E40603E0000000000000F1810107EE6
:1047700010101010100000000000000000003F6644
:10478000426658403E43423C0000004040405C626C
:10479000424242424200000000000018180078081F
:1047A000080808087E000000000000040C007C04DB
:1047B0000404040404040C78000000606060626C6F
:1047C000787068646200000000000078080808083B
:1047D000080808087E000000000000000000764B7A
:1047E0004B4B4B4B4B0000000000000000005C6294
:1047F00042424242420000000000000000003C62D1
:10480000424342623C0000000000000000005C6285
:10481000424242427C4040400000000000003E62B4
:10482000424242663A0202020000000000006E723C
:1048300063606060600000000000000000003E2037
:10484000203C06027C000000000000001010FE105A
:10485000101010101E000000000000000000424276
:10486000424242663A00000000000000000043425D
:104870006624341818000000000000000000C1C1C8
:104880005B5A5E66660000000000000000006226C1
:104890001C181C26620000000000000000004342BB
:1048A0006624341C181830E00000000000007E066A
:1048B0000C1810207E0000000000000E18101010D0
:1048C000307010101010180E0000080808080808B2
:1048D0000808080808080808000000301808080838
:1048E0000C0E080808081830000000000000000046
:1048F000714B0600000000000000000000000000F6
:1049000000000000000000000000000000000000A7
:104910000000000000000000000000000000000097
:104920000000000000000000000000000000000087
:1049300000000380018001800180018001800180EE
:104940000180018001800000000003C003C000005E
:104950000000000000000000000000000000000057
:1049600000000E700E700E700C3000000000000091
:104970000000000000000000000000000000000037
:104980000000000000000000000000000000000027
:10499000000000000618063806307FFE0C300C3090
:1049A0000C300C307FFE0C601C601860186000003A
:1049B00000000000000000000000000000000000F7
:1049C00000C000C00FF83CC831C031803D801F805E
:1049D00003F001F8031C030C031C3FF83FE0070041
:1049E00006000000000000000000000000000000C1
:1049F0001C007E0E630C631863307E6000C0018073
:104A00000300077C0EE61CC618C630C6607C00009A
:104A10000000000000000000000000000000000096
:104A200000000FE01CF0387038701C601FC00F00D1
:104A30003F8C71CC60EC607C70383CFC1FCE000079
:104A40000000000000000000000000000000000066
:104A5000000003C001800180018000000000000010
:104A60000000000000000000000000000000000046
:104A70000000000000000000000000000000000036
:104A8000003000E001C001800300070006000600BE
:104A90000E000E000E000E0006000700030003804B
:104AA00001C000E000300000000000000000000035
:104AB0000C0006000380018001C000E0006000607F
:104AC0000070007000700060006000E000C00180B5
:104AD000038006000C000000000000000000000041
:104AE0000000018011881DB803C007E03DBC0188AB
:104AF0000180000000000000000000000000000035
:104B000000000000000000000000000000000000A5
:104B10000000000000000000018001800180018091
:104B200001807FFE01800180018001800000000083
:104B30000000000000000000000000000000000075
:104B40000000000000000000000000000000000065
:104B5000000000000000000003C003C001C001C04D
:104B600003801F00000000000000000000000000A3
:104B70000000000000000000000000000000000035
:104B800000000FF000000000000000000000000026
:104B90000000000000000000000000000000000015
:104BA0000000000000000000000000000000000005
:104BB000000000000000000003C003C003C00000AC
:104BC00000000000000000000000000000000000E5
:104BD0000000001800380030006000E000C001C094
:104BE00001800300030006000E000C001C001800EA
:104BF0003000000000000000000000000000000085
:104C0000000001800FF01C38381C301C707E70EEE4
:104C1000738E7E0E7C0C300C381C1E780FE000006A
:104C20000000000000000000000000000000000084
:104C30000000000007C01FC039C001C001C001C092
:104C400001C001C001C001C001C03FFC3FFC000029
:104C50000000000000000000000000000000000054
:104C6000000003801FF018380038001800380038A2
:104C7000007001E0038007001C003FFC3FFC0000C7
:104C80000000000000000000000000000000000024
:104C9000000007801FF0003800380038003007E0BF
:104CA00007F00038001C001C001820F83FE000004E
:104CB00000000000000000000000000000000000F4
:104CC0000000000000F001B0033007300E301C304F
:104CD000383070307FFE7FFE003000300030000042
:104CE00000000000000000000000000000000000C4
:104CF000000000001FF818001800180018001FE03E
:104D000000F8001C001C001C003800F01FC0000050
:104D10000000000000000000000000000000000093
:104D20000000000003F80F001C001800300037F8E6
:104D30003C3C300C300C380C381C1E380FF0000096
:104D40000000000000000000000000000000000063
:104D5000000000003FFC001C0018003800700060DC
:104D600000E001C001800380070006000E00000083
:104D70000000000000000000000000000000000033
:104D8000000003C01FF8381C381C381C1C380FF0FA
:104D900007F01C78381C300C381C3C380FF0000031
:104DA0000000000000000000000000000000000003
:104DB000000003801FF03838301C701C700C380C59
:104DC0001FFC0FCC001C001800701FE01F800000AB
:104DD00000000000000000000000000000000000D3
:104DE0000000000000000000000003C003C00180BC
:104DF000000000000000000003C003C003C000006A
:104E000000000000000000000000000000000000A2
:104E10000000000000000000000003C003C001808B
:104E2000000000000000000003C003C001C001C07A
:104E300003800F00000000000000000000000000E0
:104E40000000000000000000003800F001C0070072
:104E50001E0038000E00078001C000700030000006
:104E60000000000000000000000000000000000042
:104E700000000000000000000000000000003FFCF7
:104E8000000000003FFC3FFC0000000000000000AC
:104E90000000000000000000000000000000000012
:104EA00000000000000000001C000F00038001E073
:104EB0000078001C007001E003800E000C00000070
:104EC00000000000000000000000000000000000E2
:104ED00000000FC000F0003800380038003803F040
:104EE000038003000300000000000780078000002B
:104EF00000000000000000000000000000000000B2
:104F000000E007F80C0C18063006700363F36633F4
:104F1000C673CC63CC62CC66CCE6C7FCE000600014
:104F2000700038101FF000000000000000000000BA
:104F30000000000003C007E006E00E700E700C30A9
:104F40001C3818183FFC3FFC700E600EE007000094
:104F50000000000000000000000000000000000051
:104F6000000000003FF03838381C381C38383FF05B
:104F70003FF8381C380C380C381C3FF83FE0000074
:104F80000000000000000000000000000000000021
:104F9000000000E007FC1E043800380030007000FC
:104FA00070007000300038003C001F9C07FC0000BF
:104FB00000000000000000000000000000000000F1
:104FC000000000003FF03078301C300C300E300E06
:104FD000300E300E300E301C30383FF03FC0000035
:104FE00000000000000000000000000000000000C1
:104FF000000000001FF818001800180018001FF823
:105000001FF818001800180018001FF81FF80000FB
:105010000000000000000000000000000000000090
:10502000000000001FF818001800180018001FF8F2
:105030001FF81800180018001800180018000000C9
:105040000000000000000000000000000000000060
:10505000000000F007FC1E043800300070007000F3
:1050600070FC700C700C300C380C1F1C07FC00001E
:105070000000000000000000000000000000000030
:1050800000000000300C300C300C300C300C3FFCB9
:105090003FFC300C300C300C300C300C300C00006D
:1050A0000000000000000000000000000000000000
:1050B000000000003FFC0180018001800180018030
:1050C000018001800180018001803FFC3FFC0000E5
:1050D00000000000000000000000000000000000D0
:1050E000000000001FF000300030003000300030C1
:1050F000003000300030003000701DE01FC00000A4
:10510000000000000000000000000000000000009F
:1051100000000000381C387038E039C03B803F0088
:105120003F003B8039C038E038703838381C000008
:10513000000000000000000000000000000000006F
:10514000000000001C001C001C001C001C001C00B7
:105150001C001C001C001C001C001FFC1FFC00008D
:10516000000000000000000000000000000000003F
:1051700000000000381C7C3C6C3E6E6E666E66CE95
:1051800063C663866186600660066006600600008E
:10519000000000000000000000000000000000000F
:1051A000000000003C0C3C0C3E0C360C330C338CE5
:1051B000318C31CC30EC306C307C303C301C000019
:1051C00000000000000000000000000000000000DF
:1051D000000001C00FF81C3C381C700E700E6006F9
:1051E0006006700E700E700C381C1E780FE0000008
:1051F00000000000000000000000000000000000AF
:10520000000000003FF0383C381C380C380C381CCB
:1052100038783FE0380038003800380038000000A7
:10522000000000000000000000000000000000007E
:10523000000001C00FF81C3C381C700E700E600698
:105240006006700E700E700C381C1E780FE0018026
:1052500001C000FF003C0000000000000000000052
:10526000000000003FF0383838183818383838F067
:105270003FC038E0387038383838381C380E0000F5
:10528000000000000000000000000000000000001E
:10529000000001E00FF83800380038003C001F80A3
:1052A00003F00078001C001C001C38783FE0000070
:1052B00000000000000000000000000000000000EE
:1052C000000000007FFE01800180018001800180DC
:1052D0000180018001800180018001800180000047
:1052E00000000000000000000000000000000000BE
:1052F00000000000300C300C300C300C300C300C46
:10530000300C300C300C300C381C1C380FF0000006
:10531000000000000000000000000000000000008D
:1053200000000000E006700E700E381C381C1C18BF
:105330001C380C300E70066007E003C003C000008C
:10534000000000000000000000000000000000005D
:1053500000000000600660066006600661866386E5
:1053600073C673CE766C366C3C3C3C3C381C0000FB
:10537000000000000000000000000000000000002D
:1053800000000000301C38181C380E7007E003C005
:1053900003C007E00E701C381838381C700E00006F
:1053A00000000000000000000000000000000000FD
:1053B00000000000700E700C381C1C380E70066067
:1053C00007E003C0018001800180018001800000AE
:1053D00000000000000000000000000000000000CD
:1053E000000000003FFC001C0038007000E001C01D
:1053F000038007000E000C0018003FFC3FFC00007B
:10540000000000000000000000000000000000009C
:1054100007F007F00600060006000600060006007A
:10542000060006000600060006000600060006004C
:105430000600060007F00000000000000000000069
:10544000000018001C000C00060007000300038089
:10545000018001C000C000600070003000380018FA
:10546000000C000000000000000000000000000030
:105470000FE00FE00060006000600060006000600E
:10548000006000600060006000600060006000601C
:10549000006000600FE0000000000000000000005D
:1054A0000000000003C006C006600C301818301C55
:1054B00000000000000000000000000000000000EC
:1054C00000000000000000000000000000000000DC
:1054D00000000000000000000000000000000000CC
:1054E00000000000000000000000000000000000BC
:1054F00000000000FFFF00000000000000000000AE
:1055000000001E00038000000000000000000000FA
:10551000000000000000000000000000000000008B
:10552000000000000000000000000000000000007B
:10553000000000000000000000001FF01038001CF8
:10554000001C0FFC1C1C381C381C3CFC1FDC000021
:10555000000000000000000000000000000000004B
:10556000000038003800380038003BF83E1C3C1C76
:10557000380C380C380C380C381C3C781FE0000014
:10558000000000000000000000000000000000001B
:105590000000000000000000000007F80E001C00E2
:1055A00038003800380038001C000F1807F80000D9
:1055B00000000000000000000000000000000000EB
:1055C0000000001C001C001C001C0FFC1C1C381CD4
:1055D000301C301C301C301C383C1CFC0F9C000064
:1055E00000000000000000000000000000000000BB
:1055F000000000000000000000000FF01C38381C04
:10560000300C3FFC3000300038001E0C07FC00005E
:10561000000000000000000000000000000000008A
:10562000003C01FE03800300030003007FFC7FFCBD
:105630000300030003000300030003000300000055
:10564000000000000000000000000000000000005A
:10565000000000000000000000000FFE1C38381899
:10566000381818381FF03B8030003FF01FFC300E18
:10567000700E381C1FF80000000000000000000041
:10568000000038003800380038003BF83E383C1C39
:10569000381C381C381C381C381C381C381C0000BE
:1056A00000000000000000000000000000000000FA
:1056B000018003C003C0000000001FC001C001C082
:1056C00001C001C001C001C001C001C03FFC000019
:1056D00000000000000000000000000000000000CA
:1056E000002000700070000000003FF000700070AB
:1056F000007000700070007000700070007000702A
:10570000007020E03FC0000000000000000000002A
:1057100000001800180018001800183C187018E055
:105720001B801F001B8019E018701838181C00001F
:105730000000000000000000000000000000000069
:1057400000001FC001C001C001C001C001C001C0F4
:1057500001C001C001C001C001C001C03FFC000088
:105760000000000000000000000000000000000039
:10577000000000000000000000006F3C79EE71CED8
:10578000718E718E718E718E718E718E718E000020
:105790000000000000000000000000000000000009
:1057A000000000000000000000003BF83E383C1CF8
:1057B000381C381C381C381C381C381C381C00009D
:1057C00000000000000000000000000000000000D9
:1057D000000000000000000000000FF01C3C381C1E
:1057E000700E700E700E700C381C1E780FE00000EA
:1057F00000000000000000000000000000000000A9
:10580000000000000000000000003BF83E1C3C1CB3
:10581000380C380C380C380C381C3C783FE0380019
:1058200038003800380000000000000000000000D0
:10583000000000000000000000000FFC1C1C381CD1
:10584000301C301C301C301C383C1CFC0F9C001CD5
:10585000001C001C001C00000000000000000000F4
:105860000000000000000000000019F81F1C1C0CC4
:10587000180E180018001800180018001800000072
:105880000000000000000000000000000000000018
:10589000000000000000000000000FF81C001800CD
:1058A0001E000FC001F80018001818381FF0000083
:1058B00000000000000000000000000000000000E8
:1058C000000000000600060006007FFC060006003F
:1058D00006000600060006000700078401FC000021
:1058E00000000000000000000000000000000000B8
:1058F00000000000000000000000381C381C381CAC
:10590000381C381C381C381C383C1CFC0FDC0000D0
:105910000000000000000000000000000000000087
:1059200000000000000000000000700C381C381857
:105930001C380C300E70066007E003C003C0000086
:105940000000000000000000000000000000000057
:105950000000000000000000000060066006618694
:10596000738E73CC33CC366C366C3C3C3C380000C8
:105970000000000000000000000000000000000027
:1059800000000000000000000000381C1C380E70F1
:1059900007E003C003C007E00E701C38381E00008B
:1059A00000000000000000000000000000000000F7
:1059B00000000000000000000000700C381C3818C7
:1059C0001C380C300E70066007E003C003C0038073
:1059D00007000E007C000000000000000000000036
:1059E000000000000000000000001FF800380070F8
:1059F00000E001C0038007000C001FFC3FFC00001A
:105A00000000000000000000000000000000000096
:105A1000007801F803800380038003800380030083
:105A20003F003E0003000380038003800380038067
:105A3000038001C000F80000000000000180018028
:105A4000018001800180018001800180018001804E
:105A5000018001800180018001800180018001803E
:105A600001800180018000000000000000000000B3
:105A70001E001F80018001C001C001C001C000C024
:105A800000FC007C00C001C001C001C001C001C019
:105A900001C003801F0000000000000000000000A3
:105AA00000000000000000000000000000001C00DA
:105AB0003F0671CE60FC0000000000000000000006
:105AC00000000000000000000000000000000000D6
:105AD00000000000000000000000000000000000C6
