:020000040800F2
:100000008807002045010008311D0008A9120008DA
:10001000E31C0008890B0008592C000800000000B0
:10002000000000000000000000000000391F000870
:10003000A90C000800000000011E00087D20000837
:100040005F0100085F0100085F0100085F01000810
:100050005F0100085F0100085F0100085F01000800
:100060005F0100085F0100085F0100085F010008F0
:100070005F0100085F0100085F0100085F010008E0
:100080005F0100085F0100085F0100085F010008D0
:100090005F0100085F0100085F0100085F010008C0
:1000A0005F0100085F0100085F0100085F010008B0
:1000B0005F010008B1220008612300085F01000809
:1000C0005F0100085F0100085F0100085F01000890
:1000D0005F0100085F0100085F010008592900085E
:1000E0005F0100085F0100085F0100085F01000870
:1000F0005F0100085F0100085F0100085F01000860
:100100005F0100085F0100085F0100085F0100084F
:100110005F010008A52800085F0100085F010008D2
:100120005F0100085F0100085F0100085F0100082F
:10013000DFF80CD000F076FB00480047452E0008A1
:10014000880700200648804706480047FEE7FEE78C
:10015000FEE7FEE7FEE7FEE7FEE7FEE7FEE7FEE777
:100160003921000831010008D2B201E000F8012B6A
:10017000491EFBD270470022F6E710B513460A4627
:1001800004461946FFF7F0FF204610BDF0B480EAA0
:100190000102D40F4200B2EB410F02D202460846E0
:1001A00011464A0042D0C30DDDB2C1F3C752AD1AA9
:1001B000202D35DAC1F3160141F4000204B1524298
:1001C000C5F1200602FA06F12A411044B3EBD05FD4
:1001D00023D0C4B1012DA0EBC35009DCF0BC4FF01B
:1001E000004202EAC352DBB200F5000000F08EBA12
:1001F000400000F1807000EBC350A0F1807040EA35
:10020000D170490009E0490841EAC071A0EBC35030
:1002100000F50000400800EBC350F0BC00F06DBAE0
:100220006142012202EB4101001BF6E7F0BC70477E
:1002300081F00041AAE780F00040A7E780EA0102D0
:1002400010B502F00043400022D04A001FD0010E3A
:1002500001EB1261C0F35600C2F3560240F40000F5
:1002600042F40002A0FB022000047F39140400D0F5
:10027000401C50EA124001D44000491EC2B20C0694
:1002800004EBD010401C4008802A02D003E000207C
:1002900010BD20F00100002900DA0020184310BD35
:1002A00030B480EA010202F0004530F0004221F053
:1002B000004013D090B1C30DD40DC2F31601C0F3AA
:1002C0001600E41A41F4000140F400027D3491422A
:1002D00001D3641C00E04900002C02DA30BC00208D
:1002E00070474FF400000023914201D3891A034361
:1002F00040084FEA4101F7D151B1914202D14FF08C
:10030000004105E002D24FF0010101E06FF0010170
:1003100003EBC450284430BC00F0EFB92DE9FE4F88
:10032000804681EA0300C00F0C46009021F0004196
:1003300023F00045B8EB0200A94105D24046214612
:1003400090461C460B46024623F00040104347D01F
:10035000270DC7F30A00C3F30A510290401A019017
:1003600040286BDAC3F3130040F4801B00989246D8
:1003700020B10023D2EB030A63EB0B0B0198594623
:10038000C0F14002504600F087F906460D4650463F
:100390005946019A00F09FF910EB080061410024D2
:1003A00087EA115284EAE7731A4340D0009A62B395
:1003B000019A012A4FEA075215DC001B61EB02018A
:1003C0004FF0004202EA0752CDE90042001C41F51D
:1003D000801132462B4600F0D6F903B0BDE8F08F0D
:1003E00040462146F9E7001B61EB0201001C41F584
:1003F000801300185B412018A2F5001747EB03019A
:1004000040EAD570B6196D4111E06D084FEA360625
:1004100045EAC0754FEA0752001B61EB0201001C60
:1004200041F5801149084FEA300000195141324628
:100430002B4603B0BDE8F04F00F096B900980122BA
:1004400040000023D0EB020263EBE07300982146EA
:100450004FEAE074B8EB000061EB0401E9E783F0D8
:1004600000435BE781F0004158E72DE9FE4F81EA48
:10047000030404F0004421F0004100944FF0000B0D
:1004800023F0004350EA01045ED052EA03045BD03B
:10049000C3F30A54C1F30A552C44A4F2F334019473
:1004A000A0FB0254C1F3130141F48011C3F3130301
:1004B00043F4801301FB024400FB034E840A970AB5
:1004C00044EA815447EA8357A4FB076802958D0AE2
:1004D00005FB07854FEA932C04FB0C542705029D6E
:1004E0004FEA065847EA1637B5EB08056EEB070CDE
:1004F000870E920E47EA811742EA8312A7FB020198
:10050000B6EB0B0164EB00042B0D43EA0C335E18D1
:1005100044EB1C50DA465146E7FB0201C5F31304D5
:100520004FEA0B3343EA14534FEA0432019C43EA87
:100530000603A4F10C040294009CCDE900B400F081
:1005400022F903B0BDE8F08F00200146F9E72DE95C
:10055000F04D81EA030404F0004B21F000451446FD
:100560004FF0000A23F0004150EA050220D054EA7F
:1005700001021DD0C5F30A570246C5F31303C1F3A8
:100580001300C1F30A5640F4801543F48013A7EB1F
:100590000608101BD64608F2FD3873EB050002D39F
:1005A00008F1010801E092185B41B8F1000F03DA8D
:1005B00000200146BDE8F08D00204FF48011064672
:1005C00084460EE0171B73EB050705D3121B63EB84
:1005D000050306434CEA010C49084FEA3000921823
:1005E0005B4150EA0107EDD152EA030012D082EAE2
:1005F000040083EA0501084305D0101BAB4106D275
:100600000122002306E000224FF0004302E06FF0D9
:10061000010253101AEB06004CEB085110EB0A00D4
:1006200041EB0B01BDE8F04D00F09EB8C10F80EA30
:10063000E0700844CA079623002100F067B80EB5A1
:10064000C10F80EAE0700844CA07002140F233433A
:100650008DE80E000A460B4600F095F803B000BD89
:1006600001F0004330B421F0004150EA010206D00D
:100670000A0DA2F56072C1F31301002A02DC30BC3E
:1006800000207047440F44EAC104C100E01830BCA8
:1006900000EBC25000F031B8202A04DB203A00FA07
:1006A00002F1002070479140C2F1200320FA03F3C9
:1006B000194390407047202A04DB203A21FA02F0C7
:1006C0000021704721FA02F3D040C2F1200291408C
:1006D000084319467047202A06DBCB17203A41FA17
:1006E00002F043EAE07306E041FA02F3D040C2F1BF
:1006F000200291400843194670470029A8BF70475F
:10070000401C490008BF20F00100704710B4B0FA47
:1007100080FC00FA0CF050EA010404BF10BC7047E2
:1007200049B1CCF1200421FA04F411FA0CF118BFFC
:10073000012121430843A3EB0C01CB1D4FEA0061CB
:100740004FEA102042BF002010BC704700EBC3509E
:1007500010440029A4BF10BC7047401C490008BFCA
:1007600020F0010010BC704710B5141E73F1000496
:1007700008DA401C41F1000192185B411A4301D193
:1007800020F0010010BD2DE9F04D92469B4611B1BD
:10079000B1FA81F202E0B0FA80F220329046FFF71F
:1007A0007BFF04460F4640EA0A0041EA0B0153462C
:1007B0005A46084313D0114653EA010019D0C8F134
:1007C00040025046FFF777FF05460E465046594611
:1007D0004246FFF761FF084305D0012004E02046B0
:1007E0003946BDE8F08D0020054346EAE0762C430B
:1007F00037430A986305E40AA0EB08000022FD0ACB
:1008000044EA47540A3002D500200146E9E70105D1
:1008100010196941DDE9084500196941BDE8F04D4D
:10082000A2E70000064C074D06E0E06840F0010337
:1008300094E8070098471034AC42F6D3FFF77CFCED
:100840009C6A0008BC6A000808B50121102001F06C
:10085000F9FA4020ADF8000018208DF803000320BD
:100860008DF8020069462E4800F074FC012110202A
:1008700001F0E8FA4020ADF8000004208DF80300F4
:1008800003208DF802006946264800F063FC012130
:10089000102001F0D7FA4FF48070ADF80000182056
:1008A0008DF8030003208DF8020069461C4800F013
:1008B00051FC0121102001F0C5FA4020ADF80000E4
:1008C00004208DF8030003208DF8020069461648C5
:1008D00000F040FC0121042001F0B4FA4FF48070D4
:1008E000ADF8000018208DF8030003208DF80200F9
:1008F00069460C4800F02EFC0121042001F0A2FA08
:100900004FF40060ADF8000018208DF803000320BC
:100910008DF802006946034800F01CFC08BD000089
:100920000010014000080140000C014010B5FFF725
:100930008BFF00F00FF900F001F810BD00B58BB08F
:100940000121480301F07EFA0121022001F06AFA38
:100950000121480301F076FA0121042001F062FA36
:100960000121C80201F06EFA0121C80201F06AFA01
:10097000FF20ADF824000020ADF82000ADF82600DF
:10098000ADF822008DF8280008A96E4801F038FF64
:1009900008A96C4801F034FF08A96B4801F030FF4A
:1009A00008A9694801F02CFF40F2E730ADF82400B7
:1009B0004720ADF8200008A9644801F021FF08A9EC
:1009C000634801F01DFF6020ADF810000120ADF874
:1009D00012000420ADF814006420ADF816000020C9
:1009E000ADF81800ADF81A004FF48070ADF81C0097
:1009F0000020ADF81E0004A9524801F037FD04A9FB
:100A0000524801F089FD04A94E4801F0E5FD04A912
:100A10004F4801F03BFE04A94B4801F027FD04A913
:100A2000494801F033FE0821464801F06BFD0821DA
:100A3000464801F0C3FD0821424801F01DFE08218F
:100A4000434801F061FE08213F4801F05BFD0821A9
:100A50003D4801F059FE0020ADF80400ADF8060055
:100A60000120ADF808000020ADF80A00ADF80C0038
:100A700001A9364801F055FE5021344801F08FFE9F
:100A80000421324801F09DFE8021304801F090FEA3
:100A9000012202212D4801F0DFFC02212B4801F048
:100AA000B7FC0121294801F0B6FC0020ADF8040094
:100AB000ADF806000120ADF808000020ADF80A00EE
:100AC000ADF80C0001A9224801F02BFE502120486E
:100AD00001F065FE04211E4801F073FE80211C48D0
:100AE00001F066FE01220221194801F0B5FC022145
:100AF000174801F08DFC0121154801F08CFC012103
:100B0000104801F088FC01210E4801F084FC01210D
:100B10000D4801F080FC01210B4801F07CFC012113
:100B2000084801F084FC0121064801F080FC012105
:100B3000054801F07CFC0121034801F078FC0BB072
:100B400000BD000000340140002C014000040040C2
:100B50000008004008B54FF4A06001F047F91D20DF
:100B60008DF8000000208DF801008DF802000120B2
:100B70008DF80300684601F001F91E208DF8000091
:100B8000684601F0FBF808BD00BFFEE73A490A7865
:100B90000978491C384B1970384988540978552907
:100BA00003D000211A4611707047334909780B2988
:100BB00000DAF9E73149497850390A2956D2DFE895
:100BC00001F0050D151D252D353D454D2C492B4AB0
:100BD000921C13680B6052684A6047E02949274A13
:100BE000921C13680B6052684A603FE02649234A12
:100BF000921C13680B6052684A6037E023491F4A11
:100C0000921C13680B6052684A602FE020491B4A0F
:100C1000921C13680B6052684A6027E01D49174A0E
:100C2000921C13680B6052684A601FE01A49134A0D
:100C3000921C13680B6052684A6017E017490F4A0C
:100C4000921C13680B6052684A600FE014490B4A0B
:100C5000921C13680B6052684A6007E01149074A0A
:100C6000921C13680B6052684A6000BF00BF0021ED
:100C7000014A117000BF97E705010020880200209B
:100C80007E000020860000208E00002096000020BC
:100C90009E000020A6000020B0000020B800002028
:100CA000C0000020C80000207047000051B1820041
:100CB000A2F1C042126842F001038200A2F1C042D8
:100CC000136009E08200A2F1C0421268034B1A408F
:100CD0008300A3F1C0431A6070470000FEFF0F00BD
:100CE000D0E901121143C2681143026911434269FC
:100CF000114382691143C2691143026A1143426A76
:100D00001143826A1143C26A1143026B11430268A4
:100D10009200A2F1C0421160816808290BD10168DC
:100D20008900A1F1C041096841F0400201688900D1
:100D3000A1F1C0410A60416B0968426B526841EA07
:100D40000211426B926841EA0221426B928941EAA8
:100D50000241426B128A41EA0251426B127D41EA22
:100D60000261426B926911430268521C9200A2F127
:100D7000C0421160C16AB1F5804F1BD1816B096817
:100D8000826B526841EA0211826B926841EA022149
:100D9000826B128A41EA0251826B127D41EA026142
:100DA000826B9269114302689200A2F1C042C2F8BC
:100DB000041107E06FF0704201688900A1F1C041A1
:100DC000C1F804217047000008B50121102001F08E
:100DD00039F80121202001F035F80121080201F045
:100DE00031F80121042001F02DF80121082001F043
:100DF00029F80121082001F025F80121082001F03F
:100E000021F80121402001F01DF80121802001F08E
:100E100019F80121080201F015F80121042001F060
:100E200011F80121802001F00DF80121802001F04E
:100E300009F80121102001F005F80121802001F0BE
:100E400001F80121802000F0FDFF0121802000F049
:100E5000F9FF0121802000F0F5FF0121802000F042
:100E6000F1FF0121080200F0EDFF0121080200F06E
:100E7000E9FF0121082000F0E5FF0121082000F032
:100E8000E1FF0121080200F0DDFF0121082000F050
:100E9000D9FF0121202000F0D5FF0121202000F002
:100EA000D1FF0121082000F0CDFF0121402000F0FA
:100EB000C9FF0121402000F0C5FF0121202000F0E2
:100EC000C1FF0121202000F0BDFF0121202000F002
:100ED000B9FF0121202000F0B5FF0121080200F038
:100EE000B1FF4FF48060ADF8000014208DF80300CE
:100EF00003208DF8020069468B4800F02BF9802012
:100F0000ADF800006946894800F024F94FF48040AC
:100F1000ADF800006946864800F01CF904208DF801
:100F200003000120ADF800006946824800F012F984
:100F300010208DF803002020ADF8000069467E489F
:100F400000F008F90120ADF8000069467A4800F089
:100F500001F90220ADF800006946774800F0FAF880
:100F600004208DF803000220ADF8000069467348A4
:100F700000F0F0F84FF40060ADF8000069467048EA
:100F800000F0E8F84FF48060ADF80000694668486A
:100F900000F0E0F84FF48050ADF800006946654875
:100FA00000F0D8F88020ADF800006946644800F0F1
:100FB000D1F84020ADF800006946614800F0CAF859
:100FC0000220ADF800006946574800F0C3F8012040
:100FD000ADF8000069465A4800F0BCF80420ADF8AE
:100FE00000006946564800F0B5F81020ADF8000042
:100FF0006946534800F0AEF84FF48050ADF8000059
:1010000069464F4800F0A6F84FF48040ADF8000064
:1010100069464B4800F09EF84FF40050ADF80000D0
:101020006946464800F096F80420ADF8000069468D
:101030003F4800F08FF84FF40050ADF800006946CB
:101040003D4800F087F84FF40040ADF800006946D5
:10105000394800F07FF84FF40040ADF800006946D1
:10106000334800F077F84FF40070ADF8000069469F
:10107000314800F06FF84020ADF8000069462B4879
:1010800000F068F80820ADF800006946274800F035
:1010900061F84FF48070ADF800006946264800F012
:1010A00059F84FF40070ADF800006946234800F08D
:1010B00051F88020ADF800006946204800F04AF859
:1010C0000120ADF800006946184800F043F84FF4DD
:1010D0008040ADF800006946144800F03BF84FF43A
:1010E0000050ADF800006946104800F033F84FF4A6
:1010F0000060ADF8000069460C4800F02BF81020A5
:10110000ADF8000069460A4800F024F820210A489A
:1011100000F0C8F80121084800F0C4F80221064890
:1011200000F0C0F808BD00000010014000140140AC
:101130000020014000080140000C0140001801405F
:10114000001C014070B504460D462946204600F0BB
:10115000A9F870BD2DE9F0410246002500260020C7
:1011600000230024002791F803C00CF00F0591F82C
:1011700003C00CF0100CBCF1000F03D091F802C0BA
:101180004CEA050591F800C0BCF1000F31D014689D
:1011900000202BE04FF0010C0CFA00F3B1F800C076
:1011A0000CEA03069E4220D183004FF00F0C0CFA8C
:1011B00003F7BC4305FA03FC4CEA040491F803C0AE
:1011C000BCF1280F06D14FF0010C0CFA00FCC2F85C
:1011D00014C00AE091F803C0BCF1480F05D14FF0EC
:1011E000010C0CFA00FCC2F810C0401C0828D1D336
:1011F0001460B1F800C0BCF1FF0F34DD546800206A
:101200002EE000F1080C4FF0010808FA0CF3B1F8D9
:1012100000C00CEA03069E4221D183004FF00F0C60
:101220000CFA03F7BC4305FA03FC4CEA040491F8FA
:1012300003C0BCF1280F05D100F1080C08FA0CF826
:10124000C2F8148091F803C0BCF1480F07D100F137
:10125000080C4FF0010808FA0CF8C2F81080401C86
:101260000828CED35460BDE8F08170B504460D4621
:101270002946204600F014F870BD70B504460D46AE
:101280002946204600F003F80646304670BD024667
:10129000002093680B400BB1012000E00020704754
:1012A000416170470161704700BFFEE710B5044619
:1012B00024B140210448FFF7F3FF03E04021024836
:1012C000FFF7F0FF10BD0000002001402DE9F041C4
:1012D00006460F4614461D462B46224639463046E2
:1012E00000F0AEF904FB05F00249098800F046F869
:1012F000BDE8F081EA00002001B502E00098401E40
:10130000009000980028F9D108BD00B597B03C21A5
:1013100008A8FEF730FF1C2101A8FEF72CFF0121D1
:10132000080200F06FFD0120019004200390800668
:1013300007900020029004900590069006200890E7
:101340000020099008200A9010200B9000200C909B
:101350000E900F9010904FF480501190002012903A
:101360001390149001A81590169008A8FFF7B8FCE8
:1013700001210620FFF79AFC17B000BD70B50446A6
:101380000D4600262C2000F007FC00BF03E0284695
:1013900000F006FC761CA642F9D370BD08B5012109
:1013A0004FF4B07000F04EFD03208DF802001820BD
:1013B0008DF803004FF48040ADF8000069465B48AB
:1013C000FFF7C8FE4FF40040ADF8000069465748EB
:1013D000FFF7C0FE0120ADF8000069465348FFF753
:1013E000B9FE0220ADF8000069465048FFF7B2FE92
:1013F0008020ADF8000069464D48FFF7ABFE4FF482
:101400008070ADF8000069464948FFF7A3FE4FF42D
:101410000070ADF8000069464548FFF79BFE4FF4A9
:101420008060ADF8000069464148FFF793FE4FF435
:101430000060ADF8000069463D48FFF78BFE4FF4B1
:101440008050ADF8000069463948FFF783FE4FF43D
:101450000050ADF8000069463548FFF77BFE4FF4B9
:101460008040ADF8000069463148FFF773FE4FF445
:101470000040ADF8000069462D48FFF76BFE4FF4C1
:101480008070ADF8000069462848FFF763FE4FF40E
:101490000070ADF8000069462448FFF75BFE4FF48A
:1014A0008060ADF8000069462048FFF753FE032036
:1014B0008DF8020018208DF803001020ADF8000010
:1014C00069461A48FFF746FE2020ADF8000069463D
:1014D0001648FFF73FFE4FF48050ADF80000694614
:1014E0001448FFF737FE0420ADF8000069461048A5
:1014F000FFF730FE10208DF8030003208DF8020066
:101500004FF40060ADF8000069460A48FFF722FE7C
:1015100010208DF8030003208DF802004020ADF864
:10152000000069460348FFF715FE08BD001401409E
:10153000001801400020014010B50446072C00DDD2
:1015400010BD31480470204604EBD0714910A4EB63
:10155000410139B9F0202D4908804FF4A0702C4981
:10156000088006E04FF4A07028490880F020284940
:101570000880362000F010FB2648008849F24131EF
:10158000884205D1082141EA441000F009FB0AE035
:101590002048008848F25251884204D1002141EA93
:1015A000441000F0FDFA2A2000F0F6FA002000F0C6
:1015B000F7FA002000F0F4FA14490988491EC1F333
:1015C000072000F0EDFA11490978491EC8B200F071
:1015D000E7FA2B2000F0E0FA002000F0E1FA00200A
:1015E00000F0DEFA0A490988491EC1F3072000F01D
:1015F000D7FA07490978491EC8B200F0D1FA2C2061
:1016000000F0CAFA00BF9BE7E0000020DC000020E9
:10161000DE000020E200002010B5FFF7BFFEFFF75C
:1016200074FE0120FFF742FE00F0A0FA00F038F847
:1016300002480078FFF780FF10BD0000E0000020A6
:101640002DE9F04104460D4616461F462A2000F0BB
:10165000A3FA201200F0A4FAE0B200F0A1FAA11956
:10166000491EC1F30F2000F09BFAA119491EC8B210
:1016700000F096FA2B2000F08FFA281200F090FA72
:10168000E8B200F08DFAE919491EC1F30F2000F00D
:1016900087FAE919491EC8B200F082FABDE8F08164
:1016A00010B500F025FAFE4908800846008849F286
:1016B000413188427ED1CF2000F06EFA002000F048
:1016C0006FFA812000F06CFA302000F069FAED200A
:1016D00000F062FA642000F063FA032000F060FA80
:1016E000122000F05DFA812000F05AFAE82000F0A4
:1016F00053FA852000F054FA102000F051FA7820B7
:1017000000F04EFACB2000F047FA392000F048FAFA
:101710002C2000F045FA002000F042FA342000F0BE
:101720003FFA032000F03CFAF72000F035FA2020C1
:1017300000F036FAEA2000F02FFA002000F030FA2C
:10174000002000F02DFAB12000F026FA002000F071
:1017500027FA1B2000F024FAB62000F01DFA0A2018
:1017600000F01EFAA22000F01BFAC02000F014FACC
:10177000352000F015FAC12000F00EFA112000F01B
:101780000FFAC52000F008FA452000F009FA4520BC
:1017900000F006FAC72000F0FFF9A22000F000FADE
:1017A000F22000F0F9F9002000F0FAF9262000F00C
:1017B000F3F900E096E0012000F0F2F9E02000F0FB
:1017C000EBF90F2000F0ECF9262000F0E9F92420D5
:1017D00000F0E6F90B2000F0E3F90E2000F0E0F94C
:1017E000092000F0DDF9542000F0DAF9A82000F01B
:1017F000D7F9462000F0D4F90C2000F0D1F91720D9
:1018000000F0CEF9092000F0CBF90F2000F0C8F964
:10181000072000F0C5F9002000F0C2F9E12000F037
:10182000BBF9002000F0BCF9192000F0B9F91B2029
:1018300000F0B6F9042000F0B3F9102000F0B0F980
:10184000072000F0ADF92A2000F0AAF9472000F0A7
:10185000A7F9392000F0A4F9032000F0A1F906202F
:1018600000F09EF9062000F09BF9302000F098F976
:10187000382000F095F90F2000F092F9362000F0A2
:101880008BF9C82000F08CF92A2000F085F900209F
:1018900000F086F9002000F083F9002000F080F9C4
:1018A000EF2000F07DF92B2000F076F9002000F009
:1018B00077F9002000F074F9012000F071F93F2061
:1018C00000F06EF93A2000F067F9552000F068F951
:1018D000112000F061F97348FFF70EFD292000F098
:1018E0005BF901E16E48008848F252518842F8D114
:1018F000CF2000F051F9002000F052F9C12000F093
:101900004FF9302000F04CF9ED2000F045F964204B
:1019100000F046F9032000F043F9122000F040F9EE
:10192000812000F03DF9E82000F036F9852000F034
:1019300037F9102000F034F9782000F031F9CB208D
:1019400000F02AF9392000F02BF92C2000F028F9BA
:10195000002000F025F9342000F022F9022000F0E8
:101960001FF9F72000F018F9202000F019F9EA20FB
:1019700000F012F9002000F013F9002000F010F937
:10198000C02000F009F9212000F00AF9C12000F080
:1019900003F9112000F004F9C52000F0FDF82D2016
:1019A00000F0FEF8332000F0FBF8362000F0F4F8E9
:1019B000002000F0F5F83A2000F0EEF8552000F095
:1019C000EFF8B12000F0E8F8002000F0E9F8172067
:1019D00000F0E6F8B62000F0DFF80A2000F0E0F8AA
:1019E000A22000F0DDF8F62000F0D6F8012000F08B
:1019F000D7F8302000F0D4F8F22000F0CDF8002025
:101A000000F0CEF8262000F0C7F8012000F0C8F85A
:101A1000E02000F0C1F8D02000F0C2F8002000F073
:101A2000BFF8022000F0BCF8072000F0B9F80B2046
:101A300000F0B6F81A2000F0B3F8312000F0B0F84A
:101A4000542000F0ADF8402000F0AAF8292000F062
:101A5000A7F8122000F0A4F8122000F0A1F812203C
:101A600000F09EF8172000F09BF8E12000F094F8B9
:101A7000D02000F095F8002000F092F8022000F04D
:101A80008FF8072000F08CF8052000F089F8252059
:101A900000F086F82D2000F083F8442004E00000D8
:101AA000E2000020FCBF020000F07AF8452000F0C0
:101AB00077F81C2000F074F8182000F071F8162058
:101AC00000F06EF81C2000F06BF81D2000F068F8A4
:101AD000112000F061F80548FFF70EFC292000F006
:101AE0005BF82C2000F058F810BD0000FCBF02008D
:101AF00010B50024042000F04FF800BF4FF0DA408A
:101B0000008800BF4FF0DA40008800F02BF8044650
:101B10004FF6FF7000EA042400F024F8044348F272
:101B20005250844201D1204610BDD32000F034F839
:101B300000BF4FF0DA40008800BF4FF0DA40008865
:101B400000F010F804464FF6FF7000EA042400F09D
:101B500009F8044349F24130844201D12046E3E7C9
:101B60000020E1E74FF0DA400088704710B54FF4ED
:101B700000610848FFF794FB40F6FF20FFF7BCFB2D
:101B80004FF400610348FFF78DFB40F6FF20FFF79D
:101B9000B3FB10BD002001404FF0D84108807047D2
:101BA0004FF0DA4108807047014908807047000013
:101BB000EA000020024A1080024A118070470000AB
:101BC000E8000020EA00002001490860704700009A
:101BD000E40000201CB5044606226946432000F0BC
:101BE0003DF89DF801009DF8001040EA012000B288
:101BF00020809DF803009DF8021040EA012000B209
:101C000060809DF805009DF8041040EA012000B2B4
:101C1000A0801CBD70B50024002500BF06E0002593
:101C200000E06D1CB5F57A7FFBDB641CB4F57A7FB0
:101C3000F5DB00216B2000F03DF80721192000F0B2
:101C400039F806211A2000F035F800211C2000F098
:101C500031F818211B2000F02DF870BD2DE9F0415E
:101C600007460C46154601F0A7F8D02001F07AF897
:101C700001F0CAF8384601F075F801F0C5F801F036
:101C80009BF8D12001F06EF801F0BEF8002606E0C6
:101C9000012001F03FF82070641C701CC6B2681E61
:101CA000B042F5DC002001F035F8207001F09CF81E
:101CB000BDE8F08170B505460C4601F07DF8D020F6
:101CC00001F050F801F0A0F8284601F04BF801F0BF
:101CD0009BF8204601F046F801F096F801F084F8F0
:101CE00070BD00BFFEE7000070B506460C46154605
:101CF0001F2E01DC002C00DC70BD55200B49487004
:101D00000870082088700320C870012008714C7189
:101D1000201288710846C6710D72281248720A2175
:101D2000024800F081FF00BFE6E700000802002043
:101D3000704708B54FF4A06000F058F825208DF8E2
:101D4000000001208DF801008DF802008DF80300DD
:101D5000684600F013F84FF4A06000F047F8272021
:101D60008DF8000001208DF801008DF802008DF83B
:101D70000300684600F002F808BD000070B50021BD
:101D800000230F22C47804B3154C246804F4E064E3
:101D9000C4F5E064210AC1F10403CA40447804FA9E
:101DA00003F184781440214309010E4C0678A155B3
:101DB000047804F01F050124AC4005786D11AD00D6
:101DC00005F1E025C5F8004109E0047804F01F059D
:101DD0000124AC40044D0678761145F8264070BDCC
:101DE0000CED00E000E400E080E100E00249014386
:101DF000024A1160704700000000FA050CED00E097
:101E00007047000029B1064A52690243044B5A61E7
:101E100004E0034A52698243014B5A617047000053
:101E20000010024029B1064AD2690243044BDA612C
:101E300004E0034AD2698243014BDA617047000033
:101E40000010024029B1064A92690243044B9A618C
:101E500004E0034A92698243014B9A617047000093
:101E60000010024030B500210022002400232D4D37
:101E70006D6805F00C0121B1042905D0082923D192
:101E800005E0294D056022E0274D05601FE0254D46
:101E90006D6805F47012234D6D6805F480340225D9
:101EA00005EB92421CB9214D554305600BE01D4DD9
:101EB0006D6805F400351DB11C4D5543056002E009
:101EC000194D5543056002E0174D056000BF00BF86
:101ED000144D6D6805F0F0010909154D6B5C05683E
:101EE000DD4045600F4D6D6805F4E061090A104D55
:101EF0006B5C4568DD4085600A4D6D6805F4605196
:101F0000C90A0B4D6B5C4568DD40C560054D6D68C9
:101F100005F44041890B074D6B5CC568B5FBF3F5D3
:101F2000056130BD0010024000127A0000093D003A
:101F30001400002024000020704710B500F002F8C3
:101F400010BD00000CB500200190009033480068DF
:101F500040F480303149086000BF3048006800F428
:101F6000003000900198401C0190009818B9019829
:101F7000B0F5A06FF1D12948006800F4003010B12D
:101F80000120009001E0002000900098012843D13A
:101F90002348006840F010002149086008460068A6
:101FA00020F0030008600846006840F00200086066
:101FB0001A48406819494860084640684860084621
:101FC000406840F4806048600846406820F47C1017
:101FD00048600846406840F4E810486008460068D9
:101FE00040F08070086000BF0C48006800F000708E
:101FF0000028F9D00948406820F0030007494860EC
:102000000846406840F00200486000BF034840684E
:1020100000F00C000828F9D10CBD000000100240AF
:10202000002002400180704730B50146B1F1807F49
:1020300001D3012030BD21F07F40401E4FF0E0224F
:10204000506150170F22002807DA13071D0E094BA5
:1020500000F00F04241F1D5503E013071C0E064B50
:102060001C5400BF00204FF0E02290610720106157
:102070000020DFE718ED00E000E400E02DE9F05F6C
:102080001948006870BB1948FFF7A4FD1749B1F95A
:102090000400FEF7D4FA80464FF03332144BFEF7BB
:1020A000DEF906464FF0C042124BFEF750FA0446E6
:1020B0004FF0C042104BFEF7D8F98246FEF7D0FA37
:1020C0000E4908600E490D480068FEF7B7F804464F
:1020D0000C4801682046FEF759F80A4908600120BB
:1020E00001490860BDE8F09FD000002046000020B4
:1020F00033F336406666304066660C405800002078
:102100006F12833A6C00002010B50A4800684FF443
:102110007A71B0FBF1F42046FFF786FF08B100BFEB
:10212000FEE74FF0E020006940F001004FF0E021B1
:10213000086110BD0000002010B51348006840F091
:1021400001001149086008464068104908400E49DE
:102150004860084600680E4908400B490860084678
:10216000006820F4802008600846406820F4FE00E3
:1021700048604FF41F008860FFF7DFFE4FF00060FB
:102180000449086010BD0000001002400000FFF884
:10219000FFFFF6FE08ED00E0F0B50C461546002204
:1021A0000021068C4FF6FE773E400684028B018CA0
:1021B0004FF60C7632407E1C06EA03162E4332435D
:1021C000104EB0420ED0104EB0420BD0B0F1804F46
:1021D00008D00E4EB04205D00D4EB04202D00D4E8A
:1021E000B04206D14FF6FD76314044F0010631434E
:1021F00005E04FF6F576314044F0010631430283A5
:102200000184F0BD002C0140003401400004004076
:1022100000080040000C0040F0B50C4615460022B6
:1022200000210026078C4FF6EF7C07EA0C07078495
:10223000028B018C4FF6FF7707EA041640F6FF4742
:102240003A404FF6FF7707EA03373A434FF6FF77F6
:1022500007EA05273A43114FB8420ED0104FB84253
:102260000BD0B0F1804F08D00E4FB84205D00E4FC2
:10227000B84202D00D4FB84206D14FF6DF77394051
:1022800046F01007394305E04FF65F77394044F0D8
:102290001007394302830184F0BD0000002C014087
:1022A000003401400004004000080040000C0040E1
:1022B00070B50221234800F0ABF8224800F0C6F8C0
:1022C000214908801F4800F0C4F8204908801E48B2
:1022D000008800B31C480088401CFEF7A7F904469C
:1022E0001A490988491C642201FB02F0FEF79EF995
:1022F00005462146FDF7D4FF1549086012480088BD
:10230000401CFEF793F9044621461248FDF7C8FF2A
:102310001149086010E000200D4908600E4908606E
:1023200020210E48FEF7A1FF01210C48FEF70AFF0D
:1023300002210A48FEF706FF0221024800F068F871
:1023400070BD000000040040D6000020D400002032
:10235000280000204054894C2C000020000C014033
:1023600070B50221234800F053F8224800F06EF8BF
:10237000214908801F4800F06CF8204908801E4859
:10238000008800B31C480088401CFEF74FF9044643
:102390001A490988491C642201FB02F0FEF746F93C
:1023A00005462146FDF77CFF154908601248008864
:1023B000401CFEF73BF9044621461248FDF770FF2A
:1023C0001149086010E000200D4908600E490860BE
:1023D00020210E48FEF749FF01210C48FEF7B2FE0E
:1023E00002210A48FEF7AEFE0221024800F010F872
:1023F00070BD000000080040DA000020D800002076
:10240000300000204054894C34000020000C014072
:10241000CA430282704721B1028842F00102028061
:1024200004E002884FF6FE731A400280704731B113
:10243000B0F8442042F40042A0F8442005E0B0F88F
:102440004420C2F30E02A0F8442070470146888E53
:1024500070470146088F70471AB183890B43838107
:1024600002E083898B4383817047000070B50024AC
:1024700000220023058C4FF6FE7635400584028C41
:102480008388048B4FF68F752C40B51E2C400D8829
:102490002C43751E2A400D892A434D882A43144D2A
:1024A000A8420BD0134DA84208D0134DA84205D026
:1024B000124DA84202D0124DA84213D14FF6F77523
:1024C0002A404D892A434FF6FB752A408D882A43BE
:1024D0004FF6FF652B404FF6FF552B408D892B4360
:1024E000CD892B4383800483CD888586028470BD8B
:1024F000002C0140003401400040014000440140F4
:10250000004801400A460021018B4FF6F77319403D
:10251000114301837047000070B50024002200239E
:10252000058C4FF6EF7635400584028C8388048B4A
:1025300048F6FF752C404FF6FF452C400D884FF6AE
:10254000FF7606EA05252C434FF6DF752A400D89F4
:1025500006EA05152A434D8806EA05152A43154D56
:10256000A84202D0144DA8421DD14FF67F752A40D3
:102570004D894FF6FF7606EA05152A434FF6BF75DB
:102580002A408D8806EA05152A434FF6FF352B4071
:102590004FF2FF752B408D8906EA85052B43CD89C7
:1025A00006EA85052B4383800483CD880587028452
:1025B00070BD0000002C0140003401400A4600219B
:1025C000018B4FF2FF7319404FF6FF7303EA0223AA
:1025D000194301837047000070B5002400220023D6
:1025E000058C4FF6FF6635400584028C8388848B0A
:1025F0004FF68F752C404FF6FC752C400D882C4300
:102600004FF6FF552A400D894FF6FF7606EA05255D
:102610002A434D8806EA05252A43154DA84202D0D3
:10262000144DA8421DD14FF2FF752A404D894FF637
:10263000FF7606EA05252A434FF6FF352A408D88A6
:1026400006EA05252A434EF6FF752B404DF6FF7529
:102650002B408D8906EA05152B43CD8906EA051521
:102660002B4383808483CD888587028470BD0000DE
:10267000002C0140003401400A460021818B4FF6B6
:10268000F7731940114381837047000070B5002231
:1026900000230024058C4EF6FF7635400584038C1C
:1026A0008488828B48F6FF752A404FF6FF452A4002
:1026B0000D884FF6FF7606EA05252A434DF6FF758D
:1026C0002B400D8906EA05352B434D8806EA053572
:1026D0002B430B4DA84202D00A4DA84208D14BF61D
:1026E000FF752C408D894FF6FF7606EA85152C4341
:1026F00084808283CD88A0F84050038470BD0000A0
:10270000002C0140003401400A460021818B4FF229
:10271000FF7319404FF6FF7303EA022319438183C5
:1027200070472DE9F04105460C46002601276088D8
:1027300008B9022600E00026A088012801D102275E
:1027400000E001272088A0B92389A2886188284653
:10275000FFF722FDE188284600F03CF823893A463D
:1027600031462846FFF758FDE188284600F03BF83F
:1027700013E02389A28861882846FFF74DFDE18890
:10278000284600F030F823893A4631462846FFF7BC
:1027900003FDE188284600F01DF8BDE8F0810A46F7
:1027A000002101894FF68F73194011430181704751
:1027B00002894FF67F731A40028102890A4302811F
:1027C000704702894FF6F8731A40028102890A4362
:1027D00002817047028B4FF6F3731A400283028B1B
:1027E0000A4302837047028B4FF2FF331A40028381
:1027F000028B4FF6FF7303EA01231A4302837047EB
:10280000002202881D4B98420ED01D4B98420BD0DF
:10281000B0F1804F08D01B4B984205D01A4B98421C
:1028200002D01A4B984204D14FF68F731A404B884E
:102830001A43174B984207D0164B984204D04FF6D4
:10284000FF431A40CB881A4302808B8883850B880C
:1028500003850A4B98420BD0094B984208D00E4B87
:10286000984205D00D4B984202D00D4B984201D1B1
:102870000B7A03860123838270470000002C0140FD
:10288000003401400004004000080040000C0040FB
:10289000001000400014004000400140004401408E
:1028A0000048014010B540F22771264800F055F865
:1028B00040F22551234800F050F840F2277121489A
:1028C00000F0F2F8E0B1204802780078401C1E4B7E
:1028D00018701E48815C1B4800F0A2F940F2277175
:1028E000184800F03AF818480078194909788842E1
:1028F00022D1002240F22771124800F0FFF81BE0BD
:1029000040F225510F4800F0CFF8A8B1202111481E
:10291000FEF7ABFC01210F48FEF7A7FC02210D4892
:10292000FEF7A3FC07498988C8B2FEF72FF940F2E9
:102930002551044800F011F84FF45871014800F097
:102940000CF810BD005000403800002008010020A5
:1029500039000020000C0140704710B50022002310
:1029600040F66A14A14200D100BF0A12012494402B
:10297000A3B2DC43048010BD21B1828942F400522D
:10298000828104E082894DF6FF731A40828170478C
:1029900000B585B001210420FFF754FA0121880316
:1029A000FFF750FA4FF40070ADF8100018208DF8C2
:1029B000130003208DF8120004A93748FEF7CAFB64
:1029C0004FF48060ADF8100004208DF8130004A9C6
:1029D0003148FEF7BFFB01210820FFF733FA012140
:1029E0008804FFF71FFA4FF48060ADF8100018203C
:1029F0008DF8130003208DF8120004A92748FEF774
:102A0000A9FB4FF40060ADF8100004208DF813000E
:102A100004A92248FEF79EFB4FF4165000900020B8
:102A2000ADF80400ADF80600ADF80800ADF80C00F4
:102A30000C20ADF80A006946194800F085F8FFF748
:102A400078F9012240F22551154800F057F801218C
:102A50001348FFF791FF4FF4165000900020ADF897
:102A60000400ADF80600ADF80800ADF80C000C202D
:102A7000ADF80A0069460B4800F066F8FFF759F90F
:102A8000012240F22551074800F038F8012105489D
:102A9000FFF772FF05B000BD00080140000C0140C7
:102AA000003801400048004070B502460024002371
:102AB0000025002040F66A16B14200D100BFC1F3E4
:102AC000421501F01F03012606FA03F3012D02D17E
:102AD0009689334006E0022D02D1168A334001E088
:102AE000968A33400C12012606FA04F41688344004
:102AF00013B10CB1012000E0002070BDF0B5034619
:102B0000002400260025002040F66A17B94200D1B3
:102B100000BF1846C1F3421401F01F06012707FA4F
:102B200006F5012C01D10C3004E0022C01D110304B
:102B300000E014301AB107682F43076002E007680D
:102B4000AF430760F0BD00002DE9F04786B00546B1
:102B50000E460024A24600BFA1460027B08900B15E
:102B600000BF2F462C8A4CF6FF700440F0880443C7
:102B70002C82AC894EF6F3100440B08831890843AA
:102B8000718908430443AC81AC8A4FF6FF4004408E
:102B9000B0890443AC8201A8FFF764F91F4887425B
:102BA00002D1DDF810A001E0DDF80CA0A88900F446
:102BB000004040B10AEBCA0000EB0A10316849003E
:102BC000B0FBF1F807E00AEBCA0000EB0A1031682D
:102BD0008900B0FBF1F86420B8FBF0F00401200993
:102BE000642101FB1089A88900F4004040B1322023
:102BF00000EBC900B0FBF1F000F00700044308E06F
:102C0000322000EB09106421B0FBF1F000F00F005E
:102C100004432C8106B0BDE8F08700000038014075
:102C2000C1F308028280704770B504460D460BE080
:102C300000BF0848008800F040000028F9D014F8D0
:102C4000011B0448FFF7ECFF281EA5F10101CDB2DE
:102C5000EED170BD0038014000BFFEE702E008C8B9
:102C6000121F08C1002AFAD170477047002001E006
:102C700001C1121F002AFBD17047000010B580204F
:102C80000949086000F012F840200749091F086050
:102C900000F00CF840200449086000F007F880209C
:102CA0000149091F086010BD140C0140002001E01B
:102CB000411CC8B20A28FBDB7047000008B501219F
:102CC0000820FFF7BFF8C020ADF8000003208DF802
:102CD000020014208DF8030069460348FEF73AFA13
:102CE00000F082F808BD0000000C014010B5802003
:102CF00007490860FFF7DAFF402005490860FFF741
:102D0000D5FF40200249091D0860FFF7CFFF10BD25
:102D1000100C014070B505460024002616E0600640
:102D2000040E40200E490860FFF7C0FF0C48083829
:102D3000006800F0800008B1601CC4B2402008495F
:102D4000091D0860FFF7B2FF701CC6B2082EE6DB53
:102D500015B9FFF7CBFF01E0FFF790FF204670BDEC
:102D6000100C014070B50446002520E004F08000FE
:102D700018B180200F49086003E080200D49091D2B
:102D80000860FFF793FF40200A490860FFF78EFFB5
:102D900040200849091D0860072D02D18020091F25
:102DA00008606006040EFFF781FF681CC5B2082D9D
:102DB000DCDB70BD100C014010B5802009490860B3
:102DC00040200860FFF772FF80200649091D086057
:102DD000FFF76CFF40200349091D0860FFF766FFFD
:102DE00010BD0000100C014010B58020054908609E
:102DF0004020091F0860FFF759FF80200149091F83
:102E0000086010BD140C014010B580200C4908600A
:102E1000FFF74CFF40200A490860FFF747FF0848CA
:102E20000838006800F0800008B1012400E00024A8
:102E300040200349091D0860FFF738FF204610BDF8
:102E4000100C014010B500F027F81DE001211048DA
:102E5000FEF713FA01280AD101210E48FEF705FA00
:102E600020210C48FEF76EF900F058F80DE0012122
:102E70000748FEF702FA38B920210648FEF7F5F9AF
:102E800001210448FEF75EF9E0E700BF002010BD15
:102E900000080140000C014010B5FDF795FFFDF75B
:102EA00045FDFFF731F9FEF7B7FB0620FEF744FBBF
:102EB000FFF76EFDFFF702FFFEF7ACFE00211248A0
:102EC000FFF7B0F8002110480830FFF7ABF80021F9
:102ED0000E48FFF7A7F800210C480C30FFF7A2F8C6
:102EE0000020FEF761FE0A48FEF76EFE00214FF655
:102EF000FF70FEF75FFE074803880748028800213D
:102F00000846FEF7E3F910BD34340140342C01408B
:102F1000EC000020DE000020DC00002010B540F2B4
:102F20000E624FF4FA710D20FEF7DEFE40F28A22A7
:102F30004FF4FA710E20FEF7D7FE10BD000000001E
:102F40000000000000000000000000000000001869
:102F5000181818181808000818000000000000349D
:102F600024242400000000000000000000000000F5
:102F700016247F2424247E2424000000000000085E
:102F80003E6848681C1612127C1010000000006198
:102F9000D296740810162949C600000000000000EF
:102FA0003C646438724ACE467F000000000000187E
:102FB00018181800000000000000000000000004C5
:102FC000081810303030301010180C0400000020A9
:102FD0001008080C0404040C081810200000000855
:102FE0000A341C6A08000000000000000000000015
:102FF00000001818187F18181800000000000000C2
:103000000000000000000018180830000000000058
:1030100000000000003C0000000000000000000074
:10302000000000000000001818000000000000026E
:1030300006040C08081010202040000000000000CA
:103040003C6642475B7342663C00000000000000A3
:1030500018784808080808087E00000000000000F2
:103060003C460606040810207E0000000000000018
:103070007C0606043C0202067C0000000000000002
:103080000C1C14246444FF04040000000000000031
:103090007E6060607E0202067C000000000000008E
:1030A0001E306048764242623C0000000000000092
:1030B0007E0206040C08181030000000000000001A
:1030C0003C6242361C6642423C00000000000000A8
:1030D0003C664242661A02047800000000000000CC
:1030E0000000181800000018180000000000000080
:1030F0000000181800000018180830000000000038
:10310000000004183060100C0600000000000000F1
:10311000000000007E007E000000000000000000B3
:103120000000301804060C102000000000000030E1
:103130001C06060618100010100000000000001CFD
:10314000224141DDB5A5A5AF94C0403C0000000080
:10315000181C342426627E43C100000000000000D9
:103160007C4642467C4242427C0000000000000057
:103170001E204040404040603E0000000000000033
:103180007C46424343434246780000000000000072
:103190007E6060607E6060607E0000000000000075
:1031A0007E6060607E606060600000000000000083
:1031B0001E604040CE4242623E000000000000001F
:1031C000424242427E424242420000000000000071
:1031D0007E181818181818187E000000000000004B
:1031E0007C0404040404044478000000000000008F
:1031F0004244485070584C44420000000000000017
:1032000020202020202020203E0000000000000080
:103210006266675F5B5BC1C1C10000000000000027
:10322000626272525A4A4E46460000000000000098
:103230003C6243C3C3C343623C0000000000000083
:103240007C464242467840404000000000000000BA
:103250003C6243C3C3C343623C180F00000000003C
:103260007C6662667C6C64666200000000000000A0
:103270003E6040601C0602027C000000000000006E
:103280007F181818181818181800000000000000FF
:1032900042424242424242623C00000000000000C2
:1032A000C14342622624341C1800000000000000C4
:1032B000C1C141495B5B766666000000000000000A
:1032C00043663418181C2466C30000000000000088
:1032D000C14266341C1818181800000000000000D5
:1032E0007E02040C181020607E0000000000001C0C
:1032F00010101010101010101010101C00000040C2
:103300002020101008080C04060200000000003CF9
:103310000C0C0C0C0C0C0C0C0C0C0C3C00000000ED
:10332000181C2462000000000000000000000000E3
:103330000000000000000000000000FF000000206E
:10334000100000000000000000000000000000006D
:1033500000003C06023E42467A00000000000040A9
:1033600040405C62424242427C000000000000009B
:1033700000001E20604060203E00000000000002AF
:1033800002023E62424242663A0000000000000033
:1033900000003C62427E40603E0000000000000FE2
:1033A0001810107E10101010100000000000000017
:1033B00000003F66426658403E43423C00000040E9
:1033C00040405C624242424242000000000000185D
:1033D00018007808080808087E00000000000004B3
:1033E0000C007C040404040404040C780000006055
:1033F0006060626C787068646200000000000078B1
:1034000008080808080808087E00000000000000FE
:103410000000764B4B4B4B4B4B0000000000000074
:1034200000005C6242424242420000000000000094
:1034300000003C62424342623C0000000000000089
:1034400000005C62424242427C404040000000007A
:1034500000003E62424242663A0202020000000060
:1034600000006E7263606060600000000000000099
:1034700000003E20203C06027C000000000000000E
:103480001010FE10101010101E00000000000000B0
:1034900000004242424242663A0000000000000042
:1034A00000004342662434181800000000000000A9
:1034B0000000C1C15B5A5E666600000000000000AB
:1034C000000062261C181C2662000000000000009C
:1034D000000043426624341C181830E0000000004D
:1034E00000007E060C1810207E0000000000000E78
:1034F00018101010307010101010180E000008086E
:10350000080808080808080808080808000000302B
:10351000180808080C0E08080808183000000000F9
:1035200000000000714B06000000000000000000D9
:10353000000000000000000000000000000000008B
:10354000000000000000000000000000000000007B
:10355000000000000000000000000000000000006B
:1035600000000000000003800180018001800180D4
:10357000018001800180018001800000000003C003
:1035800003C0000000000000000000000000000078
:103590000000000000000E700E700E700C30000075
:1035A000000000000000000000000000000000001B
:1035B000000000000000000000000000000000000B
:1035C00000000000000000000618063806307FFEEC
:1035D0000C300C300C300C307FFE0C601C6018601E
:1035E0001860000000000000000000000000000063
:1035F0000000000000C000C00FF83CC831C031809E
:103600003D801F8003F001F8031C030C031C3FF8EE
:103610003FE007000600000000000000000000007E
:10362000000000001C007E0E630C631863307E6097
:1036300000C001800300077C0EE61CC618C630C619
:10364000607C00000000000000000000000000009E
:103650000000000000000FE01CF0387038701C60A3
:103660001FC00F003F8C71CC60EC607C70383CFC5C
:103670001FCE00000000000000000000000000005D
:1036800000000000000003C00180018001800000F4
:10369000000000000000000000000000000000002A
:1036A000000000000000000000000000000000001A
:1036B00000000000003000E001C0018003000700AE
:1036C000060006000E000E000E000E0006000700A9
:1036D0000300038001C000E0003000000000000093
:1036E000000000000C0006000380018001C000E023
:1036F000006000600070007000700060006000E01A
:1037000000C00180038006000C00000000000000E3
:10371000000000000000018011881DB803C007E010
:103720003DBC018801800000000000000000000096
:103730000000000000000000000000000000000089
:103740000000000000000000000000000180018077
:103750000180018001807FFE018001800180018065
:103760000000000000000000000000000000000059
:103770000000000000000000000000000000000049
:1037800000000000000000000000000003C003C0B3
:1037900001C001C003801F00000000000000000005
:1037A0000000000000000000000000000000000019
:1037B0000000000000000FF000000000000000000A
:1037C00000000000000000000000000000000000F9
:1037D00000000000000000000000000000000000E9
:1037E00000000000000000000000000003C003C053
:1037F00003C0000000000000000000000000000006
:10380000000000000000001800380030006000E0F8
:1038100000C001C001800300030006000E000C0080
:103820001C00180030000000000000000000000034
:1038300000000000000001800FF01C38381C301C14
:10384000707E70EE738E7E0E7C0C300C381C1E78F1
:103850000FE0000000000000000000000000000079
:10386000000000000000000007C01FC039C001C0F8
:1038700001C001C001C001C001C001C001C03FFCC6
:103880003FFC0000000000000000000000000000FD
:1038900000000000000003801FF0183800380018F6
:1038A00000380038007001E0038007001C003FFC76
:1038B0003FFC0000000000000000000000000000CD
:1038C00000000000000007801FF0003800380038BA
:1038D000003007E007F00038001C001C001820F83A
:1038E0003FE00000000000000000000000000000B9
:1038F000000000000000000000F001B003300730BD
:103900000E301C30383070307FFE7FFE00300030CB
:103910000030000000000000000000000000000077
:1039200000000000000000001FF818001800180038
:1039300018001FE000F8001C001C001C003800F0FC
:103940001FC0000000000000000000000000000098
:10395000000000000000000003F80F001C00180029
:10396000300037F83C3C300C300C380C381C1E381A
:103970000FF0000000000000000000000000000048
:1039800000000000000000003FFC001C0018003890
:103990000070006000E001C00180038007000600A5
:1039A0000E00000000000000000000000000000009
:1039B00000000000000003C01FF8381C381C381C31
:1039C0001C380FF007F01C78381C300C381C3C38C1
:1039D0000FF00000000000000000000000000000E8
:1039E00000000000000003801FF03838301C701CFD
:1039F000700C380C1FFC0FCC001C001800701FE06E
:103A00001F80000000000000000000000000000017
:103A1000000000000000000000000000000003C0E3
:103A200003C00180000000000000000003C003C0CC
:103A300003C00000000000000000000000000000C3
:103A4000000000000000000000000000000003C0B3
:103A500003C00180000000000000000003C003C09C
:103A600001C001C003800F00000000000000000042
:103A7000000000000000000000000000003800F01E
:103A800001C007001E0038000E00078001C0007052
:103A900000300000000000000000000000000000F6
:103AA0000000000000000000000000000000000016
:103AB00000003FFC000000003FFC3FFC0000000055
:103AC00000000000000000000000000000000000F6
:103AD0000000000000000000000000001C000F00BB
:103AE000038001E00078001C007001E003800E00FC
:103AF0000C000000000000000000000000000000BA
:103B00000000000000000FC000F00038003800384E
:103B1000003803F00380030003000000000007806A
:103B2000078000000000000000000000000000000E
:103B30000000000000E007F80C0C180630067003C7
:103B400063F36633C673CC63CC62CC66CCE6C7FC49
:103B5000E0006000700038101FF00000000000005E
:103B6000000000000000000003C007E006E00E7047
:103B70000E700C301C3818183FFC3FFC700E600EA5
:103B8000E00700000000000000000000000000004E
:103B900000000000000000003FF03838381C381CDE
:103BA00038383FF03FF8381C380C380C381C3FF8D8
:103BB0003FE00000000000000000000000000000E6
:103BC00000000000000000E007FC1E043800380080
:103BD0003000700070007000300038003C001F9C06
:103BE00007FC0000000000000000000000000000D2
:103BF00000000000000000003FF03078301C300C66
:103C0000300E300E300E300E300E301C30383FF09B
:103C10003FC00000000000000000000000000000A5
:103C200000000000000000001FF818001800180035
:103C300018001FF81FF818001800180018001FF8C7
:103C40001FF800000000000000000000000000005D
:103C500000000000000000001FF818001800180005
:103C600018001FF81FF81800180018001800180096
:103C7000180000000000000000000000000000002C
:103C800000000000000000F007FC1E0438003000B7
:103C90007000700070FC700C700C300C380C1F1C25
:103CA00007FC000000000000000000000000000011
:103CB0000000000000000000300C300C300C300C14
:103CC000300C3FFC3FFC300C300C300C300C300C16
:103CD000300C0000000000000000000000000000A8
:103CE00000000000000000003FFC01800180018016
:103CF00001800180018001800180018001803FFC02
:103D00003FFC000000000000000000000000000078
:103D100000000000000000001FF000300030003004
:103D200000300030003000300030003000701DE006
:103D30001FC00000000000000000000000000000A4
:103D40000000000000000000381C387038E039C066
:103D50003B803F003F003B8039C038E03870383846
:103D6000381C0000000000000000000000000000FF
:103D700000000000000000001C001C001C001C00D3
:103D80001C001C001C001C001C001C001C001FFC54
:103D90001FFC000000000000000000000000000008
:103DA0000000000000000000381C7C3C6C3E6E6E81
:103DB000666E66CE63C663866186600660066006D0
:103DC000600600000000000000000000000000008D
:103DD00000000000000000003C0C3C0C3E0C360CC7
:103DE000330C338C318C31CC30EC306C307C303C4B
:103DF000301C000000000000000000000000000077
:103E000000000000000001C00FF81C3C381C700EC0
:103E1000700E60066006700E700E700C381C1E78F6
:103E20000FE00000000000000000000000000000A3
:103E300000000000000000003FF0383C381C380C47
:103E4000380C381C38783FE038003800380038002B
:103E5000380000000000000000000000000000002A
:103E600000000000000001C00FF81C3C381C700E60
:103E7000700E60066006700E700E700C381C1E7896
:103E80000FE0018001C000FF003C000000000000C6
:103E900000000000000000003FF0383838183818E3
:103EA000383838F03FC038E0387038383838381C87
:103EB000380E0000000000000000000000000000BC
:103EC00000000000000001E00FF838003800380062
:103ED0003C001F8003F00078001C001C001C387898
:103EE0003FE00000000000000000000000000000B3
:103EF00000000000000000007FFE018001800180C2
:103F000001800180018001800180018001800180A9
:103F10000180000000000000000000000000000020
:103F20000000000000000000300C300C300C300CA1
:103F3000300C300C300C300C300C300C381C1C3871
:103F40000FF0000000000000000000000000000072
:103F50000000000000000000E006700E700E381C2B
:103F6000381C1C181C380C300E70066007E003C0AB
:103F700003C000000000000000000000000000007E
:103F80000000000000000000600660066006600699
:103F90006186638673C673CE766C366C3C3C3C3C63
:103FA000381C0000000000000000000000000000BD
:103FB0000000000000000000301C38181C380E7093
:103FC00007E003C003C007E00E701C381838381C27
:103FD000700E000000000000000000000000000063
:103FE0000000000000000000700E700C381C1C382F
:103FF0000E70066007E003C001800180018001802F
:10400000018000000000000000000000000000002F
:1040100000000000000000003FFC001C00380070A1
:1040200000E001C0038007000E000C0018003FFCF8
:104030003FFC000000000000000000000000000045
:104040000000000007F007F006000600060006006A
:104050000600060006000600060006000600060030
:10406000060006000600060007F000000000000041
:1040700000000000000018001C000C0006000700F3
:1040800003000380018001C000C0006000700030A8
:1040900000380018000C00000000000000000000C4
:1040A000000000000FE00FE00060006000600060B2
:1040B0000060006000600060006000600060006000
:1040C00000600060006000600FE000000000000081
:1040D000000000000000000003C006C006600C30B5
:1040E0001818301C00000000000000000000000054
:1040F00000000000000000000000000000000000C0
:1041000000000000000000000000000000000000AF
:10411000000000000000000000000000000000009F
:104120000000000000000000FFFF00000000000091
:104130000000000000001E000380000000000000DE
:10414000000000000000000000000000000000006F
:10415000000000000000000000000000000000005F
:1041600000000000000000000000000000001FF040
:104170001038001C001C0FFC1C1C381C381C3CFC9C
:104180001FDC000000000000000000000000000034
:1041900000000000000038003800380038003BF80C
:1041A0003E1C3C1C380C380C380C380C381C3C7845
:1041B0001FE0000000000000000000000000000000
:1041C000000000000000000000000000000007F8F0
:1041D0000E001C0038003800380038001C000F1892
:1041E00007F80000000000000000000000000000D0
:1041F000000000000000001C001C001C001C0FFC44
:104200001C1C381C301C301C301C301C383C1CFC66
:104210000F9C0000000000000000000000000000F3
:1042200000000000000000000000000000000FF08F
:104230001C38381C300C3FFC3000300038001E0C9D
:1042400007FC00000000000000000000000000006B
:1042500000000000003C01FE038003000300030097
:104260007FFC7FFC03000300030003000300030046
:10427000030000000000000000000000000000003B
:1042800000000000000000000000000000000FFE21
:104290001C383818381818381FF03B8030003FF0B1
:1042A0001FFC300E700E381C1FF8000000000000CC
:1042B00000000000000038003800380038003BF8EB
:1042C0003E383C1C381C381C381C381C381C381C28
:1042D000381C00000000000000000000000000008A
:1042E00000000000018003C003C0000000001FC0E8
:1042F00001C001C001C001C001C001C001C001C0B6
:104300003FFC000000000000000000000000000072
:1043100000000000002000700070000000003FF06E
:10432000007000700070007000700070007000700D
:1043300000700070007020E03FC00000000000002E
:104340000000000000001800180018001800183CB9
:10435000187018E01B801F001B8019E018701838B7
:10436000181C000000000000000000000000000019
:104370000000000000001FC001C001C001C001C05A
:1043800001C001C001C001C001C001C001C001C025
:104390003FFC0000000000000000000000000000E2
:1043A00000000000000000000000000000006F3C62
:1043B00079EE71CE718E718E718E718E718E718E5D
:1043C000718E0000000000000000000000000000EE
:1043D00000000000000000000000000000003BF8AA
:1043E0003E383C1C381C381C381C381C381C381C07
:1043F000381C000000000000000000000000000069
:1044000000000000000000000000000000000FF0AD
:104410001C3C381C700E700E700E700C381C1E7810
:104420000FE000000000000000000000000000009D
:1044300000000000000000000000000000003BF849
:104440003E1C3C1C380C380C380C380C381C3C78A2
:104450003FE038003800380038000000000000005D
:1044600000000000000000000000000000000FFC41
:104470001C1C381C301C301C301C301C383C1CFCF4
:104480000F9C001C001C001C001C00000000000011
:10449000000000000000000000000000000019F80B
:1044A0001F1C1C0C180E180018001800180018000B
:1044B00018000000000000000000000000000000E4
:1044C00000000000000000000000000000000FF8E5
:1044D0001C0018001E000FC001F800180018183842
:1044E0001FF00000000000000000000000000000BD
:1044F00000000000000000000600060006007FFC2F
:1045000006000600060006000600060007000784F5
:1045100001FC00000000000000000000000000009E
:104520000000000000000000000000000000381C37
:10453000381C381C381C381C381C381C383C1CFCF7
:104540000FDC000000000000000000000000000080
:104550000000000000000000000000000000700CDF
:10456000381C38181C380C300E70066007E003C089
:1045700003C0000000000000000000000000000078
:1045800000000000000000000000000000006006C5
:1045900060066186738E73CC33CC366C366C3C3CD3
:1045A0003C38000000000000000000000000000097
:1045B0000000000000000000000000000000381CA7
:1045C0001C380E7007E003C003C007E00E701C38F3
:1045D000381E000000000000000000000000000085
:1045E0000000000000000000000000000000700C4F
:1045F000381C38181C380C300E70066007E003C0F9
:1046000003C0038007000E007C00000000000000D3
:1046100000000000000000000000000000001FF883
:104620000038007000E001C0038007000C001FFC90
:104630003FFC00000000000000000000000000003F
:1046400000000000007801F80380038003800380ED
:10465000038003003F003E000300038003800380CB
:1046600003800380038001C000F800000000000008
:104670000180018001800180018001800180018032
:104680000180018001800180018001800180018022
:104690000180018001800180018000000000000095
:1046A000000000001E001F80018001C001C001C089
:1046B00001C000C000FC007C00C001C001C001C0FE
:1046C00001C001C001C003801F0000000000000005
:1046D00000000000000000000000000000000000DA
:1046E00000001C003F0671CE60FC000000000000CE
:1046F00000000000000000000000000000000000BA
:1047000000000000000000000000000000000000A9
:104710000000000000000000000000000000000099
:104720000000000000000000000000000000000089
:104730000000000000000000000000000000000079
:104740000000000000000000000000000000000069
:104750000000000000000000000000000000000059
:104760000000000000000000000000000000003C0D
:1047700000003C00003C00003C00003C00003C000D
:10478000003C00003C00003C00003C00003C0000FD
:104790003C00003C00003C00000000000000003C29
:1047A00000007E00003C000000000000000000004F
:1047B00000000000000000000000000000000000F9
:1047C000000000000000000000000000000003C323
:1047D000E003C3E003C3C003C3C003C3C003C3C03B
:1047E00003C1C00000000000000000000000000045
:1047F00000000000000000000000000000000000B9
:1048000000000000000000000000000000000000A8
:104810000000000000000000000000000000000098
:104820000000000000000000000000000000000088
:104830000000000001E0E001C0E001C0E001C0E0D4
:104840003FFFFE3FFFFE03C1C00381C00381C003E1
:1048500081C07FFFFC7FFFFC078380070380070385
:1048600080070380070780000000000000000000B0
:104870000000000000000000000000000000000038
:104880000000000000000000000000000700000F12
:1048900000000E0001FFF007FFF01F0E001E1E00BB
:1048A0001E1C001E1C000FDC0007FC0000FF800027
:1048B0003FF00038F800387800783C0070783071AC
:1048C000F83FFFE01FFF0000E00000E00000E00014
:1048D00000000000000000000000000000000000D8
:1048E00000000000000000000000000000000F8039
:1048F0000F3FE01E78703C7070707070E07071C097
:104900003FE3801FC700000E00001C00007800007D
:10491000F0F001E7FC03CF0E078E0E0F0E0E1E0EF9
:104920000E3C07BC7003F80000000000000000000F
:104930000000000000000000000000000000000077
:104940000000000000000000000000000000000067
:104950000001FF0007FF800F03C00F03C00F03C05B
:104960000F0780079F0003FE0003F0000FF83C3E96
:104970007C3C3C1F3C780FF87807F87C01F03E0344
:10498000F81FFFFC07FE1F000000000000000000F1
:104990000000000000000000000000000000000017
:1049A0000000000000000000000000000000003EC9
:1049B00000003C00003C00003C00003C00003C00CB
:1049C000003C0000000000000000000000000000AB
:1049D00000000000000000000000000000000000D7
:1049E00000000000000000000000000000000000C7
:1049F00000000000000000000000000000000000B7
:104A00000000000000000000000000000080000125
:104A1000C0000780000F00001E00003C000078006E
:104A200000F00000E00001E00001E00001C0000330
:104A3000C00003C00001C00001E00001E00000F080
:104A40000000F000007800003C00001E00000F0095
:104A50000007C00001C000000000000000000000CE
:104A6000000000000000000000000000000003C083
:104A70000001E00000F000007C00003E00001E008D
:104A8000000F000007800007800003800003C000C3
:104A900003C00003C00003C00003800007800007BC
:104AA00080000F00001E00003C0000780000F000B5
:104AB00001E0000380000000000000000000000092
:104AC0000000000000000000000000000000001CCA
:104AD00000001C000018000F18F007DBE0007F004A
:104AE00000FF0007DBE00E1870001800001C00003B
:104AF0001C0000000000000000000000000000009A
:104B000000000000000000000000000000000000A5
:104B10000000000000000000000000000000000095
:104B20000000000000000000000000000000000085
:104B300000000000000000000000000000003C0039
:104B4000003C00003C00003C00003C00003C003FFA
:104B5000FFFC3FFFFC003C00003C00003C00003C30
:104B600000003C0000000000000000000000000009
:104B70000000000000000000000000000000000035
:104B80000000000000000000000000000000000025
:104B90000000000000000000000000000000000015
:104BA0000000000000000000000000000000000005
:104BB0000000000000000000000000007C00007EFB
:104BC00000007E00003E00001E00003C0000F800D7
:104BD00007E00004000000000000000000000000EA
:104BE00000000000000000000000000000000000C5
:104BF00000000000000000000000000000000000B5
:104C000000000000000000000000000000000003A1
:104C1000FFE003FFE00000000000000000000000D3
:104C20000000000000000000000000000000000084
:104C30000000000000000000000000000000000074
:104C40000000000000000000000000000000000064
:104C50000000000000000000000000000000000054
:104C60000000000000000000000000000000000044
:104C70000000000000000000000000007C0000FEBA
:104C80000000FE00007E00000000000000000000A8
:104C90000000000000000000000000000000000014
:104CA0000000000000000000000000000000000004
:104CB000780000F00000E00001E00003C000038085
:104CC000000780000F00000E00001E00003C0000E6
:104CD000380000700000F00000E00001C00003C0D8
:104CE000000780000700000F00001E00001C0000ED
:104CF00000000000000000000000000000000000B4
:104D000000000000000000000000000000000000A3
:104D10000000000001FFC007FFE00F00F01E007858
:104D20001E003C3C00FC3C07FC3C1FBC3C7C1C3D8A
:104D3000F03C3FC03C3F003C1E00381E00780F8016
:104D4000F007FFE001FF800000000000000000000D
:104D50000000000000000000000000000000000053
:104D60000000000000000000000000000000000043
:104D700000000000007E0003FE001FDE000E1E008B
:104D8000001E00001E00001E00001E00001E00008D
:104D90001E00001E00001E00001E00001E00001E5F
:104DA000000FFFF80FFFF8000000000000000000F7
:104DB00000000000000000000000000000000000F3
:104DC00000000000000000000000000000000000E3
:104DD0000000000003FF800FFFE00E01F00000F074
:104DE0000000F00000F00000F00001E00003C0004F
:104DF0000F80003E00007C0001F00003C0000F8027
:104E0000001FFFFC1FFFFC0000000000000000006E
:104E10000000000000000000000000000000000092
:104E20000000000000000000000000000000000082
:104E3000000000000FFF800FFFE00001E00000F025
:104E40000000F00001E00003C001FF0001FFC0000E
:104E500003F000007800007800007800007800017E
:104E6000F00FFFC00FFF0000000000000000000076
:104E70000000000000000000000000000000000032
:104E80000000000000000000000000000000000022
:104E900000000000000FC0001FC0003FC0007BC02A
:104EA00000F3C001E3C003C3C00783C00F03C01CED
:104EB00003C03803C07FFFFE7FFFFE0003C0000376
:104EC000C00003C00003C00000000000000000009C
:104ED00000000000000000000000000000000000D2
:104EE00000000000000000000000000000000000C2
:104EF000000000000FFFE00FFFE00F00000F0000B8
:104F00000F00000F00000F00000FFF800FFFE000F8
:104F100000F00000780000780000780000F0000346
:104F2000E00FFFC00FFE00000000000000000000C6
:104F30000000000000000000000000000000000071
:104F40000000000000000000000000000000000061
:104F500000000000003FF001FFF003E000078000C8
:104F60000F00001E00001E1F001FFFE01FC1F81EE3
:104F700000781E003C1E003C1E003C0F00780F8095
:104F8000F807FFE001FF80000000000000000000C3
:104F90000000000000000000000000000000000011
:104FA0000000000000000000000000000000000001
:104FB000000000001FFFFC1FFFFC0000780000F055
:104FC0000000E00001E00003C0000780000F0000C7
:104FD0000F00001E00003C0000780000F00001F00F
:104FE0000001E00003C0000000000000000000001D
:104FF00000000000000000000000000000000000B1
:1050000000000000000000000000000000000000A0
:105010000000000003FFE00FE3F00F00781E0078AF
:105020001E00780F00F007E3E001FF8001FF80071A
:10503000E7E00F00F81E00781E003C1E007C1F00F9
:10504000F80FFFF003FFC0000000000000000000A8
:105050000000000000000000000000000000000050
:105060000000000000000000000000000000000040
:105070000000000003FF800FC7E01E00F01E007854
:105080003C00783C00783C00381E00780FEFF807B1
:10509000FFB80000780000780000F00001E0000F89
:1050A000C00FFF000FF00000000000000000000033
:1050B00000000000000000000000000000000000F0
:1050C00000000000000000000000000000000000E0
:1050D00000000000000000000000000000000000D0
:1050E000007E00007E00007E00001800000000002E
:1050F0000000000000000000000000003C00007EF6
:1051000000007E00003E00000000000000000000E3
:10511000000000000000000000000000000000008F
:10512000000000000000000000000000000000007F
:10513000000000000000000000000000000000006F
:10514000007E00007E00007E0000180000000000CD
:105150000000000000000000000000003E00007E93
:1051600000007F00001F00001E00001E0000FC0069
:1051700007F0000400000000000000000000000034
:10518000000000000000000000000000000000001F
:10519000000000000000000000000000400001E0EE
:1051A0000007C0001F00007E0001F80003E0000FB0
:1051B00080000F800003E00000F800003E00000FB8
:1051C000800003E00000E00000000000000000009C
:1051D00000000000000000000000000000000000CF
:1051E00000000000000000000000000000000000BF
:1051F00000000000000000000000000000000000AF
:105200000000000000000000001FFFF80000000088
:1052100000000000001FFFF81FFFF8000000000062
:10522000000000000000000000000000000000007E
:10523000000000000000000000000000000000006E
:10524000000000000000000000000000000000005E
:1052500000000000000000000000000000078000C7
:1052600003E00000F800003E00000F800003E000B3
:1052700000F80001F00007C0001F00007C0001F0F2
:105280000007C00003000000000000000000000054
:10529000000000000000000000000000000000000E
:1052A000000000000000000000000000000001C03D
:1052B0000001FE00007F800007C00001E00000F058
:1052C0000000F00001F00003E0007FC0007E00005D
:1052D000700000700000700000000000000000F886
:1052E0000000F80000F800000000000000000000CE
:1052F00000000000000000000000000000000000AE
:105300000000000000000000000000000000001F7E
:105310008000FFF003C07807801C0E000E1C000EFA
:105320003C000F383FC778FFC770E3C771C3C7F3AE
:10533000C387E3C387E3878EE3878EE3CF8EE3FFE4
:10534000FC71F9F07000007000003800003C0000B3
:105350000F01C007FFC000000000000000000000B7
:10536000000000000000000000000000000000003D
:1053700000000000007E00007F0000FF0000E780CA
:1053800001E78003C3C003C3C00781E00781E00FCA
:1053900000F00F00F81FFFF81FFFFC3C003C3C0032
:1053A0001E78001EF0000F0000000000000000004A
:1053B00000000000000000000000000000000000ED
:1053C00000000000000000000000000000000000DD
:1053D000000000001FFFC01FFFF01E00F01E00783D
:1053E0001E00781E00F01E01F01FFFC01FFFE01E10
:1053F00001F81E00781E003C1E003C1E00781E00B6
:10540000F81FFFE01FFF0000000000000000000088
:10541000000000000000000000000000000000008C
:10542000000000000000000000000000000000007C
:105430000000000000FFF803FFF807C0000F0000A5
:105440001E00001E00003C00003C00003C00003C30
:1054500000003C00003E00001E00000F00000FC0D6
:105460000803FFF800FFF800000000000000000043
:10547000000000000000000000000000000000002C
:10548000000000000000000000000000000000001C
:10549000000000003FFF003FFFE03C01F03C0078CF
:1054A0003C003C3C003C3C003C3C001E3C001E3CA4
:1054B000001E3C003C3C003C3C00783C00F83C07B3
:1054C000E03FFFC03FFC00000000000000000000C3
:1054D00000000000000000000000000000000000CC
:1054E00000000000000000000000000000000000BC
:1054F000000000000FFFF00FFFF00F00000F000092
:105500000F00000F00000F00000FFFF00FFFF00F63
:1055100000000F00000F00000F00000F00000F0040
:10552000000FFFF00FFFF00000000000000000007F
:10553000000000000000000000000000000000006B
:10554000000000000000000000000000000000005B
:10555000000000000FFFF00FFFF00F00000F000031
:105560000F00000F00000F00000FFFF00FFFF00F03
:1055700000000F00000F00000F00000F00000F00E0
:10558000000F00000F0000000000000000000000FD
:10559000000000000000000000000000000000000B
:1055A00000000000000000000000000000000000FB
:1055B0000000000000FFFC03FFFC0FC0041F000000
:1055C0001E00003C00003C0000780FFC780FFC78C7
:1055D000003C3C003C3C003C3E003C1F003C0FC0FB
:1055E0003C03FFFC00FFF80000000000000000008A
:1055F00000000000000000000000000000000000AB
:10560000000000000000000000000000000000009A
:10561000000000003C003C3C003C3C003C3C003CAA
:105620003C003C3C003C3C003C3FFFFC3FFFFC3C62
:10563000003C3C003C3C003C3C003C3C003C3C0012
:105640003C3C003C3C003C0000000000000000002E
:10565000000000000000000000000000000000004A
:10566000000000000000000000000000000000003A
:10567000000000000FFFF80FFFF8003C00003C00A6
:10568000003C00003C00003C00003C00003C0000EE
:105690003C00003C00003C00003C00003C00003CA2
:1056A000000FFFF80FFFF8000000000000000000EE
:1056B00000000000000000000000000000000000EA
:1056C00000000000000000000000000000000000DA
:1056D000000000000FFFE00FFFE00001E00001E02C
:1056E0000001E00001E00001E00001E00001E00055
:1056F00001E00001E00001E00001E00003C00C0750
:10570000C00FFF8007FE0000000000000000000046
:105710000000000000000000000000000000000089
:105720000000000000000000000000000000000079
:10573000000000001E00781E01F01E03C01E07803E
:105740001E1F001E3C001E78001EF0001FF0001EF1
:10575000F8001E3C001E1E001E0F801E07C01E010A
:10576000E01E00F81E007C000000000000000000A9
:105770000000000000000000000000000000000029
:105780000000000000000000000000000000000019
:1057900000000000078000078000078000078000ED
:1057A000078000078000078000078000078000074F
:1057B00080000780000780000780000780000780C6
:1057C0000007FFF807FFF8000000000000000000DD
:1057D00000000000000000000000000000000000C9
:1057E00000000000000000000000000000000000B9
:1057F000000000003E007C3F00FC3F81DC3B81DC80
:105800003BC39C39C39C38E71C38EF1C387E1C38DE
:105810007C1E383C1E78001E78001E78001E780022
:105820001E78001E78001E0000000000000000002E
:105830000000000000000000000000000000000068
:105840000000000000000000000000000000000058
:10585000000000001F003C1F803C1FC03C1DC03CDE
:105860001DE03C1CF03C1C783C1C783C1C3C3C1C67
:105870001E3C1C0F3C1C0F3C1C07BC1C03FC1C01E9
:10588000FC1C00FC1C00FC000000000000000000EC
:105890000000000000000000000000000000000008
:1058A00000000000000000000000000000000000F8
:1058B0000000000001FFC007FFF00F00F81E007C91
:1058C0003C003C3C001E78001E78001E78001E78CC
:1058D000001E78001E3C003C3C003C1E00781F006F
:1058E000F007FFE001FF8000000000000000000062
:1058F00000000000000000000000000000000000A8
:105900000000000000000000000000000000000097
:10591000000000001FFF801FFFF01E00F81E007C2B
:105920001E003C1E003C1E003C1E00781E03F01FA3
:10593000FFC01FFE001E00001E00001E00001E0013
:10594000001E00001E00000000000000000000001B
:105950000000000000000000000000000000000047
:105960000000000000000000000000000000000037
:105970000000000001FFC007FFF00F00F81E007CD0
:105980003C003C3C001E78001E78001E78001E780B
:10599000001E78001E3C003C3C003C1E00781F802E
:1059A000F007FFE001FF80003C00003C00001F0604
:1059B000000FFF0001F800000000000000000000E0
:1059C00000000000000000000000000000000000D7
:1059D000000000000FFF800FFFE00E01F00E00F04E
:1059E0000E00F00E00F00E01F00FFFC00FFF000ED2
:1059F0001F000E07800E03C00E01E00E00F00E0027
:105A0000F80E00780E003C000000000000000000CE
:105A10000000000000000000000000000000000086
:105A20000000000000000000000000000000000076
:105A30000000000003FFF00FFFF01F00001E000039
:105A40001E00001F00000FC00007FC0000FF8000C8
:105A50000FF00001F80000780000780000782000C6
:105A6000F83FFFE03FFF8000000000000000000062
:105A70000000000000000000000000000000000026
:105A80000000000000000000000000000000000016
:105A9000000000003FFFFC3FFFFC003C00003C001A
:105AA000003C00003C00003C00003C00003C0000CA
:105AB0003C00003C00003C00003C00003C00003C7E
:105AC00000003C00003C000000000000000000005E
:105AD00000000000000000000000000000000000C6
