:020000040800F2
:10000000C00800204501000825170008C515000894
:10001000D7160008D10E0008312E0008000000009D
:10002000000000000000000000000000611D00084A
:10003000F10F000800000000491C000855210008CD
:100040005F0100085F0100085F0100085F01000810
:100050005F0100085F0100085F0100085F01000800
:100060005F0100085F0100085F0100085F010008F0
:100070005F0100085F0100085F0100085F010008E0
:100080005F0100085F0100085F0100085F010008D0
:100090005F0100085F0100085F0100085F010008C0
:1000A0005F0100085F0100085F0100085F010008B0
:1000B0005F01000895230008452400085F0100083F
:1000C0005F0100085F0100085F0100085F01000890
:1000D0005F0100085F0100085F0100085D2A000859
:1000E0005F0100085F0100085F0100085F01000870
:1000F0005F0100085F0100085F0100085F01000860
:100100005F0100085F0100085F0100085F0100084F
:100110005F010008A92900085F0100085F010008CD
:100120005F0100085F0100085F0100085F0100082F
:10013000DFF80CD000F0C6FB00480047393000085B
:10014000C00800200648804706480047FEE7FEE753
:10015000FEE7FEE7FEE7FEE7FEE7FEE7FEE7FEE777
:100160001D2200083101000840EA01039B0703D06B
:1001700009E008C9121F08C0042AFAD203E011F8E6
:10018000013B00F8013B521EF9D27047F0B480EAFF
:100190000102D40F4200B2EB410F02D202460846E0
:1001A00011464A0042D0C30DDDB2C1F3C752AD1AA9
:1001B000202D35DAC1F3160141F4000204B1524298
:1001C000C5F1200602FA06F12A411044B3EBD05FD4
:1001D00023D0C4B1012DA0EBC35009DCF0BC4FF01B
:1001E000004202EAC352DBB200F5000000F0DEBAC2
:1001F000400000F1807000EBC350A0F1807040EA35
:10020000D170490009E0490841EAC071A0EBC35030
:1002100000F50000400800EBC350F0BC00F0BDBA90
:100220006142012202EB4101001BF6E7F0BC70477E
:1002300081F00041AAE780F00040A7E780EA0102D0
:1002400010B502F00043400022D04A001FD0010E3A
:1002500001EB1261C0F35600C2F3560240F40000F5
:1002600042F40002A0FB022000047F39140400D0F5
:10027000401C50EA124001D44000491EC2B20C0694
:1002800004EBD010401C4008802A02D003E000207C
:1002900010BD20F00100002900DA0020184310BD35
:1002A00030B480EA010202F0004530F0004221F053
:1002B000004013D090B1C30DD40DC2F31601C0F3AA
:1002C0001600E41A41F4000140F400027D3491422A
:1002D00001D3641C00E04900002C02DA30BC00208D
:1002E00070474FF400000023914201D3891A034361
:1002F00040084FEA4101F7D151B1914202D14FF08C
:10030000004105E002D24FF0010101E06FF0010170
:1003100003EBC450284430BC00F03FBA2DE9FE4F37
:10032000804681EA0300C00F0C46009021F0004196
:1003300023F00045B8EB0200A94105D24046214612
:1003400090461C460B46024623F00040104347D01F
:10035000270DC7F30A00C3F30A510290401A019017
:1003600040286BDAC3F3130040F4801B00989246D8
:1003700020B10023D2EB030A63EB0B0B0198594623
:10038000C0F14002504600F0D7F906460D465046EF
:100390005946019A00F0EFF910EB08006141002482
:1003A00087EA115284EAE7731A4340D0009A62B395
:1003B000019A012A4FEA075215DC001B61EB02018A
:1003C0004FF0004202EA0752CDE90042001C41F51D
:1003D000801132462B4600F026FA03B0BDE8F08FBC
:1003E00040462146F9E7001B61EB0201001C41F584
:1003F000801300185B412018A2F5001747EB03019A
:1004000040EAD570B6196D4111E06D084FEA360625
:1004100045EAC0754FEA0752001B61EB0201001C60
:1004200041F5801149084FEA300000195141324628
:100430002B4603B0BDE8F04F00F0E6B9009801226A
:1004400040000023D0EB020263EBE07300982146EA
:100450004FEAE074B8EB000061EB0401E9E783F0D8
:1004600000435BE781F0004158E72DE9FE4F81EA48
:10047000030404F0004421F0004100944FF0000B0D
:1004800023F0004350EA01045ED052EA03045BD03B
:10049000C3F30A54C1F30A552C44A4F2F334019473
:1004A000A0FB0254C1F3130141F48011C3F3130301
:1004B00043F4801301FB024400FB034E840A970AB5
:1004C00044EA815447EA8357A4FB076802958D0AE2
:1004D00005FB07854FEA932C04FB0C542705029D6E
:1004E0004FEA065847EA1637B5EB08056EEB070CDE
:1004F000870E920E47EA811742EA8312A7FB020198
:10050000B6EB0B0164EB00042B0D43EA0C335E18D1
:1005100044EB1C50DA465146E7FB0201C5F31304D5
:100520004FEA0B3343EA14534FEA0432019C43EA87
:100530000603A4F10C040294009CCDE900B400F081
:1005400072F903B0BDE8F08F00200146F9E72DE90C
:10055000F04D81EA030404F0004B21F000451446FD
:100560004FF0000A23F0004150EA050220D054EA7F
:1005700001021DD0C5F30A570246C5F31303C1F3A8
:100580001300C1F30A5640F4801543F48013A7EB1F
:100590000608101BD64608F2FD3873EB050002D39F
:1005A00008F1010801E092185B41B8F1000F03DA8D
:1005B00000200146BDE8F08D00204FF48011064672
:1005C00084460EE0171B73EB050705D3121B63EB84
:1005D000050306434CEA010C49084FEA3000921823
:1005E0005B4150EA0107EDD152EA030012D082EAE2
:1005F000040083EA0501084305D0101BAB4106D275
:100600000122002306E000224FF0004302E06FF0D9
:10061000010253101AEB06004CEB085110EB0A00D4
:1006200041EB0B01BDE8F04D00F0EEB8C10F80EAE0
:10063000E0700844CA079623002100F0B7B80EB551
:10064000C10F80EAE0700844CA07002140F233433A
:100650008DE80E000A460B4600F0E5F803B000BD39
:1006600070B5C1F30A5201F000450024C1F3130133
:1006700040F2FF3341F480119A4201DA002070BD4C
:1006800040F233439A42A2F2334203DC524200F07A
:1006900062F800E090402C43F1D0404270BDC1F3BD
:1006A0000A5210B5C1F3130140F2FF3341F4801137
:1006B0009A4201DA002010BD40F233439A42A2F27E
:1006C000334203DC524200F046F810BD904010BDAA
:1006D00030B5041E71F1000404DB4FF000444042C9
:1006E00064EB0101141E73F1000405DB1C464FF09E
:1006F0000043524263EB04038B4208BF824230BD89
:1007000001F0004330B421F0004150EA010206D06C
:100710000A0DA2F56072C1F31301002A02DC30BC9D
:1007200000207047440F44EAC104C100E01830BC07
:1007300000EBC25000F031B8202A04DB203A00FA66
:1007400002F1002070479140C2F1200320FA03F328
:10075000194390407047202A04DB203A21FA02F026
:100760000021704721FA02F3D040C2F120029140EB
:10077000084319467047202A06DBCB17203A41FA76
:1007800002F043EAE07306E041FA02F3D040C2F11E
:10079000200291400843194670470029A8BF7047BE
:1007A000401C490008BF20F00100704710B4B0FAA7
:1007B00080FC00FA0CF050EA010404BF10BC704742
:1007C00049B1CCF1200421FA04F411FA0CF118BF5C
:1007D000012121430843A3EB0C01CB1D4FEA00612B
:1007E0004FEA102042BF002010BC704700EBC350FE
:1007F00010440029A4BF10BC7047401C490008BF2A
:1008000020F0010010BC704710B5141E73F10004F5
:1008100008DA401C41F1000192185B411A4301D1F2
:1008200020F0010010BD2DE9F04D92469B4611B11C
:10083000B1FA81F202E0B0FA80F220329046FFF77E
:100840007BFF04460F4640EA0A0041EA0B0153468B
:100850005A46084313D0114653EA010019D0C8F193
:1008600040025046FFF777FF05460E465046594670
:100870004246FFF761FF084305D0012004E020460F
:100880003946BDE8F08D0020054346EAE0762C436A
:1008900037430A986305E40AA0EB08000022FD0A2A
:1008A00044EA47540A3002D500200146E9E7010531
:1008B00010196941DDE9084500196941BDE8F04DAD
:1008C000A2E70000064C074D06E0E06840F0010397
:1008D00094E8070098471034AC42F6D3FFF72CFC9D
:1008E0004C3100086C31000870B58C1810F8015BB1
:1008F00015F0070301D110F8013B2A1106D110F8B9
:10090000012B03E010F8016B01F8016B5B1EF9D1BC
:100910002B0705D40023521E0DD401F8013BFAE742
:1009200010F8013BCB1A921C03E013F8015B01F8AD
:10093000015B521EF9D5A142D8D3002070BD000042
:1009400008B50121102001F091F94020ADF8000018
:1009500018208DF8030003208DF8020069462E4808
:1009600000F086FD0121102001F080F94020ADF853
:10097000000004208DF8030003208DF80200694672
:10098000264800F075FD0121102001F06FF94FF4A9
:100990008070ADF8000018208DF8030003208DF85A
:1009A000020069461C4800F063FD0121102001F09F
:1009B0005DF94020ADF8000004208DF8030003200D
:1009C0008DF802006946164800F052FD012104200E
:1009D00001F04CF94FF48070ADF8000018208DF84C
:1009E000030003208DF8020069460C4800F040FD2A
:1009F0000121042001F03AF94FF40060ADF8000045
:100A000018208DF8030003208DF802006946034882
:100A100000F02EFD08BD000000100140000801405C
:100A2000000C014010B5FFF78BFF00F00FF900F04C
:100A300001F810BD00B58BB00121480301F016F993
:100A40000121022001F002F90121480301F00EF911
:100A50000121042001F0FAF80121C80201F006F991
:100A60000121C80201F002F9FF20ADF824000020A6
:100A7000ADF82000ADF82600ADF822008DF8280072
:100A800008A96E4801F02EFF08A96C4801F02AFF62
:100A900008A96B4801F026FF08A9694801F022FF68
:100AA00040F2E730ADF824004720ADF8200008A957
:100AB000644801F017FF08A9634801F013FF6020A4
:100AC000ADF810000120ADF812000420ADF81400BC
:100AD0006420ADF816000020ADF81800ADF81A003B
:100AE0004FF48070ADF81C000020ADF81E0004A982
:100AF000524801F02DFD04A9524801F07FFD04A9E0
:100B00004E4801F0DBFD04A94F4801F031FE04A975
:100B10004B4801F01DFD04A9494801F029FE0821B8
:100B2000464801F061FD0821464801F0B9FD082161
:100B3000424801F013FE0821434801F057FE082106
:100B40003F4801F051FD08213D4801F04FFE0020D3
:100B5000ADF80400ADF806000120ADF80800002053
:100B6000ADF80A00ADF80C0001A9364801F04BFEC3
:100B70005021344801F085FE0421324801F093FEF3
:100B80008021304801F086FE012202212D4801F02B
:100B9000D5FC02212B4801F0ADFC0121294801F0D0
:100BA000ACFC0020ADF80400ADF806000120ADF863
:100BB00008000020ADF80A00ADF80C0001A9224899
:100BC00001F021FE5021204801F05BFE04211E4867
:100BD00001F069FE80211C4801F05CFE0122022127
:100BE000194801F0ABFC0221174801F083FC0121F8
:100BF000154801F082FC0121104801F07EFC012122
:100C00000E4801F07AFC01210D4801F076FC01212B
:100C10000B4801F072FC0121084801F07AFC012127
:100C2000064801F076FC0121054801F072FC012123
:100C3000034801F06EFC0BB000BD00000034014021
:100C4000002C0140000400400008004008B54FF4AB
:100C5000A06000F0C5FD1D208DF8000000208DF87B
:100C600001008DF8020001208DF80300684600F0B5
:100C70007FFD1E208DF80000684600F079FD08BD5C
:100C800070B504460025002680218D4800F0E8FB61
:100C90004FF480618B4800F076FC50218A4801F0C7
:100CA000D5F850218848083801F0D0F840F2EE20FD
:100CB00001F032FA03E10421032001F0C9F8012810
:100CC00000D10126012E1CD10421032001F0C0F81F
:100CD000B8B96D1CA54213DA8021794800F0C0FB39
:100CE000B102784800F04FFC2621774801F0AEF8B9
:100CF00026217548083801F0A9F8642001F00CFAA3
:100D000000260721032001F0A3F820B107210420C9
:100D100001F09EF840B926216B4801F097F8262192
:100D20006948083801F092F80421032001F090F896
:100D300000285CD10421084601F08AF8012856D128
:100D40000121042001F084F848B10221042001F0BF
:100D50007FF820B10321042001F07AF8C8B912E02D
:100D600000215948083801F071F81C21564801F05B
:100D70006DF856480068401C5449086008460068F1
:100D8000022800DD00E0EBE700BF00204F490860CB
:100D900088E00521042001F05BF850B10621042011
:100DA00001F056F828B10721042001F051F800287D
:100DB00078D116E000214448083801F047F81C219A
:100DC000414801F043F880213D4800F0DCFB3F48FA
:100DD0000068401C3D49086008460068022800DDA4
:100DE00000E0E7E700BF0020384908605AE004212E
:100DF000032001F02DF8012854D10421084601F008
:100E000027F800284ED10021032001F021F848B92D
:100E10000621032001F01CF820B10721032001F076
:100E200017F8A8B912E00021274801F00FF81C219B
:100E30002548083801F00AF824480068401C234976
:100E4000086008460068022800DD00E0EBE729E0C2
:100E50000121032000F0FCFF48B10221032000F033
:100E6000F7FF20B10321084600F0F2FFD0B917E0E8
:100E70000021154800F0EAFF1C211348083800F053
:100E8000E5FF4FF480610F4800F0EAFA0F48006870
:100E9000401C0E49086008460068022800DD00E09A
:100EA000E6E700BFA54202DB01F0E4F870BD1420C4
:100EB00001F032F900F09AFD322001F02DF9FAE646
:100EC00000140140001001403C34014008010020A2
:100ED00000BFFEE73A490A780978491C384B197077
:100EE000384988540978552903D000211A461170D1
:100EF0007047334909780B2900DAF9E73149497815
:100F000050390A2956D2DFE801F0050D151D252DAF
:100F1000353D454D2C492B4A921C13680B60526895
:100F20004A6047E02949274A921C13680B605268BF
:100F30004A603FE02649234A921C13680B605268BE
:100F40004A6037E023491F4A921C13680B605268BD
:100F50004A602FE020491B4A921C13680B605268BC
:100F60004A6027E01D49174A921C13680B605268BB
:100F70004A601FE01A49134A921C13680B605268BA
:100F80004A6017E017490F4A921C13680B605268B9
:100F90004A600FE014490B4A921C13680B605268B8
:100FA0004A6007E01149074A921C13680B605268B7
:100FB0004A6000BF00BF0021014A117000BF97E7DF
:100FC0000401002080030020920000209A000020ED
:100FD000A2000020AA000020B2000020BA000020D9
:100FE000C4000020CC000020D4000020DC00002041
:100FF0007047000008B50121102000F037FE0121E4
:10100000202000F033FE0121080200F02FFE012114
:10101000042000F02BFE0121102000F027FE01210A
:10102000082000F023FE0121082000F01FFE01210E
:10103000082000F01BFE0121402000F017FE0121D6
:10104000802000F013FE0121080200F00FFE0121B4
:10105000042000F00BFE0121802000F007FE01219A
:10106000802000F003FE0121102000F0FFFD01218F
:10107000802000F0FBFD0121802000F0F7FD012120
:10108000802000F0F3FD0121802000F0EFFD012120
:10109000802000F0EBFD0121080200F0E7FD0121B6
:1010A000080200F0E3FD0121082000F0DFFD01212E
:1010B000082000F0DBFD0121080200F0D7FD01212E
:1010C000082000F0D3FD0121202000F0CFFD0121F8
:1010D000202000F0CBFD0121082000F0C7FD0121F8
:1010E000402000F0C3FD0121402000F0BFFD0121A0
:1010F000202000F0BBFD0121202000F0B7FD0121E0
:10110000202000F0B3FD0121202000F0AFFD0121DF
:10111000080200F0ABFD0121042000F0A7FD012131
:10112000042000F0A3FD0121102000F09FFD01210B
:10113000202000F09BFD0121202000F097FD0121DF
:10114000802000F093FD0121202000F08FFD01217F
:10115000402000F08BFD0121402000F087FD4FF47E
:101160008060ADF8000014208DF8030003208DF896
:1011700002006946B34800F07BF98020ADF800001A
:101180006946B14800F074F94FF48040ADF80000B2
:101190006946AE4800F06CF904208DF80300012088
:1011A000ADF800006946AA4800F062F904208DF805
:1011B0000300C002ADF800006946A24800F058F9EB
:1011C00010208DF803002020ADF800006946A148EA
:1011D00000F04EF90120ADF8000069469D4800F08E
:1011E00047F90220ADF8000069469A4800F040F93E
:1011F00004208DF803000220ADF8000069469648EF
:1012000000F036F94FF40060ADF8000069469348ED
:1012100000F02EF94FF48060ADF8000069468B486D
:1012200000F026F94FF48050ADF800006946884878
:1012300000F01EF98020ADF800006946874800F0F4
:1012400017F94020ADF800006946844800F010F915
:101250000220ADF8000069467A4800F009F9012043
:10126000ADF8000069467D4800F002F90420ADF8B1
:1012700000006946794800F0FBF81020ADF8000046
:101280006946764800F0F4F84FF48050ADF800005D
:101290006946724800F0ECF84FF48040ADF8000069
:1012A00069466E4800F0E4F84FF40050ADF80000D5
:1012B0006946694800F0DCF80420ADF80000694692
:1012C000624800F0D5F84FF40050ADF800006946D0
:1012D000604800F0CDF84FF40040ADF800006946DA
:1012E0005C4800F0C5F84FF40040ADF800006946D6
:1012F000564800F0BDF84FF40070ADF800006946A4
:10130000544800F0B5F84020ADF8000069464E485A
:1013100000F0AEF80820ADF8000069464A4800F039
:10132000A7F84FF48070ADF800006946494800F016
:101330009FF84FF40070ADF800006946464800F091
:1013400097F88020ADF800006946434800F090F817
:101350000120ADF8000069463B4800F089F84FF4E1
:101360008040ADF800006946374800F081F84FF43E
:101370000050ADF800006946334800F079F84FF4AA
:101380000060ADF8000069462F4800F071F81020A9
:10139000ADF8000069462D4800F06AF84FF400707F
:1013A000ADF800006946284800F062F84FF480501C
:1013B000ADF800006946284800F05AF84FF4804024
:1013C000ADF800006946244800F052F810208DF86E
:1013D0000300ADF8000069461D4800F049F82020E0
:1013E000ADF8000069461A4800F042F81020ADF848
:1013F00000006946134800F03BF84FF48060ADF8F8
:1014000000006946104800F033F84FF48070ADF8E2
:10141000000069460C4800F02BF84FF48070ADF8DE
:10142000000069460D4800F023F82021094800F02B
:10143000C7F80121074800F0C3F80221054800F071
:10144000BFF808BD00100140001401400020014019
:1014500000080140000C014000180140001C014040
:1014600070B504460D462946204600F0A9F870BD27
:101470002DE9F0410246002500260020002300242B
:10148000002791F803C00CF00F0591F803C00CF091
:10149000100CBCF1000F03D091F802C04CEA050516
:1014A00091F800C0BCF1000F31D0146800202BE08F
:1014B0004FF0010C0CFA00F3B1F800C00CEA03067F
:1014C0009E4220D183004FF00F0C0CFA03F7BC436F
:1014D00005FA03FC4CEA040491F803C0BCF1280FA0
:1014E00006D14FF0010C0CFA00FCC2F814C00AE05F
:1014F00091F803C0BCF1480F05D14FF0010C0CFA74
:1015000000FCC2F810C0401C0828D1D31460B1F808
:1015100000C0BCF1FF0F34DD546800202EE000F164
:10152000080C4FF0010808FA0CF3B1F800C00CEAFF
:1015300003069E4221D183004FF00F0C0CFA03F7F3
:10154000BC4305FA03FC4CEA040491F803C0BCF167
:10155000280F05D100F1080C08FA0CF8C2F8148025
:1015600091F803C0BCF1480F07D100F1080C4FF00F
:10157000010808FA0CF8C2F81080401C0828CED3E5
:101580005460BDE8F08170B504460D4629462046FA
:1015900000F014F870BD70B504460D46294620468B
:1015A00000F003F80646304670BD024600209368FE
:1015B0000B400BB1012000E00020704741617047F3
:1015C0000161704700BFFEE71CB50446062269466C
:1015D000432000F03DF89DF801009DF8001040EA1E
:1015E000012000B220809DF803009DF8021040EA1F
:1015F000012000B260809DF805009DF8041040EACB
:10160000012000B2A0801CBD70B50024002500BFE1
:1016100006E0002500E06D1CB5F57A7FFBDB641C5D
:10162000B4F57A7FF5DB00216B2000F03DF807214F
:10163000192000F039F806211A2000F035F80021B1
:101640001C2000F031F818211B2000F02DF870BD8F
:101650002DE9F04107460C46154601F0A7FCD020C5
:1016600001F07AFC01F0CAFC384601F075FC01F08B
:10167000C5FC01F09BFCD12001F06EFC01F0BEFC2A
:10168000002606E0012001F03FFC2070641C701C65
:10169000C6B2681EB042F5DC002001F035FC2070B7
:1016A00001F09CFCBDE8F08170B505460C4601F0E8
:1016B0007DFCD02001F050FC01F0A0FC284601F098
:1016C0004BFC01F09BFC204601F046FC01F096FC2F
:1016D00001F084FC70BD00BFFEE7000070B5064657
:1016E0000C4615461F2E01DC002C00DC70BD552079
:1016F0000B4948700870082088700320C8700120CA
:1017000008714C71201288710846C6710D7228123A
:1017100048720A21024801F073FB00BFE6E70000AF
:1017200000030020704708B54FF4A06000F058F89F
:1017300025208DF8000001208DF801008DF80200B1
:101740008DF80300684600F013F84FF4A06000F035
:1017500047F827208DF8000001208DF801008DF852
:1017600002008DF80300684600F002F808BD000092
:1017700070B5002100230F22C47804B3154C2468EF
:1017800004F4E064C4F5E064210AC1F10403CA4032
:10179000447804FA03F184781440214309010E4C83
:1017A0000678A155047804F01F050124AC400578A3
:1017B0006D11AD0005F1E025C5F8004109E00478A0
:1017C00004F01F050124AC40044D0678761145F85D
:1017D000264070BD0CED00E000E400E080E100E098
:1017E00002490143024A1160704700000000FA05F7
:1017F0000CED00E010B54FF480710B48FFF7C3FE0D
:101800004FF480710948FFF72BFE082000F084FC9C
:101810004FF480710448FFF7B6FE4FF4807103481F
:10182000FFF7B1FE10BD000000140140001C014094
:1018300010B54FF480710B48FFF712FE4FF4807122
:101840000948FFF7A0FE082000F066FC4FF4807105
:101850000448FFF798FE4FF480710348FFF793FEAA
:1018600010BD000000140140001C014010B54FF4F1
:1018700080710B48FFF7F4FD4FF480710948FFF7C2
:10188000EFFD082000F048FC4FF480710448FFF79A
:101890007AFE4FF480710348FFF775FE10BD00001B
:1018A00000140140001C014010B50120FFF7E8F9C9
:1018B0004FF4FA7000F030FC40F2B6324FF4FA7197
:1018C0000720FFF70BFF4FF4967000F025FC4FF454
:1018D000FA7211460F20FFF701FF4FF47A7000F003
:1018E0001BFCFFF787FF40F2DC5000F015FCFFF710
:1018F0009FFF40F24C4000F00FFC00F0A3FB4FF4C0
:10190000967000F009FCFFF7B1FF4FF47A7000F019
:1019100003FC01F039F84FF4487000F0FDFB00F0D3
:1019200079FB4FF42F7000F0F7FB4FF496624FF401
:10193000FA710F20FFF7D2FE40F2145000F0ECFBDA
:1019400001F02AF84FF4967000F0E6FB40F20E62C8
:101950004FF4FA710720FFF7C1FE4FF4967000F0C4
:10196000DBFB10BD10B540F6B83000F0D5FBFFF73B
:1019700041FF40F2DC5000F0CFFBFFF759FF4FF47E
:10198000C86000F0C9FBFFF771FF4FF47A7000F0F8
:10199000C3FB4FF47A6000F0BFFBFFF72BFF40F270
:1019A000DC5000F0B9FBFFF743FF4FF4C86000F0D4
:1019B000B3FBFFF75BFF4FF47A7000F0ADFB40F62E
:1019C000AC5000F0A9FBFFF715FF40F2DC5000F02F
:1019D000A3FBFFF72DFF4FF4C86000F09DFBFFF75E
:1019E00045FF4FF47A7000F097FB10BD2DE9F05FD2
:1019F00020217948FFF734FD01217748FFF730FDBA
:101A000002217548FFF7BFFD4FF400717348FFF7DF
:101A1000C2FD734908604FF480517248FFF7BBFD67
:101A20006F4948604FF480416E48FFF7B4FD6C4940
:101A30008860084600684968032202FB0100684983
:101A40008968052202FB01006749086008460068B2
:101A50000A2846D2DFE800F0121745451D0C45451F
:101A600005244FF066316148614AC2E900103DE04B
:101A7000604961485E4AC2E9001037E000215C4AD3
:101A80001160516032E05B495C48594AC2E900107C
:101A90002CE04FF066315A48554AC2E9001025E063
:101AA0004FF06632564B524903C9FEF711FE05D17D
:101AB000002154484E4AC2E9001011E04FF066324E
:101AC0004A4B4B4903C9FEF703FE05D100214E489E
:101AD000474AC2E9001003E00021454A1160516005
:101AE00004E00021424A1160516000BF00BF40483D
:101AF000D0E90010454AC2E900103D4844490CC8ED
:101B000003C9FEF70BFC424A03C242480068FEF7D5
:101B100096FD044636480CC82046FEF7A3FC3E4A14
:101B200003C23D483D490CC803C9FEF79EFC04466C
:101B30000D4637483A490CC803C9FEF796FC0646DD
:101B40000F46324837490CC803C9FEF78EFC804661
:101B500032463B46FEF7E2FB824622462B46FEF724
:101B6000DDFB314A03C2224903C9FEF779FD294949
:101B700008602D480CC82D482D49FEF776FC054617
:101B800000222C4BFEF7CAFB0746FEF788FD0446F1
:101B90002146294800F05AF923480CC8274828490B
:101BA000FEF763FC05460022224BFEF75BFC07466E
:101BB000FEF775FD044621461F48083800F046F937
:101BC00080210648FFF74CFC4FF480611D48FFF769
:101BD000DAFCBDE8F09F0000000C01400014014059
:101BE000B404002000180140E40100206666F6BF3E
:101BF000A00100209A9999999999E9BF9999E93F8B
:101C00006666F63F0000F83F0000F8BFA80100201C
:101C1000B0010020E0010020B8010020D001002028
:101C2000C8010020C0010020D8010020CDCCCCCCC0
:101C3000CCCCEC3F00C052403C3401407B14AE475A
:101C4000E17AE43F001001407047000029B1064AE4
:101C5000D2690243044BDA6104E0034AD269824349
:101C6000014BDA61704700000010024029B1064ABA
:101C700092690243044B9A6104E0034A92698243E9
:101C8000014B9A61704700000010024030B50021FE
:101C90000022002400232D4D6D6805F00C0121B1B8
:101CA000042905D0082923D105E0294D056022E04B
:101CB000274D05601FE0254D6D6805F47012234D1A
:101CC0006D6805F48034022505EB92421CB9214D64
:101CD000554305600BE01D4D6D6805F400351DB1E1
:101CE0001C4D5543056002E0194D5543056002E067
:101CF000174D056000BF00BF144D6D6805F0F00181
:101D00000909154D6B5C0568DD4045600F4D6D6838
:101D100005F4E061090A104D6B5C4568DD408560A3
:101D20000A4D6D6805F46051C90A0B4D6B5C45683E
:101D3000DD40C560054D6D6805F44041890B074DD8
:101D40006B5CC568B5FBF3F5056130BD0010024062
:101D500000127A0000093D00140000202400002039
:101D6000704710B500F002F810BD00000CB500205F
:101D7000019000903348006840F480303149086099
:101D800000BF3048006800F4003000900198401C0B
:101D90000190009818B90198B0F5A06FF1D12948C9
:101DA000006800F4003010B10120009001E0002034
:101DB00000900098012843D12348006840F01000AB
:101DC000214908600846006820F0030008600846C2
:101DD000006840F0020008601A48406819494860ED
:101DE0000846406848600846406840F480604860A3
:101DF0000846406820F47C1048600846406840F47B
:101E0000E81048600846006840F08070086000BF35
:101E10000C48006800F000700028F9D009484068BC
:101E200020F00300074948600846406840F002007F
:101E3000486000BF0348406800F00C000828F9D152
:101E40000CBD0000001002400020024001807047DD
:101E500070B505460C460026012D06D0022D34D063
:101E6000032D62D0042D6ED192E0082C2BD2DFE836
:101E700004F02A04090F151B202502215E48FFF7F4
:101E80008AFB70BD4FF400615C48FFF784FBF8E704
:101E90004FF480615A48FFF77EFBF2E74FF4805120
:101EA0005848FFF778FBECE780215448FFF773FBB5
:101EB000E7E740215148FFF76EFBE2E70221524875
:101EC000FFF769FBDDE700BF00BF082C2BD2DFE87E
:101ED00004F02A04090E13191F2501214748FFF7B2
:101EE0005AFBCEE704214548FFF755FBC9E710210F
:101EF0004248FFF750FBC4E74FF480513F48FFF7DB
:101F00004AFBBEE74FF480413C48FFF744FBB8E78B
:101F10004FF400513848FFF73EFBB2E70421384840
:101F2000FFF739FBADE700BF00BF082C2ED2DFE87A
:101F300004F02D040B11171D22274FF400513348D4
:101F4000FFF729FB9DE754E04FF400412F48FFF7CE
:101F500022FB96E74FF400412948FFF71CFB90E76E
:101F60004FF400712948FFF716FB8AE74021284803
:101F7000FFF711FB85E708212548FFF70CFB80E7F9
:101F80004FF480712148FFF706FB7AE700BF00BFDE
:101F9000082C2CD2DFE804F02B040A0F141A202698
:101FA0004FF400711448FFF7F6FA6AE780211248EF
:101FB000FFF7F1FA65E701211548FFF7ECFA60E752
:101FC0004FF480411248FFF7E6FA5AE74FF4005108
:101FD0000F48FFF7E0FA54E74FF400610C48FFF7B1
:101FE000DAFA4EE710210648FFF7D5FA49E700BFB5
:101FF00000BF002045E7000000180140001C014020
:10200000002001400008014000100140000C014088
:102010000014014010B54FF480410848FFF720FA42
:1020200050210748FFF712FF40F26C7000F074F87F
:1020300000210348FFF70AFF10BD00000020014007
:10204000402C014010B54FF480410848FFF79BFA3F
:1020500050210748FFF7FAFE40F26C7000F05CF880
:1020600000210348FFF7F2FE10BD000000200140F0
:10207000402C014010B580210F48FFF7F1F94FF4D3
:1020800080610E48FFF77FFA26210D48FFF7DEFE3C
:1020900026210B480838FFF7D9FE4FF4967000F060
:1020A0003BF800210648FFF7D1FE0021044808381C
:1020B000FFF7CCFE10BD00000014014000100140ED
:1020C0003C34014030B50146B1F1807F01D301209D
:1020D00030BD21F07F40401E4FF0E022506150178C
:1020E0000F22002807DA13071D0E094B00F00F041A
:1020F000241F1D5503E013071C0E064B1C5400BF84
:1021000000204FF0E0229061072010610020DFE7FF
:1021100018ED00E000E400E070B504460C48FFF75D
:10212000D1FF002508E000BF4FF0E020006900F477
:1021300080300028F8D06D1CA542F4D34FF0E02089
:10214000006920F001004FF0E021086170BD00003F
:10215000401901002DE9F05F1B48006868BB1B486F
:10216000FFF732FA1949B1F90400FEF768FA804620
:102170000022174BFEF773F906464FF0C042154B8D
:10218000FEF7E5F904464FF08042134BFEF76DF978
:102190008246FEF7B5FA1149086011490F480068F8
:1021A000FEF74CF804460F4801682046FDF7EEFFA5
:1021B0000C4908600120044908600B480078401C65
:1021C00009490870BDE8F09FE40000204A000020A3
:1021D000008039406666304033330B405C0000209D
:1021E0006F12833A700000209000002010B50A485A
:1021F00000684FF47A71B0FBF1F42046FFF762FFFC
:1022000008B100BFFEE74FF0E020006940F0010098
:102210004FF0E021086110BD0000002010B5134808
:10222000006840F001001149086008464068104904
:1022300008400E494860084600680E4908400B49AE
:1022400008600846006820F480200860084640685E
:1022500020F4FE0048604FF41F008860FFF781FD06
:102260004FF000600449086010BD000000100240FB
:102270000000FFF8FFFFF6FE08ED00E0F0B50C46A9
:10228000154600220021068C4FF6FE773E4006845C
:10229000028B018C4FF60C7632407E1C06EA031648
:1022A0002E433243104EB0420ED0104EB0420BD0EF
:1022B000B0F1804F08D00E4EB04205D00D4EB04266
:1022C00002D00D4EB04206D14FF6FD76314044F0BB
:1022D0000106314305E04FF6F576314044F0010642
:1022E000314302830184F0BD002C014000340140E1
:1022F0000004004000080040000C0040F0B50C460F
:102300001546002200210026078C4FF6EF7C07EAD5
:102310000C070784028B018C4FF6FF7707EA04163F
:1023200040F6FF473A404FF6FF7707EA03373A4354
:102330004FF6FF7707EA05273A43114FB8420ED010
:10234000104FB8420BD0B0F1804F08D00E4FB842BA
:1023500005D00E4FB84202D00D4FB84206D14FF60D
:10236000DF77394046F01007394305E04FF65F77D5
:10237000394044F01007394302830184F0BD000066
:10238000002C0140003401400004004000080040DF
:10239000000C004070B50221234800F0ABF8224841
:1023A00000F0C6F8214908801F4800F0C4F8204911
:1023B00008801E48008800B31C480088401CFEF7B7
:1023C00035F904461A490988491C642201FB02F0C8
:1023D000FEF72CF905462146FDF762FF1549086016
:1023E00012480088401CFEF721F904462146124895
:1023F000FDF756FF1149086010E000200D49086004
:102400000E49086020210E48FFF7BDF801210C4855
:10241000FFF726F802210A48FFF722F802210248B6
:1024200000F068F870BD000000040040EE000020DD
:10243000EC0000202C0000204054894C300000208B
:10244000000C014070B50221234800F053F82248E7
:1024500000F06EF8214908801F4800F06CF8204910
:1024600008801E48008800B31C480088401CFEF706
:10247000DDF804461A490988491C642201FB02F070
:10248000FEF7D4F805462146FDF70AFF1549086016
:1024900012480088401CFEF7C9F80446214612483D
:1024A000FDF7FEFE1149086010E000200D490860AC
:1024B0000E49086020210E48FFF765F801210C48FD
:1024C000FEF7CEFF02210A48FEF7CAFF02210248AA
:1024D00000F010F870BD000000080040F20000207D
:1024E000F0000020340000204054894C38000020C7
:1024F000000C0140CA430282704721B1028842F0B9
:102500000102028004E002884FF6FE731A40028046
:10251000704731B1B0F8442042F40042A0F84420A2
:1025200005E0B0F84420C2F30E02A0F84420704742
:102530000146888E70470146088F70471AB183891B
:102540000B43838102E083898B43838170470000C2
:1025500070B5002400220023058C4FF6FE7635402E
:102560000584028C8388048B4FF68F752C40B51E32
:102570002C400D882C43751E2A400D892A434D8816
:102580002A43144DA8420BD0134DA84208D0134D36
:10259000A84205D0124DA84202D0124DA84213D134
:1025A0004FF6F7752A404D892A434FF6FB752A40AE
:1025B0008D882A434FF6FF652B404FF6FF552B4081
:1025C0008D892B43CD892B4383800483CD888586D9
:1025D000028470BD002C01400034014000400140E5
:1025E00000440140004801400A460021018B4FF69B
:1025F000F7731940114301837047000070B5002440
:1026000000220023058C4FF6EF7635400584028CBE
:102610008388048B48F6FF752C404FF6FF452C400D
:102620000D884FF6FF7606EA05252C434FF6DF7539
:102630002A400D8906EA05152A434D8806EA051544
:102640002A43154DA84202D0144DA8421DD14FF681
:102650007F752A404D894FF6FF7606EA05152A4315
:102660004FF6BF752A408D8806EA05152A434FF6B6
:10267000FF352B404FF2FF752B408D8906EA85050B
:102680002B43CD8906EA85052B4383800483CD88BF
:102690000587028470BD0000002C01400034014019
:1026A0000A460021018B4FF2FF7319404FF6FF736A
:1026B00003EA0223194301837047000070B5002428
:1026C00000220023058C4FF6FF6635400584028CFE
:1026D0008388848B4FF68F752C404FF6FC752C4009
:1026E0000D882C434FF6FF552A400D894FF6FF7693
:1026F00006EA05252A434D8806EA05252A43154D95
:10270000A84202D0144DA8421DD14FF2FF752A40B5
:102710004D894FF6FF7606EA05252A434FF6FF3529
:102720002A408D8806EA05252A434EF6FF752B4080
:102730004DF6FF752B408D8906EA05152B43CD8993
:1027400006EA05152B4383808483CD888587028420
:1027500070BD0000002C0140003401400A460021F9
:10276000818B4FF6F7731940114381837047000046
:1027700070B5002200230024058C4EF6FF7635400C
:102780000584038C8488828B48F6FF752A404FF6B7
:10279000FF452A400D884FF6FF7606EA05252A43B5
:1027A0004DF6FF752B400D8906EA05352B434D8804
:1027B00006EA05352B430B4DA84202D00A4DA8422C
:1027C00008D14BF6FF752C408D894FF6FF7606EA4F
:1027D00085152C4384808283CD88A0F840500384E3
:1027E00070BD0000002C0140003401400A46002169
:1027F000818B4FF2FF7319404FF6FF7303EA0223F8
:102800001943818370472DE9F04105460C460026A7
:102810000127608808B9022600E00026A088012868
:1028200001D1022700E001272088A0B92389A288CE
:1028300061882846FFF722FDE188284600F03CF831
:1028400023893A4631462846FFF758FDE188284655
:1028500000F03BF813E02389A28861882846FFF73F
:102860004DFDE188284600F030F823893A4631468C
:102870002846FFF703FDE188284600F01DF8BDE873
:10288000F0810A46002101894FF68F7319401143E8
:102890000181704702894FF67F731A4002810289D5
:1028A0000A430281704702894FF6F8731A40028189
:1028B00002890A4302817047028B4FF6F3731A4074
:1028C0000283028B0A4302837047028B4FF2FF336D
:1028D0001A400283028B4FF6FF7303EA01231A4367
:1028E00002837047002202881D4B98420ED01D4B78
:1028F00098420BD0B0F1804F08D01B4B984205D0C6
:102900001A4B984202D01A4B984204D14FF68F735B
:102910001A404B881A43174B984207D0164B9842DF
:1029200004D04FF6FF431A40CB881A4302808B88AD
:1029300083850B8803850A4B98420BD0094B98423C
:1029400008D00E4B984205D00D4B984202D00D4B4B
:10295000984201D10B7A03860123838270470000DD
:10296000002C0140003401400004004000080040F9
:10297000000C0040001000400014004000400140E6
:10298000004401400048014010B580210148FFF794
:102990005DFA10BD342C014010B500210148FFF74D
:1029A00055FA10BD342C014010B540F2277126486D
:1029B00000F0ACF840F22551234800F0A7F840F2AF
:1029C0002771214800F057F9E0B1204802780078DB
:1029D000401C1E4B18701E48815C1B4800F00BFA0F
:1029E00040F22771184800F091F81848007819490A
:1029F0000978884222D1002240F22771124800F063
:102A000064F91BE040F225510F4800F034F9A8B1F9
:102A100020211148FEF7B7FD01210F48FEF7B3FD55
:102A200002210D48FEF7AFFD07498988C8B2FEF7BD
:102A300051FA40F22551044800F068F84FF45871FB
:102A4000014800F063F810BD005000403C00002039
:102A5000E80100203D000020000C014010B540F2CC
:102A60002551234800F007F900283FD001212148D3
:102A7000FEF789FD20211F48FEF785FD02211D4834
:102A8000FEF781FD1A4800F0B1F91B491B4A127884
:102A900088540846194A1278815C194800F0CAF92E
:102AA00016480078401C1549087013480078112812
:102AB00001D00020087011480078022806D10E4885
:102AC0004078122802D000200C4908700B4800788A
:102AD00008280BDB0948027807490A48FDF744FB40
:102AE00000200649087001200749086010BD000059
:102AF00000480040000C0140F4000020FC000020D1
:102B000000380140820000208C00002010B5002217
:102B1000002340F66A14A14200D100BF0A1201242A
:102B20009440A3B2DC43048010BD21B1828942F4F9
:102B30000052828104E082894DF6FF731A4082813F
:102B40007047000000B585B001210420FFF78EF822
:102B500001218803FFF78AF84FF40070ADF81000E8
:102B600018208DF8130003208DF8120004A93748AF
:102B7000FEF77EFC4FF48060ADF8100004208DF865
:102B8000130004A93148FEF773FC01210820FFF768
:102B90006DF801218804FFF759F84FF48060ADF813
:102BA000100018208DF8130003208DF8120004A9DE
:102BB0002748FEF75DFC4FF40060ADF810000420DC
:102BC0008DF8130004A92248FEF752FC4FF416506A
:102BD00000900020ADF80400ADF80600ADF8080044
:102BE000ADF80C000C20ADF80A006946194800F059
:102BF00091F8FEF798FD012240F22551154800F0AA
:102C000064F801211348FFF790FF4FF4E130009082
:102C10000020ADF80400ADF80600ADF80800ADF8EE
:102C20000C000C20ADF80A0069460B4800F072F861
:102C3000FEF779FD012240F22551074800F045F8E2
:102C400001210548FFF771FF05B000BD00080140F4
:102C5000000C0140003801400048004002460020BE
:102C6000B1F5007F00D100BF13880B400BB10120EC
:102C700000E00020704770B50246002400230025C4
:102C8000002040F66A16B14200D100BFC1F34215E0
:102C900001F01F03012606FA03F3012D02D19689E4
:102CA000334006E0022D02D1168A334001E0968AB5
:102CB00033400C12012606FA04F41688344013B18E
:102CC0000CB1012000E0002070BDF0B503460024E7
:102CD00000260025002040F66A17B94200D100BF47
:102CE0001846C1F3421401F01F06012707FA06F542
:102CF000012C01D10C3004E0022C01D1103000E095
:102D000014301AB107682F43076002E00768AF4329
:102D10000760F0BD2DE9F04786B005460E46002459
:102D2000A24600BFA1460027B08900B100BF2F46D0
:102D30002C8A4CF6FF700440F08804432C82AC8946
:102D40004EF6F3100440B088318908437189084376
:102D50000443AC81AC8A4FF6FF400440B089044381
:102D6000AC8201A8FEF792FF1F48874202D1DDF82E
:102D700010A001E0DDF80CA0A88900F4004040B1EB
:102D80000AEBCA0000EB0A1031684900B0FBF1F809
:102D900007E00AEBCA0000EB0A1031688900B0FBBB
:102DA000F1F86420B8FBF0F004012009642101FB74
:102DB0001089A88900F4004040B1322000EBC9001E
:102DC000B0FBF1F000F00700044308E0322000EB14
:102DD00009106421B0FBF1F000F00F0004432C81D6
:102DE00006B0BDE8F0870000003801400146888841
:102DF000C0F308007047C1F30802828070470000EA
:102E000070B504460D460BE000BF0848008800F08E
:102E100040000028F9D014F8011B0448FFF7EBFF2D
:102E2000281EA5F10101CDB2EED170BD00380140E0
:102E300000BFFEE770B504460D4629462046FFF761
:102E4000DAFF00BF80212046FFF708FF0028F9D0F5
:102E500070BD02E008C8121F08C1002AFAD17047ED
:102E60007047002001E001C1121F002AFBD170470A
:102E700010B580200949086000F012F84020074989
:102E8000091F086000F00CF840200449086000F0B9
:102E900007F880200149091F086010BD140C01408B
:102EA000002001E0411CC8B20A28FBDB704700008B
:102EB00008B501210820FEF7D9FEC020ADF80000BA
:102EC00003208DF8020014208DF8030069460348A2
:102ED000FEF7CEFA00F082F808BD0000000C0140B9
:102EE00010B5802007490860FFF7DAFF4020054948
:102EF0000860FFF7D5FF40200249091D0860FFF771
:102F0000CFFF10BD100C014070B50546002400260F
:102F100016E06006040E40200E490860FFF7C0FF6F
:102F20000C480838006800F0800008B1601CC4B28A
:102F300040200849091D0860FFF7B2FF701CC6B2A7
:102F4000082EE6DB15B9FFF7CBFF01E0FFF790FF96
:102F5000204670BD100C014070B50446002520E0ED
:102F600004F0800018B180200F49086003E0802041
:102F70000D49091D0860FFF793FF40200A490860CA
:102F8000FFF78EFF40200849091D0860072D02D178
:102F90008020091F08606006040EFFF781FF681C8F
:102FA000C5B2082DDCDB70BD100C014010B58020CF
:102FB0000949086040200860FFF772FF8020064939
:102FC000091D0860FFF76CFF40200349091D0860D8
:102FD000FFF766FF10BD0000100C014010B5802007
:102FE000054908604020091F0860FFF759FF80204D
:102FF0000149091F086010BD140C014010B5802064
:103000000C490860FFF74CFF40200A490860FFF7B1
:1030100047FF08480838006800F0800008B1012424
:1030200000E0002440200349091D0860FFF738FF35
:10303000204610BD100C014010B500F049F83DE0ED
:1030400001212048FEF7A7FA01280AD101211E48D4
:10305000FEF799FA20211C48FEF702FA00F072F8F8
:103060002DE001211748FEF796FA38BB4FF40051C6
:103070001648FEF790FA01280AD120211248FEF7DF
:1030800082FA01211048FEF7EBF9FEF76BFC0DE028
:103090004FF400510D48FEF77EFA38B920210A4856
:1030A000FEF771FA01210848FEF7DAF920210648F7
:1030B000FEF769FA01210448FEF7D2F9C0E700BF24
:1030C000002010BD00080140000C0140001001402C
:1030D00010B5FDF78FFFFDF7A5FCFFF787F8FFF7A9
:1030E00031FDFFF7E5FEFEF78FFA00211148FEF7EC
:1030F000ADFE00210F480830FEF7A8FE00210E4863
:10310000FEF7A4FE00210C480C30FEF79FFE4FF4A2
:1031100080710A48FEF737FA4FF480710848FEF7CD
:1031200032FA4FF496624FF4FA710F20FEF7D6FA96
:1031300010BD000034340140342C01400014014023
:10314000001C014010B5FEF7AFFB10BD6C3100084C
:1031500000000020E8010000E8080008983100089D
:10316000E8010020D8060000622E00081184A24A5F
:1031700004680901020304060708090C69100550D8
:10318000020406081DFFAA01010501B76324400BD4
:0831900084F03F480A1F2648A5
:0400000508000131BD
:00000001FF
