:020000040800F2
:10000000F808002045010008E11A00084115000821
:10001000931A0008E10C000881320008000000007B
:100020000000000000000000000000003122000875
:10003000010E000800000000E51E0008C5250008AC
:100040005F0100085F0100085F0100085F01000810
:100050005F0100085F0100085F0100085F01000800
:100060005F0100085F0100085F0100085F010008F0
:100070005F0100085F0100085F0100085F010008E0
:100080005F0100085F0100085F0100085F010008D0
:100090005F0100085F0100085F0100085F010008C0
:1000A0005F0100085F0100085F0100085F010008B0
:1000B0005F01000805280008B52800085F01000856
:1000C0005F0100085F0100085F0100085F01000890
:1000D0005F0100085F0100085F010008AD2E000805
:1000E0005F0100085F0100085F0100085F01000870
:1000F0005F0100085F0100085F0100085F01000860
:100100005F0100085F0100085F0100085F0100084F
:100110005F010008F92D00085F0100085F01000879
:100120005F0100085F0100085F0100085F0100082F
:10013000DFF80CD000F0F6FB004800473538000827
:10014000F80800200648804706480047FEE7FEE71B
:10015000FEE7FEE7FEE7FEE7FEE7FEE7FEE7FEE777
:100160008D2600083101000840EA01039B0703D0F7
:1001700009E008C9121F08C0042AFAD203E011F8E6
:10018000013B00F8013B521EF9D27047F0B480EAFF
:100190000102D40F4200B2EB410F02D202460846E0
:1001A00011464A0042D0C30DDDB2C1F3C752AD1AA9
:1001B000202D35DAC1F3160141F4000204B1524298
:1001C000C5F1200602FA06F12A411044B3EBD05FD4
:1001D00023D0C4B1012DA0EBC35009DCF0BC4FF01B
:1001E000004202EAC352DBB200F5000000F00EBB91
:1001F000400000F1807000EBC350A0F1807040EA35
:10020000D170490009E0490841EAC071A0EBC35030
:1002100000F50000400800EBC350F0BC00F0EDBA60
:100220006142012202EB4101001BF6E7F0BC70477E
:1002300081F00041AAE780F00040A7E780EA0102D0
:1002400010B502F00043400022D04A001FD0010E3A
:1002500001EB1261C0F35600C2F3560240F40000F5
:1002600042F40002A0FB022000047F39140400D0F5
:10027000401C50EA124001D44000491EC2B20C0694
:1002800004EBD010401C4008802A02D003E000207C
:1002900010BD20F00100002900DA0020184310BD35
:1002A00030B480EA010202F0004530F0004221F053
:1002B000004013D090B1C30DD40DC2F31601C0F3AA
:1002C0001600E41A41F4000140F400027D3491422A
:1002D00001D3641C00E04900002C02DA30BC00208D
:1002E00070474FF400000023914201D3891A034361
:1002F00040084FEA4101F7D151B1914202D14FF08C
:10030000004105E002D24FF0010101E06FF0010170
:1003100003EBC450284430BC00F06FBA2DE9FE4F07
:10032000804681EA0300C00F0C46009021F0004196
:1003300023F00045B8EB0200A94105D24046214612
:1003400090461C460B46024623F00040104347D01F
:10035000270DC7F30A00C3F30A510290401A019017
:1003600040286BDAC3F3130040F4801B00989246D8
:1003700020B10023D2EB030A63EB0B0B0198594623
:10038000C0F14002504600F007FA06460D465046BE
:100390005946019A00F01FFA10EB08006141002451
:1003A00087EA115284EAE7731A4340D0009A62B395
:1003B000019A012A4FEA075215DC001B61EB02018A
:1003C0004FF0004202EA0752CDE90042001C41F51D
:1003D000801132462B4600F056FA03B0BDE8F08F8C
:1003E00040462146F9E7001B61EB0201001C41F584
:1003F000801300185B412018A2F5001747EB03019A
:1004000040EAD570B6196D4111E06D084FEA360625
:1004100045EAC0754FEA0752001B61EB0201001C60
:1004200041F5801149084FEA300000195141324628
:100430002B4603B0BDE8F04F00F016BA0098012239
:1004400040000023D0EB020263EBE07300982146EA
:100450004FEAE074B8EB000061EB0401E9E783F0D8
:1004600000435BE781F0004158E72DE9FE4F81EA48
:10047000030404F0004421F0004100944FF0000B0D
:1004800023F0004350EA01045ED052EA03045BD03B
:10049000C3F30A54C1F30A552C44A4F2F334019473
:1004A000A0FB0254C1F3130141F48011C3F3130301
:1004B00043F4801301FB024400FB034E840A970AB5
:1004C00044EA815447EA8357A4FB076802958D0AE2
:1004D00005FB07854FEA932C04FB0C542705029D6E
:1004E0004FEA065847EA1637B5EB08056EEB070CDE
:1004F000870E920E47EA811742EA8312A7FB020198
:10050000B6EB0B0164EB00042B0D43EA0C335E18D1
:1005100044EB1C50DA465146E7FB0201C5F31304D5
:100520004FEA0B3343EA14534FEA0432019C43EA87
:100530000603A4F10C040294009CCDE900B400F081
:10054000A2F903B0BDE8F08F00200146F9E72DE9DC
:10055000F04D81EA030404F0004B21F000451446FD
:100560004FF0000A23F0004150EA050220D054EA7F
:1005700001021DD0C5F30A570246C5F31303C1F3A8
:100580001300C1F30A5640F4801543F48013A7EB1F
:100590000608101BD64608F2FD3873EB050002D39F
:1005A00008F1010801E092185B41B8F1000F03DA8D
:1005B00000200146BDE8F08D00204FF48011064672
:1005C00084460EE0171B73EB050705D3121B63EB84
:1005D000050306434CEA010C49084FEA3000921823
:1005E0005B4150EA0107EDD152EA030012D082EAE2
:1005F000040083EA0501084305D0101BAB4106D275
:100600000122002306E000224FF0004302E06FF0D9
:10061000010253101AEB06004CEB085110EB0A00D4
:1006200041EB0B01BDE8F04D00F01EB9C10F80EAAF
:10063000E0700844CA079623002100F0E7B80EB521
:10064000C10F80EAE0700844CA07002140F233433A
:100650008DE80E000A460B4600F015F903B000BD08
:1006600000F0004220F00040C10DC0F3160040F43D
:1006700000007F2901DA00207047962903DCC1F1D0
:100680009601C84001E096398840002AF4D04042E3
:10069000704770B5C1F30A5201F000450024C1F360
:1006A000130140F2FF3341F480119A4201DA002035
:1006B00070BD40F233439A42A2F2334203DC52420D
:1006C00000F079F800E090402C43F1D0404270BD3A
:1006D000C1F30A5210B5C1F3130140F2FF3341F4E4
:1006E00080119A4201DA002010BD40F233439A4251
:1006F000A2F2334203DC524200F05DF810BD90409C
:1007000010BD000030B5041E71F1000404DB4FF091
:100710000044404264EB0101141E73F1000405DB48
:100720001C464FF00043524263EB04038B4208BF68
:10073000824230BD01F0004330B421F0004150EA64
:10074000010206D00A0DA2F56072C1F31301002A5E
:1007500002DC30BC00207047440F44EAC104C100F1
:10076000E01830BC00EBC25000F047B830B50B4683
:10077000014600202022012409E021FA02F59D42D1
:1007800005D303FA02F5491B04FA02F52844151EA5
:10079000A2F10102F1DC30BD202A04DB203A00FA8C
:1007A00002F1002070479140C2F1200320FA03F3C8
:1007B000194390407047202A04DB203A21FA02F0C6
:1007C0000021704721FA02F3D040C2F1200291408B
:1007D000084319467047202A06DBCB17203A41FA16
:1007E00002F043EAE07306E041FA02F3D040C2F1BE
:1007F000200291400843194670470029A8BF70475E
:10080000401C490008BF20F00100704710B4B0FA46
:1008100080FC00FA0CF050EA010404BF10BC7047E1
:1008200049B1CCF1200421FA04F411FA0CF118BFFB
:10083000012121430843A3EB0C01CB1D4FEA0061CA
:100840004FEA102042BF002010BC704700EBC3509D
:1008500010440029A4BF10BC7047401C490008BFC9
:1008600020F0010010BC704710B5141E73F1000495
:1008700008DA401C41F1000192185B411A4301D192
:1008800020F0010010BD2DE9F04D92469B4611B1BC
:10089000B1FA81F202E0B0FA80F220329046FFF71E
:1008A0007BFF04460F4640EA0A0041EA0B0153462B
:1008B0005A46084313D0114653EA010019D0C8F133
:1008C00040025046FFF777FF05460E465046594610
:1008D0004246FFF761FF084305D0012004E02046AF
:1008E0003946BDE8F08D0020054346EAE0762C430A
:1008F00037430A986305E40AA0EB08000022FD0ACA
:1009000044EA47540A3002D500200146E9E70105D0
:1009100010196941DDE9084500196941BDE8F04D4C
:10092000A2E70000064C074D06E0E06840F0010336
:1009300094E8070098471034AC42F6D3FFF7FCFB6D
:100940006C7400088C74000870B58C1810F8015B8A
:1009500015F0070301D110F8013B2A1106D110F858
:10096000012B03E010F8016B01F8016B5B1EF9D15C
:100970002B0705D40023521E0DD401F8013BFAE7E2
:1009800010F8013BCB1A921C03E013F8015B01F84D
:10099000015B521EF9D5A142D8D3002070BD0000E2
:1009A00008B50121102001F0AFFA4020ADF8000099
:1009B00018208DF8030003208DF8020069462E48A8
:1009C00000F0EAFC0121102001F09EFA4020ADF871
:1009D000000004208DF8030003208DF80200694612
:1009E000264800F0D9FC0121102001F08DFA4FF4C7
:1009F0008070ADF8000018208DF8030003208DF8FA
:100A0000020069461C4800F0C7FC0121102001F0DB
:100A10007BFA4020ADF8000004208DF8030003208D
:100A20008DF802006946164800F0B6FC012104204A
:100A300001F06AFA4FF48070ADF8000018208DF8CC
:100A4000030003208DF8020069460C4800F0A4FC66
:100A50000121042001F058FA4FF40060ADF80000C5
:100A600018208DF8030003208DF802006946034822
:100A700000F092FC08BD0000001001400008014099
:100A8000000C014010B5FFF78BFF00F00FF900F0EC
:100A900001F810BD00B58BB00121480301F034FA14
:100AA0000121022001F020FA0121480301F02CFA73
:100AB0000121042001F018FA0121C80201F024FAF2
:100AC0000121C80201F020FAFF20ADF82400002027
:100AD000ADF82000ADF82600ADF822008DF8280012
:100AE00008A96E4802F036F908A96C4802F032F9FC
:100AF00008A96B4802F02EF908A9694802F02AF902
:100B000040F2E730ADF824004720ADF8200008A9F6
:100B1000644802F01FF908A9634802F01BF960203D
:100B2000ADF810000120ADF812000420ADF814005B
:100B30006420ADF816000020ADF81800ADF81A00DA
:100B40004FF48070ADF81C000020ADF81E0004A921
:100B5000524801F035FF04A9524801F087FF04A96B
:100B60004E4801F0E3FF04A94F4802F039F804A908
:100B70004B4801F025FF04A9494802F031F808214B
:100B8000464801F069FF0821464801F0C1FF0821ED
:100B9000424802F01BF80821434802F05FF80821A0
:100BA0003F4801F059FF08213D4802F057F8002066
:100BB000ADF80400ADF806000120ADF808000020F3
:100BC000ADF80A00ADF80C0001A9364802F053F860
:100BD0005021344802F08DF80421324802F09BF88D
:100BE0008021304802F08EF8012202212D4801F0C8
:100BF000DDFE02212B4801F0B5FE0121294801F05C
:100C0000B4FE0020ADF80400ADF806000120ADF8F8
:100C100008000020ADF80A00ADF80C0001A9224838
:100C200002F029F85021204802F063F804211E4800
:100C300002F071F880211C4802F064F801220221C0
:100C4000194801F0B3FE0221174801F08BFE012183
:100C5000154801F08AFE0121104801F086FE0121AD
:100C60000E4801F082FE01210D4801F07EFE0121B7
:100C70000B4801F07AFE0121084801F082FE0121B3
:100C8000064801F07EFE0121054801F07AFE0121AF
:100C9000034801F076FE0BB000BD000000340140B7
:100CA000002C0140000400400008004008B54FF44B
:100CB000A06000F073FF1D208DF8000000208DF86B
:100CC00001008DF8020001208DF80300684600F055
:100CD0002DFF1E208DF80000684600F027FF08BD9C
:100CE00000BFFEE73A490A780978491C384B197069
:100CF000384988540978552903D000211A461170C3
:100D00007047334909780B2900DAF9E73149497806
:100D100050390A2956D2DFE801F0050D151D252DA1
:100D2000353D454D2C492B4A921C13680B60526887
:100D30004A6047E02949274A921C13680B605268B1
:100D40004A603FE02649234A921C13680B605268B0
:100D50004A6037E023491F4A921C13680B605268AF
:100D60004A602FE020491B4A921C13680B605268AE
:100D70004A6027E01D49174A921C13680B605268AD
:100D80004A601FE01A49134A921C13680B605268AC
:100D90004A6017E017490F4A921C13680B605268AB
:100DA0004A600FE014490B4A921C13680B605268AA
:100DB0004A6007E01149074A921C13680B605268A9
:100DC0004A6000BF00BF0021014A117000BF97E7D1
:100DD00034010020B4030020920000209A0000207B
:100DE000A2000020AA000020B2000020BA000020CB
:100DF000C4000020CC000020D4000020DC00002033
:100E00007047000070B50546002400268021474841
:100E100000F04DFB4FF48061454800F0B5FA4E21DB
:100E2000444801F07BFA55214248083801F076FA2F
:100E300040F2EE2001F0A8FB76E00421032001F04F
:100E40006FFA012800D10126012E15D102210120BF
:100E500001F066FA20B90621012001F061FA48B1DB
:100E60000121084601F05CFA30B90721012001F0A8
:100E700057FA08B9641C00260321084601F050FA0D
:100E800020B10321042001F04BFA58B9262129484A
:100E900001F044FA2D212748083801F03FFAFA20E2
:100EA00001F072FB0421032001F03AFA98B9042101
:100EB000084601F035FA01280DD10AE000211D484D
:100EC000083801F02BFA0421084601F029FA00B98C
:100ED00000E0F3E717E00421032001F021FA0128E4
:100EE00011D10421084601F01BFA60B909E0002184
:100EF000104801F013FA0421032001F011FA00B99F
:100F000000E0F4E700BFAC4202DB01F0EBFA70BD99
:100F10000A2001F039FB2146012000F0A3FC00F07B
:100F200047FE322001F030FB87E70000001401404B
:100F3000001001403C34014008B50121102000F0B0
:100F4000E3FF0121202000F0DFFF0121080200F073
:100F5000DBFF0121042000F0D7FF0121082000F071
:100F6000D3FF0121082000F0CFFF0121082000F06D
:100F7000CBFF0121402000F0C7FF0121802000F0BD
:100F8000C3FF0121080200F0BFFF0121042000F08F
:100F9000BBFF0121802000F0B7FF0121802000F07D
:100FA000B3FF0121102000F0AFFF0121802000F0ED
:100FB000ABFF0121802000F0A7FF0121802000F07D
:100FC000A3FF0121802000F09FFF0121802000F07D
:100FD0009BFF0121080200F097FF0121080200F0A9
:100FE00093FF0121082000F08FFF0121082000F06D
:100FF0008BFF0121080200F087FF0121082000F08B
:1010000083FF0121202000F07FFF0121202000F03C
:101010007BFF0121082000F077FF0121402000F034
:1010200073FF0121402000F06FFF0121202000F01C
:101030006BFF0121202000F067FF0121202000F03C
:1010400063FF0121202000F05FFF0121080200F072
:101050005BFF0121042000F057FF0121042000F074
:1010600053FF0121102000F04FFF0121202000F04C
:101070004BFF0121202000F047FF0121802000F0DC
:1010800043FF0121202000F03FFF0121402000F01C
:101090003BFF0121402000F037FF4FF48060ADF8A6
:1010A000000014208DF8030003208DF8020069462B
:1010B000AE4800F071F98020ADF800006946AC48F8
:1010C00000F06AF94FF48040ADF800006946A94885
:1010D00000F062F904208DF803000120ADF8000053
:1010E0006946A54800F058F910208DF8030020202B
:1010F000ADF800006946A14800F04EF90120ADF8B6
:10110000000069469D4800F047F90220ADF8000054
:1011100069469A4800F040F904208DF80300022047
:10112000ADF800006946964800F036F94FF40060CB
:10113000ADF800006946934800F02EF94FF4806046
:10114000ADF8000069468B4800F026F94FF4805056
:10115000ADF800006946884800F01EF98020ADF81F
:1011600000006946874800F017F94020ADF80000FC
:101170006946844800F010F90220ADF80000694685
:101180007A4800F009F90120ADF8000069467D4871
:1011900000F002F90420ADF800006946794800F03B
:1011A000FBF81020ADF800006946764800F0F4F82E
:1011B0004FF48050ADF800006946724800F0ECF83A
:1011C0004FF48040ADF8000069466E4800F0E4F846
:1011D0004FF40050ADF800006946694800F0DCF8B3
:1011E0000420ADF800006946624800F0D5F84FF4DD
:1011F0000050ADF800006946604800F0CDF84FF4AB
:101200000040ADF8000069465C4800F0C5F84FF4B6
:101210000040ADF800006946564800F0BDF84FF4B4
:101220000070ADF800006946544800F0B5F8402061
:10123000ADF8000069464E4800F0AEF80820ADF861
:10124000000069464A4800F0A7F84FF48070ADF8F6
:1012500000006946494800F09FF84FF40070ADF86F
:1012600000006946464800F097F88020ADF800007D
:101270006946434800F090F80120ADF80000694647
:101280003B4800F089F84FF48040ADF80000694613
:10129000374800F081F84FF40050ADF8000069467F
:1012A000334800F079F84FF40060ADF8000069466B
:1012B0002F4800F071F81020ADF8000069462D4865
:1012C00000F06AF84FF40070ADF800006946284855
:1012D00000F062F84FF48050ADF8000069462848ED
:1012E00000F05AF84FF48040ADF8000069462448F9
:1012F00000F052F810208DF80300ADF800006946A8
:101300001D4800F049F82020ADF8000069461A4851
:1013100000F042F81020ADF800006946134800F0D4
:101320003BF84FF48060ADF800006946104800F0CB
:1013300033F84FF48070ADF8000069460C4800F0B7
:101340002BF84FF48070ADF8000069460D4800F0AE
:1013500023F82021094800F0C7F80121074800F0D0
:10136000C3F80221054800F0BFF808BD0010014095
:10137000001401400020014000080140000C014021
:1013800000180140001C014070B504460D46294676
:10139000204600F0A9F870BD2DE9F0410246002575
:1013A0000026002000230024002791F803C00CF041
:1013B0000F0591F803C00CF0100CBCF1000F03D026
:1013C00091F802C04CEA050591F800C0BCF1000F8D
:1013D00031D0146800202BE04FF0010C0CFA00F320
:1013E000B1F800C00CEA03069E4220D183004FF002
:1013F0000F0C0CFA03F7BC4305FA03FC4CEA040497
:1014000091F803C0BCF1280F06D14FF0010C0CFA83
:1014100000FCC2F814C00AE091F803C0BCF1480F08
:1014200005D14FF0010C0CFA00FCC2F810C0401CB2
:101430000828D1D31460B1F800C0BCF1FF0F34DD2F
:10144000546800202EE000F1080C4FF0010808FA63
:101450000CF3B1F800C00CEA03069E4221D18300D0
:101460004FF00F0C0CFA03F7BC4305FA03FC4CEAEF
:10147000040491F803C0BCF1280F05D100F1080C59
:1014800008FA0CF8C2F8148091F803C0BCF1480FB8
:1014900007D100F1080C4FF0010808FA0CF8C2F867
:1014A0001080401C0828CED35460BDE8F08170B590
:1014B00004460D462946204600F014F870BD70B56C
:1014C00004460D462946204600F003F806463046FD
:1014D00070BD0246002093680B400BB1012000E074
:1014E0000020704741617047016170472DE9F0416C
:1014F00080460C461048007820B900F0B3FD01206A
:101500000D4908702512E6B2A5F1A101C1EB011247
:1015100002EB411106EB4101A1390802C11700EBB2
:101520005171CF10054839182022404600F072FD55
:101530000020BDE8F08100002801002000301800E4
:1015400000BFFEE72DE9F04106460F4614461D4652
:101550002B4622463946304600F036F904FB05F0AA
:101560000249098800F020F9BDE8F0810E01002051
:101570002DE9F04389B080468946174610231A4664
:101580004946404600F020F92C2000F04DF939463C
:1015900001A8FFF7ABFF002422E001A810F81460B7
:1015A0004FF6FF7000EA0626012000EB440001A977
:1015B000085C064300250FE04FF40040284130400E
:1015C00020B10A48008800F033F903E00848008899
:1015D00000F02EF9681CC5B2102DEDDB601CC4B202
:1015E000102CDADB09B0BDE8F08300000C0100200C
:1015F0000E0100202DE9F05F804689461646A6F1CF
:1016000020001FFA80FA1E49096889881C4A12685E
:10161000D28801FB02F0C11700EB5171C1F3C7077B
:101620001748006800680AFB070B15480068C38864
:101630001348006882884946404600F0C5F82C20CF
:1016400000F0F2F8002416E0002510E01BF804007A
:1016500080212941084020B10A48008800F0E8F8BC
:1016600003E00948008800F0E3F8681CC5B2082DC3
:10167000ECDB601CC4B2BC42E6DBBDE8F09F0000BE
:10168000080100200C0100200E01002070B5044666
:101690000D46002624E0304613490968898808442D
:1016A00012490988884205DD00260F480068C08875
:1016B000204484B220460C490968C98808440C4972
:1016C0000988884201DD002600242A782146304618
:1016D000FFF790FF6D1C044800688088304486B294
:1016E00028780028D7D170BD080100200001002013
:1016F000020100202DE9F04105460C46002648E095
:1017000020787E2825DC30462449096889880844E9
:1017100023490988884205DD002620480068C088E2
:10172000284485B228461D490968C98808441D49CE
:101730000988884201DD00260025227829463046A6
:10174000FFF758FF154800688088304486B2641C53
:101750001FE03046103012490988884203DD002618
:1017600005F1100085B2284610300E4909888842DC
:1017700001DD002600252788380200EB272087B2EC
:101780003A4629463046FFF7F3FE06F1100086B2CE
:10179000A41C20780028B3D1BDE8F0810801002006
:1017A000000100200201002070B504460D4600260D
:1017B0002C2000F039F800BF03E0284600F038F88C
:1017C000761CA642F9D370BD2DE9F04104460D46C2
:1017D00016461F462A2000F027F8201200F028F8AD
:1017E000E0B200F025F8A119491EC1F30F2000F066
:1017F0001FF8A119491EC8B200F01AF82B2000F0FA
:1018000013F8281200F014F8E8B200F011F8E91902
:10181000491EC1F30F2000F00BF8E919491EC8B2A8
:1018200000F006F8BDE8F0814FF0D841088070471D
:101830004FF0DA410880704770B5044600F00CF8AC
:10184000C5882B460348028821460020FFF77AFE10
:1018500070BD0000000100200148006870470000D2
:101860000801002070B59AB004460D462A460DA125
:1018700001A801F027FDFFF7EFFFC088604386B2A3
:101880003046FFF7D9FFFFF7E7FFC088604386B215
:1018900001A93046FFF72EFF4FF4967000F074FE5A
:1018A0001AB070BD202020202530376420000000B1
:1018B00070B592B0044600BF2048B0F9040020443F
:1018C000451C00F0CBFE37E000211C4800F08AF8F0
:1018D0001A48B0F90400A84212DA80211848FFF72C
:1018E000E6FD4FF480611748FFF7E1FD3E21164801
:1018F00000F014FD42211448083800F00FFD0AE002
:101900000021114800F00AFD00210F48083800F0BE
:1019100005FD12B070BD0948B0F904200BA168465E
:1019200001F0D0FCFFF798FFC08800EB800086B282
:1019300069463046FFF7AAFEC6E7000060000020B7
:1019400000140140001001403C3401404C656674B5
:10195000204779726F3A2020253864001CB5044670
:1019600006226946432000F051F89DF801009DF8D9
:10197000001040EA012000B220809DF803009DF88D
:10198000021040EA012000B260809DF805009DF839
:10199000041040EA012000B2A0801CBD70B50024F4
:1019A000002500BF06E0002500E06D1CB5F57A7F3C
:1019B000FBDB641CB4F57A7FF5DB00216B2000F0C3
:1019C00051F80721192000F04DF806211A2000F0E7
:1019D00049F800211C2000F045F818211B2000F0D8
:1019E00041F870BD70B504460D460648006840B128
:1019F00005480068FEF734FE00B2A08000200149CF
:101A0000086070BDE4000020700000202DE9F04166
:101A100007460C46154601F0C7FED02001F09AFE9D
:101A200001F0EAFE384601F095FE01F0E5FE01F016
:101A3000BBFED12001F08EFE01F0DEFE002606E0A6
:101A4000012001F05FFE2070641C701CC6B2681E8D
:101A5000B042F5DC002001F055FE207001F0BCFE24
:101A6000BDE8F08170B505460C4601F09DFED02022
:101A700001F070FE01F0C0FE284601F06BFE01F09F
:101A8000BBFE204601F066FE01F0B6FE01F0A4FEAA
:101A900070BD00BFFEE7000070B506460C46154657
:101AA0001F2E01DC002C00DC70BD55200B49487056
:101AB0000870082088700320C870012008714C71DC
:101AC000201288710846C6710D72281248720A21C8
:101AD000024801F0BDFB00BFE6E700003403002030
:101AE000704708B54FF4A06000F058F825208DF835
:101AF000000001208DF801008DF802008DF8030030
:101B0000684600F013F84FF4A06000F047F8272073
:101B10008DF8000001208DF801008DF802008DF88D
:101B20000300684600F002F808BD000070B500210F
:101B300000230F22C47804B3154C246804F4E06435
:101B4000C4F5E064210AC1F10403CA40447804FAF0
:101B500003F184781440214309010E4C0678A15505
:101B6000047804F01F050124AC4005786D11AD0028
:101B700005F1E025C5F8004109E0047804F01F05EF
:101B80000124AC40044D0678761145F8264070BD1E
:101B90000CED00E000E400E080E100E002490143D8
:101BA000024A1160704700000000FA050CED00E0E9
:101BB0002DE9F05F2021AE48FFF7E6FB0121AC489C
:101BC000FFF7E2FB0221AA48FFF771FC0221A948B6
:101BD000FFF775FCA84908604FF40061A748FFF7BC
:101BE0006EFCA54948604FF48061A548FFF767FC8B
:101BF000A14988604FF48051A248FFF760FC9E49DC
:101C0000C86080219D48FFF75AFC9B49086140212C
:101C10009A48FFF754FC9849486102219A48FFF717
:101C20004EFC95498861084600684968032202FB1A
:101C3000010091498968052202FB01008E49C968AB
:101C4000072202FB01008C490969092202FB0100FD
:101C5000894949690B2202FB0100874989690D22E4
:101C600002FB0100894908600846006824286AD000
:101C700010DC1C2842D006DC102857D0162848D08B
:101C8000192872D158E01D2849D021283BD022289C
:101C90007DD127E02D2812D006DC252828D0282841
:101CA00013D0292873D116E0302802D031286ED104
:101CB0004EE000217648774AC2E900106CE000212E
:101CC0007548744AC2E9001066E000217348714A01
:101CD000C2E9001060E000214FF040406D4AC2E9C7
:101CE000001059E000216E486A4AC2E9001053E032
:101CF00000216C48674AC2E900104DE00020654AA7
:101D00001060506048E000216748624AC2E9001054
:101D100042E00020604949425E4A03C23CE00021A3
:101D20004FF080405B4AC2E9001035E000215F4877
:101D3000584AC2E900102FE0002159484042554A54
:101D4000C2E9001028E000205949524A03C223E0AA
:101D50000022534B5B424F4903C9FEF7D3FC05D128
:101D6000002053494B4A03C210E010E000224A4BC6
:101D7000484903C9FEF7C6FC04D100204449454A3E
:101D800003C203E00021434A1160516004E00020D7
:101D9000404A1060506000BF00BF3E48D0E90010CC
:101DA000444AC2E900103B4843490CC803C9FEF746
:101DB000B5FA414A03C241480068FEF740FC0446B8
:101DC00034480CC82046FEF74DFB3D4A03C23C4850
:101DD0003C490CC803C9FEF748FB04460D4636488B
:101DE00039490CC803C9FEF740FB06460F46314887
:101DF00036490CC803C9FEF738FB804632463B46DD
:101E0000FEF78CFA824622462B46FEF787FA304AC6
:101E100003C2204903C9FEF73CFC284908602C484E
:101E20000CC800202B49FEF779FA0546FEF750FC56
:101E300004462146284800F071FA25480CC80020C5
:101E40002649FEF70CFB0546FEF742FC04462146F8
:101E50002148083800F062FA80212148FFF727FB6B
:101E60004FF480610848FFF78FFABDE8F09F00004B
:101E7000000C014000180140B0040020001C01408B
:101E800000200140000801400010014084010020B2
:101E900000000CC040010020000008C0000004C089
:101EA0000000F8BF0000F0BF0000F03F0000044059
:101EB00000000C404801002050010020800100205B
:101EC00058010020700100206801002060010020FE
:101ED00078010020008053403C34014000405540D0
:101EE000001401407047000029B1064AD26902433C
:101EF000044BDA6104E0034AD2698243014BDA61A0
:101F0000704700000010024029B1064A926902435E
:101F1000044B9A6104E0034A92698243014B9A613F
:101F2000704700000010024030B50021002200245C
:101F300000232D4D6D6805F00C0121B1042905D059
:101F4000082923D105E0294D056022E0274D0560D1
:101F50001FE0254D6D6805F47012234D6D6805F482
:101F60008034022505EB92421CB9214D5543056092
:101F70000BE01D4D6D6805F400351DB11C4D55433A
:101F8000056002E0194D5543056002E0174D0560FC
:101F900000BF00BF144D6D6805F0F0010909154D33
:101FA0006B5C0568DD4045600F4D6D6805F4E061D0
:101FB000090A104D6B5C4568DD4085600A4D6D680F
:101FC00005F46051C90A0B4D6B5C4568DD40C56086
:101FD000054D6D6805F44041890B074D6B5CC56884
:101FE000B5FBF3F5056130BD0010024000127A0028
:101FF00000093D00140000202400002021B10288C7
:1020000042F04002028004E002884FF6BF731A409B
:102010000280704770B505460C46164610211048E0
:10202000FFF760FA032000F07BF8C4F3074000F0EC
:1020300077F8C4F3072000F073F8E0B200F070F80E
:1020400004E0FF2000F06CF828706D1C301EA6F133
:1020500001018EB2F5D110210148FFF745FA70BD9C
:102060000008014000B587B001210803FFF74CFFCD
:102070000121C420FFF748FF1020ADF80400032021
:102080008DF8060010208DF8070001A92248FFF7FF
:1020900083F92020ADF8040018208DF8070001A96D
:1020A0001D48FFF779F94020ADF8040001A91A484E
:1020B000FFF772F98020ADF8040001A91648FFF778
:1020C0006BF910211448FFF70FFA0020ADF8080053
:1020D0004FF48270ADF80A000020ADF80C00022029
:1020E000ADF80E000120ADF810004002ADF812006E
:1020F0000820ADF814000020ADF816000720ADF858
:10210000180002A9054800F055F801210348FFF71F
:1021100075FF07B000BD000000080140003001401D
:1021200010B504464FF48050194908600AE0184978
:102130000868411E164A116020B9002000F058F8C6
:10214000C0B210BD0221134800F026F80028EED0DE
:102150002146104800F02CF84FF480500C490860DC
:102160000AE00B490868411E094A116020B90120A4
:1021700000F03EF8C0B2E4E70121064800F00CF898
:102180000028EED0034800F010F8C0B2D9E70000F4
:102190002C010020003001400246002013890B4032
:1021A0000BB1012000E0002070470146888970478C
:1021B0008181704710B50022028802F441520B88D9
:1021C0004C8823438C882343CC8823430C892343A6
:1021D0004C8923438C892343CC8923431A430280AF
:1021E000838B4FF2FF74234083830B8A038210BDDD
:1021F00010B50446214602A001F054F8002010BD9D
:102200003C3C2D464C4153482D4552524F522D3E99
:102210003E2053504920B5C8B4FDB3ACCAB12165C6
:1022200072726F72436F6465203D2025640A00005E
:10223000704710B500F002F810BD00000CB500208A
:10224000019000903348006840F4803031490860C4
:1022500000BF3048006800F4003000900198401C36
:102260000190009818B90198B0F5A06FF1D12948F4
:10227000006800F4003010B10120009001E000205F
:1022800000900098012843D12348006840F01000D6
:10229000214908600846006820F0030008600846ED
:1022A000006840F0020008601A4840681949486018
:1022B0000846406848600846406840F480604860CE
:1022C0000846406820F47C1048600846406840F4A6
:1022D000E81048600846006840F08070086000BF61
:1022E0000C48006800F000700028F9D009484068E8
:1022F00020F00300074948600846406840F00200AB
:10230000486000BF0348406800F00C000828F9D17D
:102310000CBD000000100240002002400180704708
:1023200070B505460C460026012D06D0022D34D08E
:10233000032D62D0042D6ED192E0082C2BD2DFE861
:1023400004F02A04090F151B202502215E48FFF71F
:10235000B6F870BD4FF400615C48FFF7B0F8F8E7DD
:102360004FF480615A48FFF7AAF8F2E74FF4805122
:102370005848FFF7A4F8ECE780215448FFF79FF88E
:10238000E7E740215148FFF79AF8E2E70221524877
:10239000FFF795F8DDE700BF00BF082C2BD2DFE880
:1023A00004F02A04090E13191F2501214748FFF7DD
:1023B00086F8CEE704214548FFF781F8C9E71021E8
:1023C0004248FFF77CF8C4E74FF480513F48FFF7DD
:1023D00076F8BEE74FF480413C48FFF770F8B8E765
:1023E0004FF400513848FFF76AF8B2E70421384843
:1023F000FFF765F8ADE700BF00BF082C2ED2DFE87D
:1024000004F02D040B11171D22274FF400513348FF
:10241000FFF755F89DE754E04FF400412F48FFF7D0
:102420004EF896E74FF400412948FFF748F890E747
:102430004FF400712948FFF742F88AE74021284805
:10244000FFF73DF885E708212548FFF738F880E7D2
:102450004FF480712148FFF732F87AE700BF00BFE0
:10246000082C2CD2DFE804F02B040A0F141A2026C3
:102470004FF400711448FFF722F86AE780211248F0
:10248000FFF71DF865E701211548FFF718F860E729
:102490004FF480411248FFF712F85AE74FF4005109
:1024A0000F48FFF70CF854E74FF400610C48FFF7B2
:1024B00006F84EE710210648FFF701F849E700BF8C
:1024C00000BF002045E7000000180140001C01404B
:1024D000002001400008014000100140000C0140B4
:1024E0000014014010B580210F48FEF7E0FF4FF4C3
:1024F00080610E48FEF748FF26210D48FFF70EFFCA
:102500002D210B480838FFF709FF4FF4967000F0B3
:102510003BF800210648FFF701FF00210448083876
:10252000FFF7FCFE10BD0000001401400010014048
:102530003C34014030B50146B1F1807F01D3012028
:1025400030BD21F07F40401E4FF0E0225061501717
:102550000F22002807DA13071D0E094B00F00F04A5
:10256000241F1D5503E013071C0E064B1C5400BF0F
:1025700000204FF0E0229061072010610020DFE78B
:1025800018ED00E000E400E070B504460C48FFF7E9
:10259000D1FF002508E000BF4FF0E020006900F403
:1025A00080300028F8D06D1CA542F4D34FF0E02015
:1025B000006920F001004FF0E021086170BD0000CB
:1025C000401901002DE9F05F1B48006868BB1B48FB
:1025D000FFF7C4F91949B1F90400FEF730F8804655
:1025E0000022174BFDF73BFF06464FF0C042154B4C
:1025F000FDF7ADFF04464FF08042134BFDF735FF6A
:102600008246FEF797F81149086011490F480068A3
:10261000FDF714FE04460F4801682046FDF7B6FD9D
:102620000C4908600120044908600B480078401CF0
:1026300009490870BDE8F09FE40000204A0000202E
:10264000008039406666304033330B405C00002028
:102650006F12833A700000209000002010B50A48E5
:1026600000684FF47A71B0FBF1F42046FFF762FF87
:1026700008B100BFFEE74FF0E020006940F0010024
:102680004FF0E021086110BD0000002010B5134894
:10269000006840F001001149086008464068104990
:1026A00008400E494860084600680E4908400B493A
:1026B00008600846006820F48020086008464068EA
:1026C00020F4FE0048604FF41F008860FFF7B1FD62
:1026D0004FF000600449086010BD00000010024087
:1026E0000000FFF8FFFFF6FE08ED00E0F0B50C4635
:1026F000154600220021068C4FF6FE773E400684E8
:10270000028B018C4FF60C7632407E1C06EA0316D3
:102710002E433243104EB0420ED0104EB0420BD07A
:10272000B0F1804F08D00E4EB04205D00D4EB042F1
:1027300002D00D4EB04206D14FF6FD76314044F046
:102740000106314305E04FF6F576314044F00106CD
:10275000314302830184F0BD002C0140003401406C
:102760000004004000080040000C0040F0B50C469A
:102770001546002200210026078C4FF6EF7C07EA61
:102780000C070784028B018C4FF6FF7707EA0416CB
:1027900040F6FF473A404FF6FF7707EA03373A43E0
:1027A0004FF6FF7707EA05273A43114FB8420ED09C
:1027B000104FB8420BD0B0F1804F08D00E4FB84246
:1027C00005D00E4FB84202D00D4FB84206D14FF699
:1027D000DF77394046F01007394305E04FF65F7761
:1027E000394044F01007394302830184F0BD0000F2
:1027F000002C01400034014000040040000800406B
:10280000000C004070B50221234800F0ABF82248CC
:1028100000F0C6F8214908801F4800F0C4F820499C
:1028200008801E48008800B31C480088401CFDF743
:10283000FDFE04461A490988491C642201FB02F086
:10284000FDF7F4FE05462146FDF72AFD154908600F
:1028500012480088401CFDF7E9FE04462146124854
:10286000FDF71EFD1149086010E000200D490860C9
:102870000E49086020210E48FEF719FE01210C4880
:10288000FEF782FD02210A48FEF77EFD0221024882
:1028900000F068F870BD000000040040EE00002069
:1028A000EC0000202C0000204054894C3000002017
:1028B000000C014070B50221234800F053F8224873
:1028C00000F06EF8214908801F4800F06CF820499C
:1028D00008801E48008800B31C480088401CFDF793
:1028E000A5FE04461A490988491C642201FB02F02E
:1028F000FDF79CFE05462146FDF7D2FC1549086010
:1029000012480088401CFDF791FE044621461248FB
:10291000FDF7C6FC1149086010E000200D49086071
:102920000E49086020210E48FEF7C1FD01210C4828
:10293000FEF72AFD02210A48FEF726FD0221024881
:1029400000F010F870BD000000080040F200002008
:10295000F0000020340000204054894C3800002052
:10296000000C0140CA430282704721B1028842F044
:102970000102028004E002884FF6FE731A400280D2
:10298000704731B1B0F8442042F40042A0F844202E
:1029900005E0B0F84420C2F30E02A0F844207047CE
:1029A0000146888E70470146088F70471AB18389A7
:1029B0000B43838102E083898B438381704700004E
:1029C00070B5002400220023058C4FF6FE763540BA
:1029D0000584028C8388048B4FF68F752C40B51EBE
:1029E0002C400D882C43751E2A400D892A434D88A2
:1029F0002A43144DA8420BD0134DA84208D0134DC2
:102A0000A84205D0124DA84202D0124DA84213D1BF
:102A10004FF6F7752A404D892A434FF6FB752A4039
:102A20008D882A434FF6FF652B404FF6FF552B400C
:102A30008D892B43CD892B4383800483CD88858664
:102A4000028470BD002C0140003401400040014070
:102A500000440140004801400A460021018B4FF626
:102A6000F7731940114301837047000070B50024CB
:102A700000220023058C4FF6EF7635400584028C4A
:102A80008388048B48F6FF752C404FF6FF452C4099
:102A90000D884FF6FF7606EA05252C434FF6DF75C5
:102AA0002A400D8906EA05152A434D8806EA0515D0
:102AB0002A43154DA84202D0144DA8421DD14FF60D
:102AC0007F752A404D894FF6FF7606EA05152A43A1
:102AD0004FF6BF752A408D8806EA05152A434FF642
:102AE000FF352B404FF2FF752B408D8906EA850597
:102AF0002B43CD8906EA85052B4383800483CD884B
:102B00000587028470BD0000002C014000340140A4
:102B10000A460021018B4FF2FF7319404FF6FF73F5
:102B200003EA0223194301837047000070B50024B3
:102B300000220023058C4FF6FF6635400584028C89
:102B40008388848B4FF68F752C404FF6FC752C4094
:102B50000D882C434FF6FF552A400D894FF6FF761E
:102B600006EA05252A434D8806EA05252A43154D20
:102B7000A84202D0144DA8421DD14FF2FF752A4041
:102B80004D894FF6FF7606EA05252A434FF6FF35B5
:102B90002A408D8806EA05252A434EF6FF752B400C
:102BA0004DF6FF752B408D8906EA05152B43CD891F
:102BB00006EA05152B4383808483CD8885870284AC
:102BC00070BD0000002C0140003401400A46002185
:102BD000818B4FF6F77319401143818370470000D2
:102BE00070B5002200230024058C4EF6FF76354098
:102BF0000584038C8488828B48F6FF752A404FF643
:102C0000FF452A400D884FF6FF7606EA05252A4340
:102C10004DF6FF752B400D8906EA05352B434D888F
:102C200006EA05352B430B4DA84202D00A4DA842B7
:102C300008D14BF6FF752C408D894FF6FF7606EADA
:102C400085152C4384808283CD88A0F8405003846E
:102C500070BD0000002C0140003401400A460021F4
:102C6000818B4FF2FF7319404FF6FF7303EA022383
:102C70001943818370472DE9F04105460C46002633
:102C80000127608808B9022600E00026A0880128F4
:102C900001D1022700E001272088A0B92389A2885A
:102CA00061882846FFF722FDE188284600F03CF8BD
:102CB00023893A4631462846FFF758FDE1882846E1
:102CC00000F03BF813E02389A28861882846FFF7CB
:102CD0004DFDE188284600F030F823893A46314618
:102CE0002846FFF703FDE188284600F01DF8BDE8FF
:102CF000F0810A46002101894FF68F731940114374
:102D00000181704702894FF67F731A400281028960
:102D10000A430281704702894FF6F8731A40028114
:102D200002890A4302817047028B4FF6F3731A40FF
:102D30000283028B0A4302837047028B4FF2FF33F8
:102D40001A400283028B4FF6FF7303EA01231A43F2
:102D500002837047002202881D4B98420ED01D4B03
:102D600098420BD0B0F1804F08D01B4B984205D051
:102D70001A4B984202D01A4B984204D14FF68F73E7
:102D80001A404B881A43174B984207D0164B98426B
:102D900004D04FF6FF431A40CB881A4302808B8839
:102DA00083850B8803850A4B98420BD0094B9842C8
:102DB00008D00E4B984205D00D4B984202D00D4BD7
:102DC000984201D10B7A0386012383827047000069
:102DD000002C014000340140000400400008004085
:102DE000000C004000100040001400400040014072
:102DF000004401400048014010B540F227712648C8
:102E000000F0ACF840F22551234800F0A7F840F25A
:102E10002771214800F057F9E0B120480278007886
:102E2000401C1E4B18701E48815C1B4800F00BFABA
:102E300040F22771184800F091F8184800781949B5
:102E40000978884222D1002240F22771124800F00E
:102E500064F91BE040F225510F4800F034F9A8B1A5
:102E600020211148FEF723FB01210F48FEF71FFB2D
:102E700002210D48FEF71BFB07498988C8B2FDF700
:102E800031FF40F22551044800F068F84FF45871C2
:102E9000014800F063F810BD005000403C000020E5
:102EA0001C0200203D000020000C014010B540F243
:102EB0002551234800F007F900283FD0012121487F
:102EC000FEF7F5FA20211F48FEF7F1FA02211D480E
:102ED000FEF7EDFA1A4800F0B1F91B491B4A1278C7
:102EE00088540846194A1278815C194800F0CAF9DA
:102EF00016480078401C15490870134800781128BE
:102F000001D00020087011480078022806D10E4830
:102F10004078122802D000200C4908700B48007835
:102F200008280BDB0948027807490A48FDF71CF915
:102F300000200649087001200749086010BD000004
:102F400000480040000C0140F4000020FC0000207C
:102F500000380140820000208C00002010B50022C3
:102F6000002340F66A14A14200D100BF0A120124D6
:102F70009440A3B2DC43048010BD21B1828942F4A5
:102F80000052828104E082894DF6FF731A408281EB
:102F90007047000000B585B001210420FEF7B4FFA2
:102FA00001218803FEF7B0FF4FF40070ADF8100068
:102FB00018208DF8130003208DF8120004A937485B
:102FC000FEF7EAF94FF48060ADF8100004208DF8A8
:102FD000130004A93148FEF7DFF901210820FEF7AC
:102FE00093FF01218804FEF77FFF4FF48060ADF866
:102FF000100018208DF8130003208DF8120004A98A
:103000002748FEF7C9F94FF40060ADF8100004201E
:103010008DF8130004A92248FEF7BEF94FF41650AC
:1030200000900020ADF80400ADF80600ADF80800EF
:10303000ADF80C000C20ADF80A006946194800F004
:1030400091F8FEF74EFD012240F22551154800F09F
:1030500064F801211348FFF790FF4FF4E13000902E
:103060000020ADF80400ADF80600ADF80800ADF89A
:103070000C000C20ADF80A0069460B4800F072F80D
:10308000FEF72FFD012240F22551074800F045F8D8
:1030900001210548FFF771FF05B000BD00080140A0
:1030A000000C01400038014000480040024600206A
:1030B000B1F5007F00D100BF13880B400BB1012098
:1030C00000E00020704770B5024600240023002570
:1030D000002040F66A16B14200D100BFC1F342158C
:1030E00001F01F03012606FA03F3012D02D1968990
:1030F000334006E0022D02D1168A334001E0968A61
:1031000033400C12012606FA04F41688344013B139
:103110000CB1012000E0002070BDF0B50346002492
:1031200000260025002040F66A17B94200D100BFF2
:103130001846C1F3421401F01F06012707FA06F5ED
:10314000012C01D10C3004E0022C01D1103000E040
:1031500014301AB107682F43076002E00768AF43D5
:103160000760F0BD2DE9F04786B005460E46002405
:10317000A24600BFA1460027B08900B100BF2F467C
:103180002C8A4CF6FF700440F08804432C82AC89F2
:103190004EF6F3100440B088318908437189084322
:1031A0000443AC81AC8A4FF6FF400440B08904432D
:1031B000AC8201A8FEF7B8FE1F48874202D1DDF8B5
:1031C00010A001E0DDF80CA0A88900F4004040B197
:1031D0000AEBCA0000EB0A1031684900B0FBF1F8B5
:1031E00007E00AEBCA0000EB0A1031688900B0FB67
:1031F000F1F86420B8FBF0F004012009642101FB20
:103200001089A88900F4004040B1322000EBC900C9
:10321000B0FBF1F000F00700044308E0322000EBBF
:1032200009106421B0FBF1F000F00F0004432C8181
:1032300006B0BDE8F08700000038014001468888EC
:10324000C0F308007047C1F3080282807047000095
:1032500070B504460D460BE000BF0848008800F03A
:1032600040000028F9D014F8011B0448FFF7EBFFD9
:10327000281EA5F10101CDB2EED170BD003801408C
:1032800000BFFEE770B504460D4629462046FFF70D
:10329000DAFF00BF80212046FFF708FF0028F9D0A1
:1032A00070BD00000FB4054B10B503A9044A029885
:1032B00000F02CF810BC5DF814FB00005936000833
:1032C000180200200FB4084B10B504A902AA0398F5
:1032D00000F01CF8044602A9002000F0B8F92046CE
:1032E00010BC5DF814FB00004F36000802E008C86F
:1032F000121F08C1002AFAD170477047002001E070
:1033000001C1121F002AFBD1704700002DE9FF4FB9
:103310008BB088460546002606E025280BD0DDE95F
:103320000D1290476D1C761C28780028F5D10FB03F
:103330003046BDE8F08F0024A146A2460122AE49E6
:1033400000E0044315F8013F203B02FA03F0084275
:10335000F7D128782A2810D06FF02F022878A0F112
:103360003001092915D809EB890102EB410144F02C
:10337000020400EB01096D1CF0E758F8041B5FEA3A
:10338000010903D544F40054C9F1000944F00204D2
:103390006D1C28782E2817D115F8010F44F004046D
:1033A0002A280ED06FF02F022878A0F130010929C9
:1033B0000AD80AEB8A0102EB410100EB010A6D1CFD
:1033C000F2E758F804AB6D1C28786C280FD006DCA7
:1033D0004C2817D068280DD06A2814D104E074282E
:1033E00010D07A280FD10DE044F400140AE044F420
:1033F000801401E044F440146978814202D104F55C
:1034000080146D1C6D1C2878692865D006DC0028A6
:103410008DD0632827D0642806D15DE06E2808D0BF
:1034200073282AD0752877D0DDE90D129047761CD5
:10343000E0E0C4F30250022809D003280DD0D8F8E8
:10344000001004280DD00E6008F10408D2E0D8F86E
:103450000010F217C1E90062F6E7D8F800100E80FC
:10346000F2E70E70F0E718F8041B8DF8001000204A
:103470008DF80100EB46012003E058F804BB4FF043
:10348000FF3061074FF0000701D40AE07F1C574569
:103490000DDA8742FADB1BF807100029F6D106E0A7
:1034A0007F1C8742FCDB1BF807100029F8D1DDE9FF
:1034B0000D23A9EB07008146214600F0B1F8304406
:1034C000C61904E0DDE90D121BF8010B90477F1EC1
:1034D000F8D22146484688E058F8040BC4F302515C
:1034E0004FF00A0B032900D100B2042900D140B2E9
:1034F000002802DA40422D2102E0210505D52B21CA
:103500008DF82410012104E006E0E10710D020210D
:10351000F6E708AF089113E058F8040BC4F3025122
:103520004FF00A0B032900D180B2042900D1C0B2A8
:103530000021EEE75946FDF719F9303107F8011D72
:103540000028F7D1ADEB070000F1200B600702D592
:1035500024F4803401E04FF0010ADA4502DDAAEBE1
:103560000B0000E00020824600EB0B0108980144AC
:10357000A9EB01000A90E00306D4DDE90D23214602
:103580000A9800F04DF806444FF0000908E009A938
:1035900011F80900DDE90D12904709F10109761CC7
:1035A00008998945F3DBE0030CD5DDE90D232146BD
:1035B0000A9800F035F8064404E0DDE90D123020E9
:1035C0009047761CBAF10001AAF1010AF5DC05E08A
:1035D000DDE90D1217F8010B9047761CBBF10001D5
:1035E000ABF1010BF4DC0A982146DDE90D2300F074
:1035F00005F806446D1C97E6092801002DE9F04105
:10360000044600251E461746880404D405E03946C2
:103610002020B0476D1C641EF9D52846BDE8F08116
:103620002DE9F041044600251E469046C80301D509
:10363000302700E02027880404D505E041463846BD
:10364000B0476D1C641EF9D52846BDE8F0810A68B4
:10365000531C0B601070704738B504468DF800009D
:1036600069460320ABBE204638BD000010B580205F
:103670000949086000F012F840200749091F086056
:1036800000F00CF840200449086000F007F88020A2
:103690000149091F086010BD140C0140002001E021
:1036A000411CC8B20A28FBDB7047000008B50121A5
:1036B0000820FEF729FCC020ADF8000003208DF89B
:1036C000020014208DF8030069460348FDF764FEEC
:1036D00000F082F808BD0000000C014010B5802009
:1036E00007490860FFF7DAFF402005490860FFF747
:1036F000D5FF40200249091D0860FFF7CFFF10BD2C
:10370000100C014070B505460024002616E0600646
:10371000040E40200E490860FFF7C0FF0C4808382F
:10372000006800F0800008B1601CC4B24020084965
:10373000091D0860FFF7B2FF701CC6B2082EE6DB59
:1037400015B9FFF7CBFF01E0FFF790FF204670BDF2
:10375000100C014070B50446002520E004F0800004
:1037600018B180200F49086003E080200D49091D31
:103770000860FFF793FF40200A490860FFF78EFFBB
:1037800040200849091D0860072D02D18020091F2B
:1037900008606006040EFFF781FF681CC5B2082DA3
:1037A000DCDB70BD100C014010B5802009490860B9
:1037B00040200860FFF772FF80200649091D08605D
:1037C000FFF76CFF40200349091D0860FFF766FF03
:1037D00010BD0000100C014010B5802005490860A4
:1037E0004020091F0860FFF759FF80200149091F89
:1037F000086010BD140C014010B580200C49086011
:10380000FFF74CFF40200A490860FFF747FF0848D0
:103810000838006800F0800008B1012400E00024AE
:1038200040200349091D0860FFF738FF204610BDFE
:10383000100C014010B500F027F81DE001211048E0
:10384000FDF73DFE01280AD101210E48FDF72FFEAC
:1038500020210C48FDF798FD00F048F80DE001210B
:103860000748FDF72CFE38B920210648FDF71FFE5A
:1038700001210448FDF788FDE0E700BF002010BDEE
:1038800000080140000C014010B5FDF755FBFDF7A5
:10389000F9F8FEF7E3FEFFF77DFBFFF707FFFEF702
:1038A0007DF800210E48FEF739FD00210C48083054
:1038B000FEF734FD00210B48FEF730FD00210948DA
:1038C0000C30FEF72BFD4FF480710748FDF7EFFD3C
:1038D00040F2AA524FF4FA710F20FEF7DDF810BD46
:1038E00034340140342C0140001C014010B501204B
:1038F000FDF788FA4FF4FA70FEF746FE5A20FDF7FE
:10390000D7FF4FF47A70FEF73FFE10BD00000000B5
:10391000000000000000000000000000000000188F
:1039200018181818180800081800000000000034C3
:10393000242424000000000000000000000000001B
:1039400016247F2424247E24240000000000000884
:103950003E6848681C1612127C10100000000061BE
:10396000D296740810162949C60000000000000015
:103970003C646438724ACE467F00000000000018A4
:1039800018181800000000000000000000000004EB
:10399000081810303030301010180C0400000020CF
:1039A0001008080C0404040C08181020000000087B
:1039B0000A341C6A0800000000000000000000003B
:1039C00000001818187F18181800000000000000E8
:1039D000000000000000001818083000000000007F
:1039E00000000000003C000000000000000000009B
:1039F0000000000000000018180000000000000295
:103A000006040C08081010202040000000000000F0
:103A10003C6642475B7342663C00000000000000C9
:103A200018784808080808087E0000000000000018
:103A30003C460606040810207E000000000000003E
:103A40007C0606043C0202067C0000000000000028
:103A50000C1C14246444FF04040000000000000057
:103A60007E6060607E0202067C00000000000000B4
:103A70001E306048764242623C00000000000000B8
:103A80007E0206040C081810300000000000000040
:103A90003C6242361C6642423C00000000000000CE
:103AA0003C664242661A02047800000000000000F2
:103AB00000001818000000181800000000000000A6
:103AC000000018180000001818083000000000005E
:103AD000000004183060100C060000000000000018
:103AE000000000007E007E000000000000000000DA
:103AF0000000301804060C10200000000000003008
:103B00001C06060618100010100000000000001C23
:103B1000224141DDB5A5A5AF94C0403C00000000A6
:103B2000181C342426627E43C100000000000000FF
:103B30007C4642467C4242427C000000000000007D
:103B40001E204040404040603E0000000000000059
:103B50007C46424343434246780000000000000098
:103B60007E6060607E6060607E000000000000009B
:103B70007E6060607E6060606000000000000000A9
:103B80001E604040CE4242623E0000000000000045
:103B9000424242427E424242420000000000000097
:103BA0007E181818181818187E0000000000000071
:103BB0007C040404040404447800000000000000B5
:103BC0004244485070584C4442000000000000003D
:103BD00020202020202020203E00000000000000A7
:103BE0006266675F5B5BC1C1C1000000000000004E
:103BF000626272525A4A4E464600000000000000BF
:103C00003C6243C3C3C343623C00000000000000A9
:103C10007C464242467840404000000000000000E0
:103C20003C6243C3C3C343623C180F000000000062
:103C30007C6662667C6C64666200000000000000C6
:103C40003E6040601C0602027C0000000000000094
:103C50007F18181818181818180000000000000025
:103C600042424242424242623C00000000000000E8
:103C7000C14342622624341C1800000000000000EA
:103C8000C1C141495B5B7666660000000000000030
:103C900043663418181C2466C300000000000000AE
:103CA000C14266341C1818181800000000000000FB
:103CB0007E02040C181020607E0000000000001C32
:103CC00010101010101010101010101C00000040E8
:103CD0002020101008080C04060200000000003C20
:103CE0000C0C0C0C0C0C0C0C0C0C0C3C0000000014
:103CF000181C24620000000000000000000000000A
:103D00000000000000000000000000FF0000002094
:103D10001000000000000000000000000000000093
:103D200000003C06023E42467A00000000000040CF
:103D300040405C62424242427C00000000000000C1
:103D400000001E20604060203E00000000000002D5
:103D500002023E62424242663A0000000000000059
:103D600000003C62427E40603E0000000000000F08
:103D70001810107E1010101010000000000000003D
:103D800000003F66426658403E43423C000000400F
:103D900040405C6242424242420000000000001883
:103DA00018007808080808087E00000000000004D9
:103DB0000C007C040404040404040C78000000607B
:103DC0006060626C787068646200000000000078D7
:103DD00008080808080808087E0000000000000025
:103DE0000000764B4B4B4B4B4B000000000000009B
:103DF00000005C62424242424200000000000000BB
:103E000000003C62424342623C00000000000000AF
:103E100000005C62424242427C40404000000000A0
:103E200000003E62424242663A0202020000000086
:103E300000006E72636060606000000000000000BF
:103E400000003E20203C06027C0000000000000034
:103E50001010FE10101010101E00000000000000D6
:103E600000004242424242663A0000000000000068
:103E700000004342662434181800000000000000CF
:103E80000000C1C15B5A5E666600000000000000D1
:103E9000000062261C181C266200000000000000C2
:103EA000000043426624341C181830E00000000073
:103EB00000007E060C1810207E0000000000000E9E
:103EC00018101010307010101010180E0000080894
:103ED0000808080808080808080808080000003052
:103EE000180808080C0E0808080818300000000020
:103EF00000000000714B0600000000000000000000
:103F000000000000000000000000000000000000B1
:103F100000000000000000000000000000000000A1
:103F20000000000000000000000000000000000091
:103F300000000000000003800180018001800180FA
:103F4000018001800180018001800000000003C029
:103F500003C000000000000000000000000000009E
:103F60000000000000000E700E700E700C3000009B
:103F70000000000000000000000000000000000041
:103F80000000000000000000000000000000000031
:103F900000000000000000000618063806307FFE12
:103FA0000C300C300C300C307FFE0C601C60186044
:103FB0001860000000000000000000000000000089
:103FC0000000000000C000C00FF83CC831C03180C4
:103FD0003D801F8003F001F8031C030C031C3FF815
:103FE0003FE00700060000000000000000000000A5
:103FF000000000001C007E0E630C631863307E60BE
:1040000000C001800300077C0EE61CC618C630C63F
:10401000607C0000000000000000000000000000C4
:104020000000000000000FE01CF0387038701C60C9
:104030001FC00F003F8C71CC60EC607C70383CFC82
:104040001FCE000000000000000000000000000083
:1040500000000000000003C001800180018000001A
:104060000000000000000000000000000000000050
:104070000000000000000000000000000000000040
:1040800000000000003000E001C0018003000700D4
:10409000060006000E000E000E000E0006000700CF
:1040A0000300038001C000E00030000000000000B9
:1040B000000000000C0006000380018001C000E049
:1040C000006000600070007000700060006000E040
:1040D00000C00180038006000C000000000000000A
:1040E000000000000000018011881DB803C007E037
:1040F0003DBC0188018000000000000000000000BD
:1041000000000000000000000000000000000000AF
:10411000000000000000000000000000018001809D
:104120000180018001807FFE01800180018001808B
:10413000000000000000000000000000000000007F
:10414000000000000000000000000000000000006F
:1041500000000000000000000000000003C003C0D9
:1041600001C001C003801F0000000000000000002B
:10417000000000000000000000000000000000003F
:104180000000000000000FF0000000000000000030
:10419000000000000000000000000000000000001F
:1041A000000000000000000000000000000000000F
:1041B00000000000000000000000000003C003C079
:1041C00003C000000000000000000000000000002C
:1041D000000000000000001800380030006000E01F
:1041E00000C001C001800300030006000E000C00A7
:1041F0001C0018003000000000000000000000005B
:1042000000000000000001800FF01C38381C301C3A
:10421000707E70EE738E7E0E7C0C300C381C1E7817
:104220000FE000000000000000000000000000009F
:10423000000000000000000007C01FC039C001C01E
:1042400001C001C001C001C001C001C001C03FFCEC
:104250003FFC000000000000000000000000000023
:1042600000000000000003801FF01838003800181C
:1042700000380038007001E0038007001C003FFC9C
:104280003FFC0000000000000000000000000000F3
:1042900000000000000007801FF0003800380038E0
:1042A000003007E007F00038001C001C001820F860
:1042B0003FE00000000000000000000000000000DF
:1042C000000000000000000000F001B003300730E3
:1042D0000E301C30383070307FFE7FFE00300030F2
:1042E000003000000000000000000000000000009E
:1042F00000000000000000001FF81800180018005F
:1043000018001FE000F8001C001C001C003800F022
:104310001FC00000000000000000000000000000BE
:10432000000000000000000003F80F001C0018004F
:10433000300037F83C3C300C300C380C381C1E3840
:104340000FF000000000000000000000000000006E
:1043500000000000000000003FFC001C00180038B6
:104360000070006000E001C00180038007000600CB
:104370000E0000000000000000000000000000002F
:1043800000000000000003C01FF8381C381C381C57
:104390001C380FF007F01C78381C300C381C3C38E7
:1043A0000FF000000000000000000000000000000E
:1043B00000000000000003801FF03838301C701C23
:1043C000700C380C1FFC0FCC001C001800701FE094
:1043D0001F8000000000000000000000000000003E
:1043E000000000000000000000000000000003C00A
:1043F00003C00180000000000000000003C003C0F3
:1044000003C00000000000000000000000000000E9
:10441000000000000000000000000000000003C0D9
:1044200003C00180000000000000000003C003C0C2
:1044300001C001C003800F00000000000000000068
:10444000000000000000000000000000003800F044
:1044500001C007001E0038000E00078001C0007078
:10446000003000000000000000000000000000001C
:10447000000000000000000000000000000000003C
:1044800000003FFC000000003FFC3FFC000000007B
:10449000000000000000000000000000000000001C
:1044A0000000000000000000000000001C000F00E1
:1044B000038001E00078001C007001E003800E0022
:1044C0000C000000000000000000000000000000E0
:1044D0000000000000000FC000F000380038003875
:1044E000003803F003800300030000000000078091
:1044F0000780000000000000000000000000000035
:104500000000000000E007F80C0C180630067003ED
:1045100063F36633C673CC63CC62CC66CCE6C7FC6F
:10452000E0006000700038101FF000000000000084
:10453000000000000000000003C007E006E00E706D
:104540000E700C301C3818183FFC3FFC700E600ECB
:10455000E007000000000000000000000000000074
:1045600000000000000000003FF03838381C381C04
:1045700038383FF03FF8381C380C380C381C3FF8FE
:104580003FE000000000000000000000000000000C
:1045900000000000000000E007FC1E0438003800A6
:1045A0003000700070007000300038003C001F9C2C
:1045B00007FC0000000000000000000000000000F8
:1045C00000000000000000003FF03078301C300C8C
:1045D000300E300E300E300E300E301C30383FF0C2
:1045E0003FC00000000000000000000000000000CC
:1045F00000000000000000001FF81800180018005C
:1046000018001FF81FF818001800180018001FF8ED
:104610001FF8000000000000000000000000000083
:1046200000000000000000001FF81800180018002B
:1046300018001FF81FF818001800180018001800BC
:104640001800000000000000000000000000000052
:1046500000000000000000F007FC1E0438003000DD
:104660007000700070FC700C700C300C380C1F1C4B
:1046700007FC000000000000000000000000000037
:104680000000000000000000300C300C300C300C3A
:10469000300C3FFC3FFC300C300C300C300C300C3C
:1046A000300C0000000000000000000000000000CE
:1046B00000000000000000003FFC0180018001803C
:1046C00001800180018001800180018001803FFC28
:1046D0003FFC00000000000000000000000000009F
:1046E00000000000000000001FF00030003000302B
:1046F00000300030003000300030003000701DE02D
:104700001FC00000000000000000000000000000CA
:104710000000000000000000381C387038E039C08C
:104720003B803F003F003B8039C038E0387038386C
:10473000381C000000000000000000000000000025
:1047400000000000000000001C001C001C001C00F9
:104750001C001C001C001C001C001C001C001FFC7A
:104760001FFC00000000000000000000000000002E
:104770000000000000000000381C7C3C6C3E6E6EA7
:10478000666E66CE63C663866186600660066006F6
:1047900060060000000000000000000000000000B3
:1047A00000000000000000003C0C3C0C3E0C360CED
:1047B000330C338C318C31CC30EC306C307C303C71
:1047C000301C00000000000000000000000000009D
:1047D00000000000000001C00FF81C3C381C700EE7
:1047E000700E60066006700E700E700C381C1E781D
:1047F0000FE00000000000000000000000000000CA
:1048000000000000000000003FF0383C381C380C6D
:10481000380C381C38783FE0380038003800380051
:104820003800000000000000000000000000000050
:1048300000000000000001C00FF81C3C381C700E86
:10484000700E60066006700E700E700C381C1E78BC
:104850000FE0018001C000FF003C000000000000EC
:1048600000000000000000003FF038383818381809
:10487000383838F03FC038E0387038383838381CAD
:10488000380E0000000000000000000000000000E2
:1048900000000000000001E00FF838003800380088
:1048A0003C001F8003F00078001C001C001C3878BE
:1048B0003FE00000000000000000000000000000D9
:1048C00000000000000000007FFE018001800180E8
:1048D00001800180018001800180018001800180D0
:1048E0000180000000000000000000000000000047
:1048F0000000000000000000300C300C300C300CC8
:10490000300C300C300C300C300C300C381C1C3897
:104910000FF0000000000000000000000000000098
:104920000000000000000000E006700E700E381C51
:10493000381C1C181C380C300E70066007E003C0D1
:1049400003C00000000000000000000000000000A4
:1049500000000000000000006006600660066006BF
:104960006186638673C673CE766C366C3C3C3C3C89
:10497000381C0000000000000000000000000000E3
:104980000000000000000000301C38181C380E70B9
:1049900007E003C003C007E00E701C381838381C4D
:1049A000700E000000000000000000000000000089
:1049B0000000000000000000700E700C381C1C3855
:1049C0000E70066007E003C0018001800180018055
:1049D0000180000000000000000000000000000056
:1049E00000000000000000003FFC001C00380070C8
:1049F00000E001C0038007000E000C0018003FFC1F
:104A00003FFC00000000000000000000000000006B
:104A10000000000007F007F0060006000600060090
:104A20000600060006000600060006000600060056
:104A3000060006000600060007F000000000000067
:104A400000000000000018001C000C000600070019
:104A500003000380018001C000C0006000700030CE
:104A600000380018000C00000000000000000000EA
:104A7000000000000FE00FE00060006000600060D8
:104A80000060006000600060006000600060006026
:104A900000600060006000600FE0000000000000A7
:104AA000000000000000000003C006C006600C30DB
:104AB0001818301C0000000000000000000000007A
:104AC00000000000000000000000000000000000E6
:104AD00000000000000000000000000000000000D6
:104AE00000000000000000000000000000000000C6
:104AF0000000000000000000FFFF000000000000B8
:104B00000000000000001E00038000000000000004
:104B10000000000000000000000000000000000095
:104B20000000000000000000000000000000000085
:104B300000000000000000000000000000001FF066
:104B40001038001C001C0FFC1C1C381C381C3CFCC2
:104B50001FDC00000000000000000000000000005A
:104B600000000000000038003800380038003BF832
:104B70003E1C3C1C380C380C380C380C381C3C786B
:104B80001FE0000000000000000000000000000026
:104B9000000000000000000000000000000007F816
:104BA0000E001C0038003800380038001C000F18B8
:104BB00007F80000000000000000000000000000F6
:104BC000000000000000001C001C001C001C0FFC6A
:104BD0001C1C381C301C301C301C301C383C1CFC8D
:104BE0000F9C00000000000000000000000000001A
:104BF00000000000000000000000000000000FF0B6
:104C00001C38381C300C3FFC3000300038001E0CC3
:104C100007FC000000000000000000000000000091
:104C200000000000003C01FE0380030003000300BD
:104C30007FFC7FFC0300030003000300030003006C
:104C40000300000000000000000000000000000061
:104C500000000000000000000000000000000FFE47
:104C60001C383818381818381FF03B8030003FF0D7
:104C70001FFC300E700E381C1FF8000000000000F2
:104C800000000000000038003800380038003BF811
:104C90003E383C1C381C381C381C381C381C381C4E
:104CA000381C0000000000000000000000000000B0
:104CB00000000000018003C003C0000000001FC00E
:104CC00001C001C001C001C001C001C001C001C0DC
:104CD0003FFC000000000000000000000000000099
:104CE00000000000002000700070000000003FF095
:104CF0000070007000700070007000700070007034
:104D000000700070007020E03FC000000000000054
:104D10000000000000001800180018001800183CDF
:104D2000187018E01B801F001B8019E018701838DD
:104D3000181C00000000000000000000000000003F
:104D40000000000000001FC001C001C001C001C080
:104D500001C001C001C001C001C001C001C001C04B
:104D60003FFC000000000000000000000000000008
:104D700000000000000000000000000000006F3C88
:104D800079EE71CE718E718E718E718E718E718E83
:104D9000718E000000000000000000000000000014
:104DA00000000000000000000000000000003BF8D0
:104DB0003E383C1C381C381C381C381C381C381C2D
:104DC000381C00000000000000000000000000008F
:104DD00000000000000000000000000000000FF0D4
:104DE0001C3C381C700E700E700E700C381C1E7837
:104DF0000FE00000000000000000000000000000C4
:104E000000000000000000000000000000003BF86F
:104E10003E1C3C1C380C380C380C380C381C3C78C8
:104E20003FE0380038003800380000000000000083
:104E300000000000000000000000000000000FFC67
:104E40001C1C381C301C301C301C301C383C1CFC1A
:104E50000F9C001C001C001C001C00000000000037
:104E6000000000000000000000000000000019F831
:104E70001F1C1C0C180E1800180018001800180031
:104E8000180000000000000000000000000000000A
:104E900000000000000000000000000000000FF80B
:104EA0001C0018001E000FC001F800180018183868
:104EB0001FF00000000000000000000000000000E3
:104EC00000000000000000000600060006007FFC55
:104ED000060006000600060006000600070007841C
:104EE00001FC0000000000000000000000000000C5
:104EF0000000000000000000000000000000381C5E
:104F0000381C381C381C381C381C381C383C1CFC1D
:104F10000FDC0000000000000000000000000000A6
:104F20000000000000000000000000000000700C05
:104F3000381C38181C380C300E70066007E003C0AF
:104F400003C000000000000000000000000000009E
:104F500000000000000000000000000000006006EB
:104F600060066186738E73CC33CC366C366C3C3CF9
:104F70003C380000000000000000000000000000BD
:104F80000000000000000000000000000000381CCD
:104F90001C380E7007E003C003C007E00E701C3819
:104FA000381E0000000000000000000000000000AB
:104FB0000000000000000000000000000000700C75
:104FC000381C38181C380C300E70066007E003C01F
:104FD00003C0038007000E007C00000000000000FA
:104FE00000000000000000000000000000001FF8AA
:104FF0000038007000E001C0038007000C001FFCB7
:105000003FFC000000000000000000000000000065
:1050100000000000007801F8038003800380038013
:10502000038003003F003E000300038003800380F1
:1050300003800380038001C000F80000000000002E
:105040000180018001800180018001800180018058
:105050000180018001800180018001800180018048
:1050600001800180018001800180000000000000BB
:10507000000000001E001F80018001C001C001C0AF
:1050800001C000C000FC007C00C001C001C001C024
:1050900001C001C001C003801F000000000000002B
:1050A0000000000000000000000000000000000000
:1050B00000001C003F0671CE60FC000000000000F4
:1050C00000000000000000000000000000000000E0
:1050D00000000000000000000000000000000000D0
:1050E00000000000000000000000000000000000C0
:1050F00000000000000000000000000000000000B0
:10510000000000000000000000000000000000009F
:10511000000000000000000000000000000000008F
:10512000000000000000000000000000000000007F
:105130000000000000000000000000000000003C33
:1051400000003C00003C00003C00003C00003C0033
:10515000003C00003C00003C00003C00003C000023
:105160003C00003C00003C00000000000000003C4F
:1051700000007E00003C0000000000000000000075
:10518000000000000000000000000000000000001F
:10519000000000000000000000000000000003C349
:1051A000E003C3E003C3C003C3C003C3C003C3C061
:1051B00003C1C0000000000000000000000000006B
:1051C00000000000000000000000000000000000DF
:1051D00000000000000000000000000000000000CF
:1051E00000000000000000000000000000000000BF
:1051F00000000000000000000000000000000000AF
:105200000000000001E0E001C0E001C0E001C0E0FA
:105210003FFFFE3FFFFE03C1C00381C00381C00307
:1052200081C07FFFFC7FFFFC0783800703800703AB
:1052300080070380070780000000000000000000D6
:10524000000000000000000000000000000000005E
:105250000000000000000000000000000700000F38
:1052600000000E0001FFF007FFF01F0E001E1E00E1
:105270001E1C001E1C000FDC0007FC0000FF80004D
:105280003FF00038F800387800783C0070783071D2
:10529000F83FFFE01FFF0000E00000E00000E0003A
:1052A00000000000000000000000000000000000FE
:1052B00000000000000000000000000000000F805F
:1052C0000F3FE01E78703C7070707070E07071C0BD
:1052D0003FE3801FC700000E00001C0000780000A4
:1052E000F0F001E7FC03CF0E078E0E0F0E0E1E0E20
:1052F0000E3C07BC7003F800000000000000000036
:10530000000000000000000000000000000000009D
:10531000000000000000000000000000000000008D
:105320000001FF0007FF800F03C00F03C00F03C081
:105330000F0780079F0003FE0003F0000FF83C3EBC
:105340007C3C3C1F3C780FF87807F87C01F03E036A
:10535000F81FFFFC07FE1F00000000000000000017
:10536000000000000000000000000000000000003D
:105370000000000000000000000000000000003EEF
:1053800000003C00003C00003C00003C00003C00F1
:10539000003C0000000000000000000000000000D1
:1053A00000000000000000000000000000000000FD
:1053B00000000000000000000000000000000000ED
:1053C00000000000000000000000000000000000DD
:1053D000000000000000000000000000008000014C
:1053E000C0000780000F00001E00003C0000780095
:1053F00000F00000E00001E00001E00001C0000357
:10540000C00003C00001C00001E00001E00000F0A6
:105410000000F000007800003C00001E00000F00BB
:105420000007C00001C000000000000000000000F4
:10543000000000000000000000000000000003C0A9
:105440000001E00000F000007C00003E00001E00B3
:10545000000F000007800007800003800003C000E9
:1054600003C00003C00003C00003800007800007E2
:1054700080000F00001E00003C0000780000F000DB
:1054800001E00003800000000000000000000000B8
:105490000000000000000000000000000000001CF0
:1054A00000001C000018000F18F007DBE0007F0070
:1054B00000FF0007DBE00E1870001800001C000061
:1054C0001C000000000000000000000000000000C0
:1054D00000000000000000000000000000000000CC
:1054E00000000000000000000000000000000000BC
:1054F00000000000000000000000000000000000AC
:1055000000000000000000000000000000003C005F
:10551000003C00003C00003C00003C00003C003F20
:10552000FFFC3FFFFC003C00003C00003C00003C56
:1055300000003C000000000000000000000000002F
:10554000000000000000000000000000000000005B
:10555000000000000000000000000000000000004B
:10556000000000000000000000000000000000003B
:10557000000000000000000000000000000000002B
:105580000000000000000000000000007C00007E21
:1055900000007E00003E00001E00003C0000F800FD
:1055A00007E0000400000000000000000000000010
:1055B00000000000000000000000000000000000EB
:1055C00000000000000000000000000000000000DB
:1055D00000000000000000000000000000000003C8
:1055E000FFE003FFE00000000000000000000000FA
:1055F00000000000000000000000000000000000AB
:10560000000000000000000000000000000000009A
:10561000000000000000000000000000000000008A
:10562000000000000000000000000000000000007A
:10563000000000000000000000000000000000006A
:105640000000000000000000000000007C0000FEE0
:105650000000FE00007E00000000000000000000CE
:10566000000000000000000000000000000000003A
:10567000000000000000000000000000000000002A
:10568000780000F00000E00001E00003C0000380AB
:10569000000780000F00000E00001E00003C00000C
:1056A000380000700000F00000E00001C00003C0FE
:1056B000000780000700000F00001E00001C000013
:1056C00000000000000000000000000000000000DA
:1056D00000000000000000000000000000000000CA
:1056E0000000000001FFC007FFE00F00F01E00787F
:1056F0001E003C3C00FC3C07FC3C1FBC3C7C1C3DB1
:10570000F03C3FC03C3F003C1E00381E00780F803C
:10571000F007FFE001FF8000000000000000000033
:105720000000000000000000000000000000000079
:105730000000000000000000000000000000000069
:1057400000000000007E0003FE001FDE000E1E00B1
:10575000001E00001E00001E00001E00001E0000B3
:105760001E00001E00001E00001E00001E00001E85
:10577000000FFFF80FFFF80000000000000000001D
:105780000000000000000000000000000000000019
:105790000000000000000000000000000000000009
:1057A0000000000003FF800FFFE00E01F00000F09A
:1057B0000000F00000F00000F00001E00003C00075
:1057C0000F80003E00007C0001F00003C0000F804D
:1057D000001FFFFC1FFFFC00000000000000000095
:1057E00000000000000000000000000000000000B9
:1057F00000000000000000000000000000000000A9
:10580000000000000FFF800FFFE00001E00000F04B
:105810000000F00001E00003C001FF0001FFC00034
:1058200003F00000780000780000780000780001A4
:10583000F00FFFC00FFF000000000000000000009C
:105840000000000000000000000000000000000058
:105850000000000000000000000000000000000048
:1058600000000000000FC0001FC0003FC0007BC050
:1058700000F3C001E3C003C3C00783C00F03C01C13
:1058800003C03803C07FFFFE7FFFFE0003C000039C
:10589000C00003C00003C0000000000000000000C2
:1058A00000000000000000000000000000000000F8
:1058B00000000000000000000000000000000000E8
:1058C000000000000FFFE00FFFE00F00000F0000DE
:1058D0000F00000F00000F00000FFF800FFFE0001F
:1058E00000F00000780000780000780000F000036D
:1058F000E00FFFC00FFE00000000000000000000ED
:105900000000000000000000000000000000000097
:105910000000000000000000000000000000000087
:1059200000000000003FF001FFF003E000078000EE
:105930000F00001E00001E1F001FFFE01FC1F81E09
:1059400000781E003C1E003C1E003C0F00780F80BB
:10595000F807FFE001FF80000000000000000000E9
:105960000000000000000000000000000000000037
:105970000000000000000000000000000000000027
:10598000000000001FFFFC1FFFFC0000780000F07B
:105990000000E00001E00003C0000780000F0000ED
:1059A0000F00001E00003C0000780000F00001F035
:1059B0000001E00003C00000000000000000000043
:1059C00000000000000000000000000000000000D7
:1059D00000000000000000000000000000000000C7
:1059E0000000000003FFE00FE3F00F00781E0078D6
:1059F0001E00780F00F007E3E001FF8001FF800741
:105A0000E7E00F00F81E00781E003C1E007C1F001F
:105A1000F80FFFF003FFC0000000000000000000CE
:105A20000000000000000000000000000000000076
:105A30000000000000000000000000000000000066
:105A40000000000003FF800FC7E01E00F01E00787A
:105A50003C00783C00783C00381E00780FEFF807D7
:105A6000FFB80000780000780000F00001E0000FAF
:105A7000C00FFF000FF00000000000000000000059
:105A80000000000000000000000000000000000016
:105A90000000000000000000000000000000000006
:105AA00000000000000000000000000000000000F6
:105AB000007E00007E00007E000018000000000054
:105AC0000000000000000000000000003C00007E1C
:105AD00000007E00003E000000000000000000000A
